:020000040800F2
:10000000700500204501000823130008791200083C
:1000100021130008F7030008211600080000000063
:10002000000000000000000000000000271300088E
:10003000F903000800000000251300082913000838
:100040005F0100085F0100085F0100085F01000810
:100050005F0100085F0100085F0100085F01000800
:100060005F0100085F0100085F0100085F010008F0
:100070005F0100085F0100085F0100085F010008E0
:100080005F0100085F0100085F0100085F010008D0
:100090005F0100085F0100085F0100085F010008C0
:1000A0005F0100085F0100085F0100085F010008B0
:1000B0005F0100085F0100085F0100085F010008A0
:1000C0005F0100085F0100085F0100085F01000890
:1000D0005F010008151600085F0100085F010008B5
:1000E0005F0100085F0100085F0100085F01000870
:1000F0005F0100085F0100085F0100085F01000860
:100100005F0100085F0100085F0100085F0100084F
:100110005F0100085F0100085F0100085F0100083F
:100120005F0100085F0100085F0100085F0100082F
:10013000DFF80CD000F03EF9004800475D59000898
:10014000700500200648804706480047FEE7FEE7A6
:10015000FEE7FEE7FEE7FEE7FEE7FEE7FEE7FEE777
:100160008B13000831010008202A04DB203A21FA11
:1001700002F00021704721FA02F3D040C2F12002C0
:100180009140084319467047D2B201E000F8012BB4
:10019000491EFBD270470022F6E710B513460A4607
:1001A00004461946FFF7F0FF204610BD30B505465E
:1001B0000020034600E05B1C934205D2EC5CC85C67
:1001C000201A01D1002CF6D130BD2DE9FE4F81EA75
:1001D000030404F0004421F0004100944FF0000BB0
:1001E00023F0004350EA01045ED052EA03045BD0DE
:1001F000C3F30A54C1F30A552C44A4F2F334019416
:10020000A0FB0254C1F3130141F48011C3F31303A3
:1002100043F4801301FB024400FB034E840A970A57
:1002200044EA815447EA8357A4FB076802958D0A84
:1002300005FB07854FEA932C04FB0C542705029D10
:100240004FEA065847EA1637B5EB08056EEB070C80
:10025000870E920E47EA811742EA8312A7FB02013A
:10026000B6EB0B0164EB00042B0D43EA0C335E1874
:1002700044EB1C50DA465146E7FB0201C5F3130478
:100280004FEA0B3343EA14534FEA0432019C43EA2A
:100290000603A4F10C040294009CCDE900B400F024
:1002A0003BF803B0BDE8F08F00200146F9E70EB53A
:1002B00040F2334102910021CDE900110A460B467C
:1002C00000F02AF803B000BDC1F30A5210B5C1F323
:1002D000130140F2FF3341F480119A4201DA002009
:1002E00010BD40F233439A42A2F2334203DC524241
:1002F000FFF73AFF10BD904010BD10B5141E73F10A
:10030000000408DA401C41F1000192185B411A43D5
:1003100001D120F0010010BD2DE9F04D92469B4621
:1003200011B1B1FA81F202E0B0FA80F220329046C7
:1003300000F052F804460F4640EA0A0041EA0B0179
:1003400053465A46084313D0114653EA010019D0C8
:10035000C8F140025046FFF707FF05460E465046DB
:100360005946424600F038F8084305D0012004E021
:1003700020463946BDE8F08D0020054346EAE07688
:100380002C4337430A986305E40AA0EB08000022D7
:10039000FD0A44EA47540A3002D500200146E9E745
:1003A000010510196941DDE9084500196941BDE8F9
:1003B000F04DA2E7064C074D06E0E06840F001036F
:1003C00094E8070098471034AC42F6D3FFF7B4FE28
:1003D000E0590008005A0008202A04DB203A00FAFD
:1003E00002F1002070479140C2F1200320FA03F38C
:1003F000194390407047FEE7704772B6FEE710B5AC
:1004000090F821100022022905D00421816380F890
:100410002020012010BD01680B6823F00E030B6043
:1004200001680B6823F001030B6090F84030C46B47
:10043000012101FA03F3636080F8211080F8202085
:10044000104610BD2DE9F05F90F82110002402291C
:1004500003D004218163012485E001680A6822F049
:100460000E020A6001680A6822F001020A603F4E2B
:100470003E4FB215DFF8F4C0DFF8F090DFF8ECA0E3
:10048000DFF8E8B0DFF8E4E00168783F1301150217
:10049000ACF1640CA9F15009AAF13C0AABF1280BAC
:1004A000AEF1140E4FF48018B14227D9B9420ED0E4
:1004B000614512D049451DD0514518D0594518D035
:1004C000714501D1424615E0294EB14201D10122C8
:1004D00010E0274E1436B14201D110220AE0244E1A
:1004E0002836B14206D0224A3C32914201D11A4606
:1004F00000E02A461E49091F0A602BE0B94213D0CA
:10050000614517D0494522D051451DD059451DD0D0
:10051000714501D142461AE0B14202D14FF08072DA
:1005200015E0134EB14201D1012210E0104E1436F5
:10053000B14201D110220AE00D4E2836B14206D058
:100540000B4A3C32914201D11A4600E02A46074943
:1005500080394A60012180F82110002180F82010A4
:10056000416B01B188472046BDE8F09F8000024002
:10057000080402402DE9F84FDFF8C8910024A9F1E2
:10058000040B23460F2709F1040AABF1040ED1E056
:100590000125A54006EA0502AA4276D1DFF8A8C1E6
:1005A0004E68A6EB0C0866452BD00DDC032E34D02C
:1005B00005DC36B3012E19D0022E2FD11BE0112EEF
:1005C00016D0122E2AD119E0B8F5881F19D006DCF2
:1005D000B8F5803F15D0B8F5801F1FD111E0B8F5F0
:1005E000001F0ED0B8F5041F18D10AE0CB6815E043
:1005F000CB681B1D12E0CB6808330FE0CB680C33CF
:100600000CE08B682BB1012B4FF0080303D0456140
:1006100004E0042302E0056100E00023FF2A01D882
:10062000064601E000F104064FEA840501D9A5F170
:100630002005D6F8008007FA05FC28EA0C0803FA22
:1006400005F548EA0508C6F800804D68ED0070D54C
:100650003E4DAE6946F00106AE61AD6924F0030679
:1006600005F0010500953A4D06EB050CDCF8085045
:10067000A607360F07FA06F825EA0805DFF8D48042
:10068000404503D14FF0000825E052E0DFF8C88074
:10069000404502D14FF001081DE0DFF8C080404521
:1006A00002D14FF0020816E0DFF8B480404502D1D5
:1006B0004FF003080FE0DFF8AC80404502D14FF067
:1006C000040808E0DFF8A080404502D14FF005089B
:1006D00001E04FF0060808FA06F848EA0508CCF8E9
:1006E00008804D68D9F80060ED024D4601D51643EB
:1006F00000E096432E604D68DAF80060AD02554682
:1007000001D5164300E096432E604D68DBF800608B
:10071000AD035D4601D5164300E096432E604D685B
:10072000DEF80060ED03754601D5164300E0964300
:100730002E60641C0A681646E2407FF429AFBDE8CB
:10074000F88F000008040140000011100010024062
:100750000000014000080140000C01400010014071
:100760000014014000180140001C01400AB1016161
:1007700070470904FBE700000148806870470000EB
:1007800004000020024881680278114481607047AB
:1007900004000020074810B5016841F01001016015
:1007A000032000F075F80F2000F006F800F024F8A0
:1007B000002010BD0020024070B50D4D04464FF4DE
:1007C0007A712878B1FBF0F00A490968B1FBF0F0C2
:1007D00000F0DCFA48B9102C07D200222146501E46
:1007E00000F036F800206C6070BD012070BD000084
:1007F00004000020100000200C4808B5816941F079
:1008000001018161816901F001010091C16941F03B
:100810008051C161C06900F0805000900448416877
:1008200021F0E06141F00071416008BD001002401C
:1008300000000140002809DB00F01F020121914067
:100840004009800000F1E020C0F80011704700006E
:10085000F0B40E4B1B680C46C3F30223C3F107052B
:10086000042D00D90425191D072901D2002300E019
:10087000DB1E012606FA05F1491E214099409E40E3
:10088000761E16403143F0BC00F0CBBE0CED00E00C
:10089000064900F0070208684FF6FF03184040EAD7
:1008A0000220034A10430860704700000CED00E08E
:1008B0000000FA052DE9F0470F46050061D0434ED0
:1008C000306800F00700B84209D2306820F0070015
:1008D00038433060306800F00700B84251D12868D2
:1008E0003B4C810712D5400703D5606840F4E060B7
:1008F00060602878000703D5606840F4605060604D
:100900006068A96820F0F000084360602878C0079C
:1009100028D06868012810D02168022810D08907E3
:1009200000292EDA616821F0030101436160FFF7BD
:1009300023FF804641F288390DE021688903EFE703
:100940008901EDE7FFF718FFA0EB0801494502D93F
:100950000320BDE8F0876068696800F00C00B0EB28
:10096000810FEFD1306800F00700B8420BD9306832
:1009700020F0070038433060306800F00700B842CC
:1009800001D00120E5E72878400705D56068E968CF
:1009900020F4E060084360602878000706D56068AE
:1009A000296920F4605040EAC100606000F038F826
:1009B0006168084AC1F30311515CC84006490860E8
:1009C00006480068FFF7F8FE0020C2E7002002405A
:1009D00000100240C6590008100000200800002046
:1009E0000448054900684968044AC1F30221515C82
:1009F000C84070471000002000100240D65900087F
:100A00000448054900684968044AC1F3C221515CA1
:100A1000C84070471000002000100240D65900085E
:100A20000E4A51680E4801F00C03042B11D0082B1C
:100A30000FD10C48C1F38343C903C05C0AD5516888
:100A4000084AC1F34041921E515C054A5043B0FB35
:100A5000F1F070470449484370470000001002401D
:100A600000127A00B659000800093D002DE9F84F40
:100A7000040070D02078C04DC00749D06868C0F32A
:100A80008100012807D06868C0F38100022809D1DD
:100A90006868C00306D52868800339D560680028D7
:100AA000E7D035E06068B0F5803F0BD010B1B0F50D
:100AB000A02F11D0286820F480302860286820F406
:100AC000802002E0286840F480302860606890B19F
:100AD000FFF752FE06460AE0286840F480202860AE
:100AE000F0E700BFFFF748FE801B642873D8286832
:100AF0008003F7D50CE0FFF73FFE064605E000BF98
:100B0000FFF73AFE801B6428F0D828688003F7D4EA
:100B100020789A4E80074FF001094FF0000839D530
:100B2000686810F00C0F07D06868C0F381000228D5
:100B300009D16868C00306D42868800714D52069E5
:100B4000012808D110E02069B0B1C6F80090FFF785
:100B500013FE074605E00AE1FFF70EFEC01B022860
:100B6000C4D828688007F7D52868616920F0F800A4
:100B700040EAC10028600DE0C6F80080FFF7FCFDE8
:100B8000074604E0FFF7F8FDC01B022823D82868B9
:100B90008007F7D4207800072CD57948A169D9B10E
:100BA000C0F80090FFF7E8FD074604E0FFF7E4FD1A
:100BB000C01B02280FD8686A8007F7D571484FF428
:100BC000FA510068B0FBF1F0009000BF0098411EA0
:100BD0000091FAD20EE080E0C0F80080FFF7CCFD73
:100BE000074604E0FFF7C8FDC01B022875D8686AF5
:100BF0008007F7D42078400760D5E8690027C00057
:100C000008D4E86940F08050E861E869012700F005
:100C1000805000905C480168C90513D40168834680
:100C200041F480710160FFF7A7FD824606E000BF36
:100C3000FFF7A2FDA0EB0A0064284ED8DBF8000005
:100C4000C005F5D5E06801280AD008B1052813D001
:100C5000286A20F001002862286A20F0040002E0DF
:100C6000286A40F001002862E06841F2883B98B1B0
:100C7000FFF782FD82460BE0286A40F004002862FC
:100C8000EEE700BFFFF778FDA0EB0A0159455AD8FF
:100C9000286A8007F6D50CE0FFF76EFD824605E076
:100CA000FFF76AFDA0EB0A0159454CD8286A800776
:100CB000F6D41FB1E86920F08050E861E06988B39C
:100CC0006968C1F38101022944D00228C6F8608016
:100CD00004D0FFF751FD044638E034E0FFF74CFD47
:100CE000074604E0FFF748FDC01B02282BD8286800
:100CF0008001F7D4206AB0F5803F05D16868A1680B
:100D000020F4003008436860D4E9080108436968AA
:100D100021F4741108436860C6F86090FFF72CFD59
:100D2000044606E025E000BFFFF726FD001B022871
:100D300009D828688001F7D51BE000BFFFF71CFD2C
:100D4000001B022802D90320BDE8F88F2868800123
:100D5000F4D40EE00128F7D06868226A00F48031EC
:100D6000914204D1616A00F47010884201D00120E0
:100D7000EAE70020E8E700000010024000004242DD
:100D800080044242100000200070004010B5401E58
:100D9000B0F1807F01D3012010BD4FF0E0246061ED
:100DA0000F21601700F03DFC0020A06107202061AA
:100DB000002010BD70477047F8B501680446086808
:100DC000CA684B6910F00F0F4FF000055AD003F0BE
:100DD000010602F49077374365D0C10705D0D105ED
:100DE00003D5616C41F001016164410705D5D90764
:100DF00003D0616C41F002016164810705D5D90718
:100E000003D0616C41F004016164010707D502F071
:100E10002001314303D0616C41F008016164616CD1
:100E200000293BD0800604D5900602D5204600F06C
:100E3000DCFA20684069616CC0F3801001F00801A1
:100E4000014320462BD000F0A9FA206840694006F3
:100E500021D52068143050E8001F21F0400140E8FF
:100E60000012002AF5D1E06BA8B16D494163E06B37
:100E7000FFF7E8FA002811D0E06B416B01B0BDE844
:100E8000F040084783060ED593060CD52046BDE8F2
:100E9000F84000F0AABA2046FFF78DFFF8BDFFF733
:100EA0008AFF6564F8BD266B2023012E7CD1C6061F
:100EB0007AD5D60678D508684868009048694FF01A
:100EC0000206400640D5E16B086840680004000C4B
:100ED000E8D0A28D8242E5D9E085886920282DD00E
:100EE00020680C3050E8001F21F4807140E80012A7
:100EF000002AF5D12168143151E8000F20F00100DB
:100F000041E80002002AF5D12068143050E8001FA3
:100F100021F0400140E80012002AF5D184F8423067
:100F2000256320680C3050E8001F21F0100140E8D4
:100F30000012002AF5D1E06BFFF761FA6663A08D1D
:100F4000E18D401A81B22AE0A08DE18D401A81B274
:100F5000E08D0028A6D00029A4D022680C3252E8E7
:100F6000000F20F4907042E80007002FF5D12068B0
:100F7000143050E8002F22F0010240E80027002F33
:100F8000F5D184F84230256320680C3050E8002FFA
:100F900022F0100240E80023002BF5D166632046C2
:100FA000FFF708FFF8BDFFE705062BD5150629D585
:100FB00094F841002128F5D1A068B0F5805F01D1F7
:100FC0002069B0B1206A411C216221680078486024
:100FD000E08C401E0004000CE084E3D12068C1686E
:100FE00021F08001C1602068C16841F04001C1600A
:100FF000D8E7206A0088C0F308004860206A801C97
:101000002062E5E74006CDD55006CBD5CA6820461C
:1010100022F04002CA6084F8413000F02CF9C1E7A8
:101020008D13000870B5040004D094F84100002529
:1010300010B106E0012070BD84F84050204600F059
:1010400023F8242084F841002068C16821F400516D
:10105000C160204600F02AFA2068016921F490411D
:1010600001612068416921F02A0141612068C1685D
:1010700041F40051C1606564202084F8410084F887
:1010800042006563002070BD30B585B00024009437
:101090000194029403940068184988422CD118489E
:1010A000816941F480418161816901F48041049149
:1010B000816941F0040181618069124D00F00400F2
:1010C00004904FF4007000900220019003200390E0
:1010D00069462846FFF74EFA2815CDE9000469460F
:1010E00028460294FFF746FA002211462520FFF712
:1010F000AFFB2520FFF79EFB05B030BD0038014057
:10110000001002400008014090F84230202B01D02E
:101110000220704721B11AB10023036300F022BA04
:10112000012070472DE9F0410068234988423BD1F6
:10113000224C8E15002520784FF6FF77FF280BD321
:10114000257031461E48FFF726F83B460A221DA1AE
:101150001F4800F043F827E01949A2780A54401CC0
:10116000C2B28818227010F8011C0A291CD110F88C
:10117000020C0D2818D13B461149154800F02EF8F5
:10118000012214A10E48FFF711F808B90120607080
:10119000012211A10A48FFF709F800B9657025700E
:1011A00031460748FEF7F7FFBDE8F0410349012249
:1011B000891C0748FFF7A8BF003801400000002045
:1011C00014000020CAFDBEDDD2E7B3F60000000027
:1011D000140100205A000000530000002DE9F843DC
:1011E000044690F841001F4616460D46202802D0BE
:1011F0000220BDE8F8837DB176B100206064212033
:1012000084F84100FFF7B8FAA6848046E684A06817
:10121000B0F5805F02D003E00120EAE7206910B159
:101220002E4600250EE000260CE08021204600F02E
:10123000B4F9A0B9AEB116F8010B21684860E08C92
:10124000401EE084E08C43464FF0000200970028E7
:10125000EBD14FF04001204600F09FF930B1032060
:10126000C7E735F8020BC0F30800E6E7202084F852
:1012700041000020BDE77047FEE7000030B585B0B3
:10128000002417480094019402940394816941F06A
:1012900020018161816901F020010491816941F09F
:1012A0000401816180690F4D00F004000490002268
:1012B00080212846FFF75AFA012211022846FFF73B
:1012C00055FA4FF4C07000900120CDE901040220CE
:1012D000039069462846FFF74DF905B030BD000080
:1012E00000100240000801400C4810B50A49016096
:1012F0004FF4E1314160002181600C22C160C0E9FE
:1013000004128161C161FFF78DFE002803D0BDE8A2
:101310001040FFF772B810BD0038014014010020E2
:10132000FEE7FEE770477047FFF72CBA30B58FB085
:1013300028216846FEF72FFF14210AA8FEF72BFF8D
:1013400001210804CDE90010002402940225049133
:10135000CDE907504FF4E01009906846FFF786FB8F
:1013600008B172B6FEE70F20CDE90A054FF48060A0
:10137000CDE90C4002210AA80E94FFF79BFA002841
:1013800001D072B6FEE70FB030BD704710B5406AAD
:101390000021C185C184FFF70EFD10BD01680C312D
:1013A00051E8002F22F4907241E80023002BF5D180
:1013B0000168143151E8002F22F0010241E80023B6
:1013C000002BF5D1016B012909D101680C3151E8DD
:1013D000002F22F0100241E80023002BF5D120213C
:1013E00080F8421000210163704708B590F8421060
:1013F000222901D0022008BD82684FF480539A420E
:1014000001D1016921B1816A9A421BD04AB10AE037
:101410000268816A5268C2F308020A80816A891CE4
:1014200008E0026972B10268526802F07F020A7035
:10143000816A491C8162C18D491E0904090CC1855C
:1014400003D01BE002685268F1E70168CA6822F025
:101450002002CA600168CA6822F48072CA6001680A
:101460004A6922F001024A61202180F842100021DD
:101470004163026B012A03D0FFF754FE002008BD30
:10148000016301680C3151E8002F22F0100241E89D
:101490000023002BF5D101680A68D20602D50A683C
:1014A00049680091818DFFF785FCE7E770B5044638
:1014B00000680169E26821F440511143016121692A
:1014C000A0680843616908432168CA6841F20C6357
:1014D0009A430243CA6020684169A26921F44071BD
:1014E000114341611E492068884202D1FFF788FA02
:1014F00001E0FFF775FA00EBC00101EB0012606834
:1015000064218000B2FBF0F3B3FBF1F36FF0180637
:101510007343B2FBF0F5B2FBF0F605EB8305322323
:1015200003EB0515B5FBF1F5B6FBF1F605F0F0059B
:1015300005EB0615B2FBF0F6B2FBF0F0B0FBF1F0F4
:101540006FF01802504306EB800003EB0010B0FB75
:10155000F1F0216800F00F002844886070BD0000A1
:101560000038014081628285C285002141642221C8
:1015700080F84210016921B10168CA6842F48072A2
:10158000CA6001684A6942F001024A610068C168A4
:1015900041F02001C160002070472DE9F0419846DC
:1015A00017460E460446069D27E0681C25D02DB13F
:1015B000FFF7E2F8A0EB0800A8421ED920680C3023
:1015C00050E8001F21F4D07140E80012002AF5D144
:1015D0002068143050E8001F21F0010140E800129B
:1015E000002AF5D1202084F8410084F84200002030
:1015F00084F840000320BDE8F0812068006836EAE6
:10160000000004D00020B842CFD00020F3E7012032
:10161000F9E700000148FFF7CFBB000014010020EC
:10162000FEE70907090E002804DB00F1E02080F83E
:101630000014704700F00F0000F1E02080F8141D46
:10164000704702E008C8121F08C1002AFAD170478B
:101650007047002001E001C1121F002AFBD1704732
:10166000034A116813685B1A8342FBD3704700007A
:101670000C000020F0B51B4885B0816941F01001D5
:101680008161816901F010010491816941F00401D7
:101690008161816901F004010491816941F00401D3
:1016A00081618069002400F004000490202001255D
:1016B00003268DE8710069460B48FEF75BFFE803DF
:1016C0008DE87100094F69463846FEF753FF022046
:1016D00003960095CDE9014069463846FEF74AFF7A
:1016E00005B0F0BD001002400010014000080140AC
:1016F000F8B5174F0646002438887D8821464543B3
:10170000204603F041FF3889ADF8000011494FF041
:101710008070086147000F61BDF800200E4802602C
:10172000BA100A6180230B614FF4007CC1F810C02D
:101730004FF4807EC1F810E00F6103E006600A619B
:101740000B61641CAC42F9D3C1F810C0F8BD0000B5
:101750005C010020001001400C0C01402DE9F04F0D
:1017600038492C260A46887192884FF4305A4FF433
:10177000285B41F6631E2B274FF02A0C4FF0F00830
:1017800045F210594FF448754FF4A0744FF4F073BC
:1017900058B10C80A1F802804A4530D1A1F808A0C8
:1017A000A1F80AB03802888141E0A1F800804C809D
:1017B0004A4507D1A1F808A0A1F80AB04FF42C506F
:1017C000888105E072450E8105D14F81A1F80CC0DA
:1017D0000B804D8002E0A1F80AC08F81A2F5A640DF
:1017E000103803D0A2F5EE40963801D10C804B8022
:1017F000A2F5184006381FD10B804D801CE07245C1
:1018000011D0A2F5184006380DD00E81A1F80AC0FB
:10181000A1F80C70A2F5A64010380BD0A2F5EE404E
:10182000963807D008E00E81A1F80AC08F810D809C
:101830004B80EFE70B804C80BDE8F04F002003F0B9
:1018400023BD00005C0100202DE9F84FCF20ADF84A
:101850000000FF4C4FF0807525616E002661BDF8D9
:101860000010DFF8F0A3CAF800106F1027614FF0E6
:101870008008C4F810804FF40079C4F8109000205C
:1018800004F038F8C12004F035F8302004F032F8C4
:10189000ED20ADF8000025612661BDF80010CAF802
:1018A00000102761C4F81080C4F81090642004F080
:1018B00021F8032004F01EF8122004F01BF8812008
:1018C00004F018F8E820ADF8000025612661BDF8A5
:1018D0000010CAF800102761C4F81080C4F81090F6
:1018E000852004F007F8102004F004F87A2004F0B2
:1018F00001F8CB20ADF8000025612661BDF800108D
:10190000CAF800102761C4F81080C4F8109039207C
:1019100003F0F0FF2C2003F0EDFF002003F0EAFFBE
:10192000342003F0E7FF022003F0E4FFF720ADF8D6
:10193000000025612661BDF80010CAF8001027617B
:10194000C4F81080C4F81090202003F0D3FFEA20E0
:10195000ADF8000025612661BDF80010CAF800103E
:101960002761C4F81080C4F81090002003F0C2FF73
:10197000002003F0BFFFC020ADF800002561266104
:10198000BDF80010CAF800102761C4F81080C4F830
:1019900010901B2003F0AEFFC120ADF800002561C0
:1019A0002661BDF80010CAF800102761C4F8108045
:1019B000C4F81090012003F09DFFC520ADF8000091
:1019C00025612661BDF80010CAF800102761C4F82F
:1019D0001080C4F81090302003F08CFF302003F00A
:1019E00089FFC720ADF8000025612661BDF8001011
:1019F000CAF800102761C4F81080C4F81090B7200E
:101A000003F078FF3620ADF8000025612661BDF8AF
:101A10000010CAF800102761C4F81080C4F81090B4
:101A2000482003F067FF3A20ADF8000025612661E9
:101A3000BDF80010CAF800102761C4F81080C4F87F
:101A40001090552003F056FFB120ADF8000025613D
:101A50002661BDF80010CAF800102761C4F8108094
:101A6000C4F81090002003F045FF1A2003F042FF55
:101A7000B620ADF8000025612661BDF80010CAF857
:101A800000102761C4F81080C4F810900A2003F0F9
:101A900031FFA22003F02EFFF220ADF800002561F7
:101AA0002661BDF80010CAF800102761C4F8108044
:101AB000C4F81090002003F01DFF2620ADF80000B0
:101AC00025612661BDF80010CAF800102761C4F82E
:101AD0001080C4F81090012003F00CFFE020ADF856
:101AE000000025612661BDF80010CAF800102761CA
:101AF000C4F81080C4F810900F2003F0FBFE2A20D9
:101B000003F0F8FE282003F0F5FE082003F0F2FEB3
:101B10000E2003F0EFFE082003F0ECFE542003F04B
:101B2000E9FEA92003F0E6FE432003F0E3FE0A20CD
:101B300003F0E0FE0F2003F0DDFE002003F0DAFEEC
:101B4000002003F0D7FE002003F0D4FE002003F0B5
:101B5000D1FEE120ADF8000025612661BDF800103E
:101B6000CAF800102761C4F81080C4F81090002053
:101B700003F0C0FE152003F0BDFE172003F0BAFEEF
:101B8000072003F0B7FE112003F0B4FE062003F097
:101B9000B1FE2B2003F0AEFE562003F0ABFE3C203E
:101BA00003F0A8FE052003F0A5FE102003F0A2FE1E
:101BB0000F2003F09FFE3F2003F09CFE3F2003F028
:101BC00099FE0F2003F096FE2B20ADF80000256152
:101BD0002661BDF80010CAF800102761C4F8108013
:101BE000C4F81090002003F085FE002003F082FE70
:101BF000012003F07FFE3F2003F07CFE2A20ADF899
:101C0000000025612661BDF80010CAF800102761A8
:101C1000C4F81080C4F81090002003F06BFE002080
:101C200003F068FE002003F065FEEF2003F062FE83
:101C30001120ADF8000025612661BDF80010CAF83A
:101C400000102761C4F81080C4F81090782003E0D9
:101C5000001001400C0C0140FFF702FD2920ADF8F7
:101C6000000025612661BDF80010CAF80010276148
:101C7000C4F81080C4F81090BDE8F88F2DE9F84F33
:101C8000FF20ADF80000FF4C4FF0807525616E001D
:101C90002661BDF80010DFF8F0A3CAF800106F103D
:101CA00027614FF08008C4F810804FF40079C4F821
:101CB000109003F01FFE982003F01CFE062003F096
:101CC00019FEBC20ADF8000025612661BDF80010AA
:101CD000CAF800102761C4F81080C4F810900120E1
:101CE00003F008FE0F2003F005FE612003F002FE62
:101CF000FF2003F0FFFD012003F0FCFD012003F0B5
:101D0000F9FD0B2003F0F6FD102003F0F3FD372062
:101D100003F0F0FD632003F0EDFDFF2003F0EAFD8A
:101D2000FF2003F0E7FD012003F0E4FD012003F0B4
:101D3000E1FD002003F0DEFD002003F0DBFDFF20CD
:101D400003F0D8FD522003F0D5FD012003F0D2FDB1
:101D5000002003F0CFFD402003F0CCFDBD20ADF806
:101D6000000025612661BDF80010CAF80010276147
:101D7000C4F81080C4F81090012003F0BBFD2320AC
:101D800003F0B8FD452003F0B5FD672003F0B2FD78
:101D9000012003F0AFFD232003F0ACFD452003F04C
:101DA000A9FD672003F0A6FDBE20ADF80000256167
:101DB0002661BDF80010CAF800102761C4F8108031
:101DC000C4F81090002003F095FD012003F092FD6F
:101DD000AB2003F08FFD602003F08CFD222003F088
:101DE00089FD222003F086FD222003F083FD2220BE
:101DF00003F080FD222003F07DFDC720ADF8000038
:101E000025612661BDF80010CAF800102761C4F8EA
:101E10001080C4F81090362003F06CFDED20ADF872
:101E2000000025612661BDF80010CAF80010276186
:101E3000C4F81080C4F810907F2003F05BFD0F20E1
:101E400003F058FDC020ADF8000025612661BDF803
:101E50000010CAF800102761C4F81080C4F8109070
:101E60000F2003F047FD0B2003F044FD0A2003F090
:101E700041FDFC20ADF8000025612661BDF8001091
:101E8000CAF800102761C4F81080C4F81090082028
:101E900003F030FDDF20ADF8000025612661BDF8BC
:101EA0000010CAF800102761C4F81080C4F8109020
:101EB000002003F01FFD002003F01CFD002003F0B4
:101EC00019FD002003F016FD002003F013FD202073
:101ED00003F010FDF320ADF8000025612661BDF888
:101EE0000010CAF800102761C4F81080C4F81090E0
:101EF000742003F0FFFCB420ADF8000025612661DA
:101F0000BDF80010CAF800102761C4F81080C4F8AA
:101F10001090002003F0EEFC002003F0EBFC00200A
:101F200003F0E8FCF720ADF8000025612661BDF85C
:101F30000010CAF800102761C4F81080C4F810908F
:101F4000822003F0D7FCB120ADF8000025612661A6
:101F5000BDF80010CAF800102761C4F81080C4F85A
:101F60001090002003F0C6FC132003F0C3FC1320E4
:101F700003F0C0FCF220ADF8000025612661BDF839
:101F80000010CAF800102761C4F81080C4F810903F
:101F9000802003F0AFFC042003F0ACFC402003F0F1
:101FA000A9FC282003F0A6FCC120ADF800002561A3
:101FB0002661BDF80010CAF800102761C4F810802F
:101FC000C4F81090172003F095FC882003F092FCD1
:101FD000882003F08FFC202003F08CFCE020ADF87B
:101FE000000025612661BDF80010CAF800102761C5
:101FF000C4F81080C4F81090002003F07BFC0A2085
:1020000003F078FC122003F075FC102003F072FC42
:102010000E2003F06FFC202003F06CFCCC2003F0BA
:1020200069FC072003F066FC062003F063FC0B202C
:1020300003F060FC0E2003F05DFC0F2003F05AFC5F
:102040000D2003F057FC152003F054FC102003F082
:1020500051FC002003F04EFCE120ADF800002561AA
:102060002661BDF80010CAF800102761C4F810807E
:10207000C4F81090002003F03DFC0B2003F03AFC64
:10208000132003E0001001400C0C014003F032FC6F
:102090000D2003F02FFC0E2003F02CFC1B2003F07E
:1020A00029FC712003F026FC062003F023FC062007
:1020B00003F020FC0A2003F01DFC0F2003F01AFCA3
:1020C0000E2003F017FC0F2003F014FC152003F082
:1020D00011FC0C2003F00EFC002003F00BFC2A2066
:1020E000ADF8000025612661BDF80010CAF80010A7
:1020F0002761C4F81080C4F81090002003F0FAFBA8
:10210000002003F0F7FB012003F0F4FBDF2003F0D5
:10211000F1FB2B20ADF8000025612661BDF8001011
:10212000CAF800102761C4F81080C4F8109000208D
:1021300003F0E0FB002003F0DDFB032003F0DAFBFB
:102140001F2003F0D7FB3A20ADF80000256126617F
:10215000BDF80010CAF800102761C4F81080C4F858
:102160001090552003F0C6FB3620ADF80000256125
:102170002661BDF80010CAF800102761C4F810806D
:10218000C4F81090002003F0B5FB1120ADF800005A
:1021900025612661BDF80010CAF800102761C4F857
:1021A0001080C4F810907820FFF75AFA2920ADF873
:1021B000000025612661BDF80010CAF800102761F3
:1021C000C4F81080C4F810901420FFF749FA2C20AE
:1021D000ADF8000025612661BDF80010CAF80010B6
:1021E0002761C4F81080C4F81090BDE8F88F000093
:1021F0002DE9F84FED20ADF80000FF4E4FF0807450
:10220000346163003361BDF80000FC4D28609F100D
:1022100037614FF08009C6F810904FF40078C6F887
:102220001080012003F066FBFE2003F063FBEE202C
:10223000ADF8000034613361BDF8000028603761FB
:10224000C6F81090C6F81080DE2003F053FB212062
:1022500003F050FBF120ADF8000034613361BDF8AC
:10226000000028603761C6F81090C6F81080012081
:1022700003F040FBDF20ADF8000034613361BDF8AE
:10228000000028603761C6F81090C6F81080102052
:1022900003F030FB4FF0C40AADF800A034613361A5
:1022A000BDF8000028603761C6F81090C6F81080AD
:1022B0008F2003F01FFB4FF0C60BADF800B0346168
:1022C0003361BDF8000028603761C6F81090C6F889
:1022D0001080002003F00EFBE22003F00BFBE22055
:1022E00003F008FBE22003F005FBBF20ADF800007F
:1022F00034613361BDF8000028603761C6F8109082
:10230000C6F81080AA2003F0F5FAB020ADF800005E
:1023100034613361BDF8000028603761C6F8109061
:10232000C6F810800D2003F0E5FA002003F0E2FA71
:102330000D2003F0DFFA002003F0DCFA112003F097
:10234000D9FA002003F0D6FA192003F0D3FA0020BE
:1023500003F0D0FA212003F0CDFA002003F0CAFAEE
:102360002D2003F0C7FA002003F0C4FA3D2003F04B
:10237000C1FA002003F0BEFA5D2003F0BBFA002092
:1023800003F0B8FA5D2003F0B5FA002003F0B2FACA
:10239000B120ADF8000034613361BDF80000286061
:1023A0003761C6F81090C6F81080802003F0A2FABA
:1023B000002003F09FFA8B2003F09CFA002003F02A
:1023C00099FA962003F096FA002003F093FAB220CF
:1023D000ADF8000034613361BDF80000286037615A
:1023E000C6F81090C6F81080002003F083FA002091
:1023F00003F080FA022003F07DFA002003F07AFA5D
:10240000032003F077FA002003F074FAB320ADF84C
:10241000000034613361BDF8000028603761C6F800
:102420001090C6F81080002003F064FA002003F03A
:1024300061FA002003F05EFA002003F05BFA00204E
:1024400003F058FA002003F055FA002003F052FA86
:10245000002003F04FFA002003F04CFA002003F0B4
:1024600049FA002003F046FA002003F043FA002066
:1024700003F040FA002003F03DFA002003F03AFA9E
:10248000002003F037FA002003F034FA002003F0B4
:1024900031FA002003F02EFA002003F02BFA00207E
:1024A00003F028FA002003F025FA002003F022FAB6
:1024B000002003F01FFAB420ADF80000346133614E
:1024C000BDF8000028603761C6F81090C6F810808B
:1024D0008B2003F00FFA002003F00CFA962003F093
:1024E00009FA002003F006FAA12003F003FA002005
:1024F00003F000FAB520ADF8000034613361BDF897
:10250000000028603761C6F81090C6F810800220DD
:1025100003F0F0F9002003F0EDF9032003F0EAF9ED
:10252000002003F0E7F9042003F0E4F9002003F0B1
:10253000E1F9B620ADF8000034613361BDF8000068
:1025400028603761C6F81090C6F81080002003F0AC
:10255000D1F9002003F0CEF9B720ADF800003461C6
:102560003361BDF8000028603761C6F81090C6F8E6
:102570001080002003F0BEF9002003F0BBF93F20DB
:1025800003F0B8F9002003F0B5F95E2003F0B2F9CA
:10259000002003F0AFF9642003F0ACF9002003F051
:1025A000A9F98C2003F0A6F9002003F0A3F9AC20D0
:1025B00003F0A0F9002003F09DF9DC2003F09AF964
:1025C000002003F097F9702003F094F9002003F045
:1025D00091F9902003F08EF9002003F08BF9EB20A5
:1025E00003F088F9002003F085F9DC2003F082F97C
:1025F000002003F07FF903E0001001400C0C0140C3
:10260000B820ADF8000034613361BDF800002860E7
:102610003761C6F81090C6F81080002003F06AF900
:10262000002003F067F9002003F064F9002003F0B4
:1026300061F9002003F05EF9002003F05BF900204F
:1026400003F058F9002003F055F9BA20ADF8000066
:1026500034613361BDF8000028603761C6F810901E
:10266000C6F81080242003F045F9002003F042F959
:10267000002003F03FF9002003F03CF9C120ADF841
:10268000000034613361BDF8000028603761C6F88E
:102690001090C6F81080202003F02CF9002003F0E1
:1026A00029F9542003F026F9002003F023F9FF2034
:1026B00003F020F9002003F01DF9C220ADF800005E
:1026C00034613361BDF8000028603761C6F81090AE
:1026D000C6F810800A2003F00DF9002003F00AF973
:1026E000042003F007F9002003F004F9C320ADF83B
:1026F000000034613361BDF8000028603761C6F81E
:102700001090C6F810803C2003F0F4F8002003F08D
:10271000F1F83A2003F0EEF8002003F0EBF839204E
:1027200003F0E8F8002003F0E5F8372003F0E2F8C2
:10273000002003F0DFF83C2003F0DCF8002003F079
:10274000D9F8362003F0D6F8002003F0D3F8322071
:1027500003F0D0F8002003F0CDF82F2003F0CAF8E2
:10276000002003F0C7F82C2003F0C4F8002003F089
:10277000C1F8292003F0BEF8002003F0BBF82620A2
:1027800003F0B8F8002003F0B5F8242003F0B2F805
:10279000002003F0AFF8242003F0ACF8002003F091
:1027A000A9F8232003F0A6F8002003F0A3F83C20AA
:1027B00003F0A0F8002003F09DF8362003F09AF80B
:1027C000002003F097F8322003F094F8002003F083
:1027D00091F82F2003F08EF8002003F08BF82C20C6
:1027E00003F088F8002003F085F8292003F082F830
:1027F000002003F07FF8262003F07CF8002003F08F
:1028000079F8242003F076F8002003F073F82420F0
:1028100003F070F8002003F06DF8232003F06AF84D
:10282000002003F067F8ADF800A034613361BDF813
:10283000000028603761C6F81090C6F8108062204A
:1028400003F058F8002003F055F8052003F052F883
:10285000002003F04FF8842003F04CF8002003F030
:1028600049F8F02003F046F8002003F043F8182060
:1028700003F040F8002003F03DF8A42003F03AF8FC
:10288000002003F037F8182003F034F8002003F09C
:1028900031F8502003F02EF8002003F02BF80C2024
:1028A00003F028F8002003F025F8172003F022F8A1
:1028B000002003F01FF8952003F01CF8002003F01F
:1028C00019F8F32003F016F8002003F013F8E620BF
:1028D00003F010F8002003F00DF8C520ADF800005B
:1028E00034613361BDF8000028603761C6F810908C
:1028F000C6F81080322002F0FDFF002002F0FAFF3F
:10290000442002F0F7FF002002F0F4FF652002F0FF
:10291000F1FF002002F0EEFF762002F0EBFF002036
:1029200002F0E8FF882002F0E5FF002002F0E2FF5D
:10293000ADF800B034613361BDF800002860376144
:10294000C6F81090C6F81080202002F0D3FF0020B7
:1029500002F0D0FF172002F0CDFF002002F0CAFFE6
:10296000012002F0C7FF002002F0C4FFC720ADF82D
:10297000000034613361BDF8000028603761C6F89B
:102980001090C6F81080002002F0B4FF002002F082
:10299000B1FF002002F0AEFF002002F0ABFFC82024
:1029A000ADF8000034613361BDF800002860376184
:1029B000C6F81090C6F81080002002F09BFF00209F
:1029C00002F098FF002002F095FF002002F092FF35
:1029D000C920ADF8000034613361BDF80000286003
:1029E0003761C6F81090C6F81080002002F082FF10
:1029F000002002F07FFF002002F07CFF002002F0A8
:102A000079FF002002F076FF002002F073FF002023
:102A100002F070FF002002F06DFF002002F06AFF5C
:102A2000002002F067FF002002F064FF002002F0A7
:102A300061FF002002F05EFF002002F05BFF00203B
:102A400002F058FF002002F055FFE020ADF8000032
:102A500034613361BDF8000028604FF4000AC6F805
:102A600010A0CB46C6F810904746C6F81080162036
:102A700002F040FF002002F03DFF1C2002F03AFF70
:102A8000002002F037FF212002F034FF002002F086
:102A900031FF362002F02EFF002002F02BFF4620EF
:102AA00002F028FF002002F025FF522002F022FF52
:102AB000002002F01FFF642002F01CFF002002F043
:102AC00019FF7A2002F016FF002002F013FF8B207E
:102AD00002F010FF002002F00DFF992002F00AFF23
:102AE000002002F007FFA82002F004FF002002F0FF
:102AF00001FFB92002F0FEFE002002F0FBFEC42020
:102B000002F0F8FE002002F0F5FECA2002F0F2FE0C
:102B1000002002F0EFFED22002F0ECFE002002F0D6
:102B2000E9FED92002F0E6FE002002F0E3FEE020FC
:102B300002F0E0FE002002F0DDFEF32002F0DAFEFB
:102B4000002002F0D7FEE120ADF8000034613361CF
:102B5000BDF800002860C6F810A0C6F810903761D4
:102B6000162002F0C7FE002002F0C4FE1C2002F076
:102B7000C1FE002002F0BEFE222002F0BBFE0020BB
:102B800002F0B8FE362002F0B5FE002002F0B2FEE0
:102B9000452002F0AFFE002002F0ACFE522002F011
:102BA000A9FE002002F0A6FE642002F0A3FE002091
:102BB00002F0A0FE7A2002F09DFE002002F09AFEB4
:102BC0008B2002F097FE002002F094FE992002F084
:102BD00091FE002002F08EFEA82002F08BFE002065
:102BE00002F088FEB92002F085FE002002F082FE8D
:102BF000C42002F07FFE002002F07CFECA2002F01A
:102C000079FE002002F076FED22002F073FE002052
:102C100002F070FED82002F06DFE002002F06AFE85
:102C2000E02002F067FE002002F064FEF32002F0D4
:102C300061FE002002F05EFEE220ADF8000034618B
:102C40003361BDF800002860C6F810A0C6F81090E7
:102C50003761052002F04EFE002002F04BFE0B20F3
:102C600002F048FE002002F045FE1B2002F042FE6A
:102C7000002002F03FFE342002F03CFE002002F073
:102C800039FE442002F036FE002002F033FE4F20D1
:102C900002F030FE002002F02DFE612002F02AFE3C
:102CA000002002F027FE792002F024FE002002F02E
:102CB00021FE882002F01EFE002002F01BFE97205D
:102CC00002F018FE002002F015FEA62002F012FE0F
:102CD000002002F00FFEB72002F00CFE002002F0F0
:102CE00009FEC22002F006FE002002F003FEC7200B
:102CF00002F000FE002002F0FDFDD12002F0FAFDFE
:102D0000002002F0F7FDD62002F0F4FD002002F0D2
:102D1000F1FDDD2002F0EEFD002002F0EBFDF320DE
:102D200002F0E8FD002002F0E5FDE320ADF8000030
:102D300034613361BDF800002860C6F810A0C6F801
:102D400010903761052002F0D5FD002002F0D2FD81
:102D50000A2002F0CFFD002002F0CCFD1C2002F082
:102D6000C9FD002002F0C6FD332002F0C3FD0020A3
:102D700002F0C0FD442002F0BDFD002002F0BAFDCB
:102D8000502002F0B7FD002002F0B4FD622002F0F6
:102D9000B1FD002002F0AEFD782002F0ABFD002076
:102DA00002F0A8FD882002F0A5FD002002F0A2FD9F
:102DB000972002F09FFD002002F09CFDA62002F06B
:102DC00099FD002002F096FDB72002F093FD00204F
:102DD00002F090FDC22002F08DFD002002F08AFD7D
:102DE000C72002F087FD002002F084FDD12002F010
:102DF00081FD002002F07EFDD52002F07BFD002049
:102E000002F078FDDD2002F075FD002002F072FD79
:102E1000F32002F06FFD002002F06CFDE420ADF81D
:102E2000000034613361BDF800002860C6F810A0CE
:102E3000C6F810903761012002F05CFD002002F01E
:102E400059FD012002F056FD002002F053FD022042
:102E500002F050FD002002F04DFD2A2002F04AFD54
:102E6000002002F047FD3C2002F044FD002002F06B
:102E700041FD4B2002F03EFD002002F03BFD5D20B5
:102E800002F038FD002002F035FD742002F032FD22
:102E9000002002F02FFD842002F02CFD002002F023
:102EA00029FD932002F026FD002002F023FDA22040
:102EB00002F020FD002002F01DFDB32002F01AFDFB
:102EC000002002F017FDBE2002F014FD002002F0E9
:102ED00011FDC42002F00EFD002002F00BFDCD20FC
:102EE00002F008FD002002F005FDD32002F002FDF3
:102EF000002002F0FFFCDD2002F0FCFC002002F0CC
:102F0000F9FCF32002F0F6FC002002F0F3FCE520CF
:102F1000ADF8000034613361BDF800002860C6F8E8
:102F200010A0C6F810903761002002F0E3FC0020EA
:102F300002F0E0FC002002F0DDFC002002F0DAFCF0
:102F4000022002F0D7FC002002F0D4FC292002F07D
:102F5000D1FC002002F0CEFC3C2002F0CBFC002093
:102F600002F0C8FC4B2002F0C5FC002002F0C2FCBD
:102F70005D2002F0BFFC002002F0BCFC742002F0D7
:102F8000B9FC002002F0B6FC842002F0B3FC002063
:102F900002F0B0FC932002F0ADFC002002F0AAFC8D
:102FA000A22002F0A7FC002002F0A4FCB32002F053
:102FB000A1FC002002F09EFCBE2002F09BFC002041
:102FC00002F098FCC42002F095FC002002F092FC74
:102FD000CD2002F08FFC002002F08CFCD32002F008
:102FE00089FC002002F086FCDC2002F083FC00203B
:102FF00002F080FCF32002F07DFC002002F07AFC5D
:10300000E620ADF8000034619A463361BDF8001047
:10301000A9462960651035615F46C6F810B0C6F84C
:103020001080112002F066FC002002F063FC3420C6
:1030300002F060FC002002F05DFC562002F05AFC19
:10304000002002F057FC762002F054FC002002F031
:1030500051FC772002F04EFC002002F04BFC662071
:1030600002F048FC002002F045FC882002F042FCFF
:10307000002002F03FFC992002F03CFC002002F00E
:1030800039FCBB2002F036FC002002F033FC992012
:1030900002F030FC002002F02DFC662002F02AFC39
:1030A000002002F027FC552002F024FC002002F052
:1030B00021FC552002F01EFC002002F01BFC4520E4
:1030C00002F018FC002002F015FC432002F012FC74
:1030D000002002F00FFC442002F00CFC002002F063
:1030E00009FCE720ADF800003461C6F810A0BDF877
:1030F0000010C9F8001035613761C6F81080322021
:1031000002F0F8FB002002F0F5FB552002F0F2FB84
:10311000002002F0EFFB762002F0ECFB002002F032
:10312000E9FB662002F0E6FB002002F0E3FB6720EB
:1031300002F0E0FB002002F0DDFB672002F0DAFB8A
:10314000002002F0D7FB872002F0D4FB002002F021
:10315000D1FB992002F0CEFB002002F0CBFBBB207C
:1031600002F0C8FB002002F0C5FB992002F0C2FB70
:10317000002002F0BFFB772002F0BCFB002002F031
:10318000B9FB442002F0B6FB002002F0B3FB56204E
:1031900002F0B0FB002002F0ADFB232002F0AAFBFE
:1031A000002002F0A7FB332002F0A4FB002002F075
:1031B000A1FB452002F09EFB002002F09BFBE820D3
:1031C000ADF800003461C6F810A0BDF80010C9F8D1
:1031D000001035613761C6F81080002002F08AFBCC
:1031E000002002F087FB992002F084FB002002F00F
:1031F00081FB872002F07EFB002002F07BFB882011
:1032000002F078FB002002F075FB772002F072FBE1
:10321000002002F06FFB662002F06CFB002002F041
:1032200069FB882002F066FB002002F063FBAA2005
:1032300002F060FB002002F05DFBBB2002F05AFBB5
:10324000002002F057FB992002F054FB002002F00E
:1032500051FB662002F04EFB002002F04BFB552094
:1032600002F048FB002002F045FB552002F042FB33
:10327000002002F03FFB442002F03CFB002002F063
:1032800039FB442002F036FB002002F033FB5520CE
:1032900002F030FB002002F02DFBE920ADF8000029
:1032A0003461C6F810A0BDF80010C9F800103561EF
:1032B0003761C6F81080AA2002F01CFB002002F043
:1032C00019FB002002F016FB002002F013FB002087
:1032D000ADF800003461C6F810A0BDF80010C9F8C0
:1032E000001035613761C6F81080AA2002F002FB99
:1032F000CF20ADF800003461C6F810A0BDF8001072
:10330000C9F8001035613761C6F81080002002F05E
:10331000F1FA002002F0EEFA002002F0EBFA0020B1
:1033200002F0E8FA002002F0E5FA002002F0E2FAEA
:10333000002002F0DFFA002002F0DCFA002002F0A8
:10334000D9FA002002F0D6FA002002F0D3FA0020C9
:1033500002F0D0FA002002F0CDFA002002F0CAFA02
:10336000002002F0C7FA002002F0C4FA002002F0A8
:10337000C1FAF020ADF800003461C6F810A0BDF825
:103380000010C9F8001035613761C6F810800020C0
:1033900002F0B0FA502002F0ADFA002002F0AAFAD2
:1033A000002002F0A7FA002002F0A4FAF320ADF802
:1033B00000003461C6F810A0BDF80010C9F8001074
:1033C00035613761C6F81080002002F093FAF920C9
:1033D000ADF800003461C6F810A0BDF80010C9F8BF
:1033E000001035613761C6F81080062002F082FABD
:1033F000102002F07FFA292002F07CFA002002F06F
:1034000079FA3A20ADF800003461C6F810A0BDF892
:103410000010C9F8001035613761C6F810805520DA
:1034200002F068FA1120ADF800003461C6F810A06F
:10343000BDF80010C9F8001035613761C6F810807A
:103440006420FEF70DF92920ADF800003461C6F8BC
:1034500010A0BDF80010C9F8001035613761C6F83A
:1034600010803520ADF800003461C6F810A0BDF81A
:103470000010C9F8001035613761C6F810800020CF
:1034800002F038FA5120ADF800003461C6F810A0FF
:10349000BDF80010C9F8001035613761C6F810801A
:1034A000FF2002F027FA5320ADF800003461C6F87F
:1034B00010A0BDF80010C9F8001035613761C6F8DA
:1034C00010802C2002F016FA5520ADF8000034616F
:1034D000C6F810A0BDF80010C9F8001035613761BA
:1034E000C6F81080822002F005FA2C20ADF800000A
:1034F0003461C6F810A0BDF80010C9F8001035619D
:103500003761C6F81080BDE8F88F00002DE9F84F4C
:103510004FF470445521204602F000FA651CAA21A0
:10352000284602F0FBF9A61C5221304602F0F6F9BB
:10353000E71C0821384602F0F1F94FF20408012196
:10354000404602F0EBF90D214FF4304002F0E6F96D
:103550000D214BF2010002F0E1F90D214BF20200C6
:1035600002F0DCF94FF436493421484602F0D6F92E
:1035700034214BF2016002F0D1F934214BF20260A8
:1035800002F0CCF94FF4314A0D21504602F0C6F951
:103590004BF2011B0D21584602F0C0F90D214BF2F0
:1035A000021002F0BBF934214FF4374002F0B6F9B3
:1035B00034214BF2017002F0B1F934214BF2027068
:1035C00002F0ACF900214FF4324002F0A7F90021DB
:1035D0004BF2012002F0A2F900214BF2022002F08E
:1035E0009DF924214FF4384002F098F924214BF63C
:1035F000010002F093F924214BF6020002F08EF94B
:1036000001214FF43F4002F089F90F214FF433407C
:1036100002F084F90F214BF2013002F07FF90F2103
:103620004BF2023002F07AF934214FF4394002F0C3
:1036300075F934214BF6011002F070F934214BF684
:10364000021002F06BF908214FF4354002F066F9E0
:1036500008214BF2015002F061F908214BF20250AF
:1036600002F05CF903214FF4424002F057F92421A3
:103670004FF43A4002F052F924214BF6012002F0B7
:103680004DF924214BF6022002F048F900214FF4B5
:103690003C4002F043F978214BF6014002F03EF93C
:1036A00000214BF6024002F039F900214FF43D4071
:1036B00002F034F978214BF6015002F02FF9002185
:1036C0004BF6025002F02AF900214FF43E4002F07E
:1036D00025F964214BF6016002F020F900214FF436
:1036E000514002F01BF933214DF2011002F016F99E
:1036F00000214DF2021002F011F934214DF20310B5
:1037000002F00CF900214DF2041002F007F93A2101
:103710004DF2051002F002F900214DF2061002F000
:10372000FDF84A214DF2071002F0F8F800214DF2A1
:10373000081002F0F3F85C214DF2091002F0EEF8E7
:1037400000214DF20A1002F0E9F881214DF20B1030
:1037500002F0E4F800214DF20C1002F0DFF8A6218F
:103760004DF20D1002F0DAF800214DF20E1002F0C9
:10377000D5F8E5214DF20F1002F0D0F801214DF2FD
:10378000101002F0CBF813214DF2111002F0C6F820
:1037900001214DF2121002F0C1F854214DF2131024
:1037A00002F0BCF801214DF2141002F0B7F88221AA
:1037B0004DF2151002F0B2F801214DF2161002F090
:1037C000ADF8CA214DF2171002F0A8F802214DF20F
:1037D000181002F0A3F800214DF2191002F09EF823
:1037E00002214DF21A1002F099F801214DF21B103E
:1037F00002F094F802214DF21C1002F08FF83421EF
:103800004DF21D1002F08AF802214DF21E1002F056
:1038100085F867214DF21F1002F080F802214DF269
:10382000201002F07BF884214DF2211002F076F88E
:1038300002214DF2221002F071F8A4214DF2231062
:1038400002F06CF802214DF2241002F067F8B72163
:103850004DF2251002F062F802214DF2261002F01E
:103860005DF8CF214DF2271002F058F802214DF2F9
:10387000281002F053F8DE214DF2291002F04EF824
:1038800002214DF22A1002F049F8F2214DF22B10DC
:1038900002F044F802214DF22C1002F03FF8FE2114
:1038A0004DF22D1002F03AF803214DF22E1002F0E5
:1038B00035F810214DF22F1002F030F803214DF2AF
:1038C000301002F02BF833214DF2311002F026F8BF
:1038D00003214DF2321002F021F86D214DF2331028
:1038E00002F01CF800214FF4524002F017F8332187
:1038F0004DF2012002F012F800214DF2022002F0F8
:103900000DF834214DF2032002F008F800214DF2A9
:10391000042002F003F83A214DF2052001F0FEFFE9
:1039200000214DF2062001F0F9FF4A214DF2072057
:1039300001F0F4FF00214DF2082001F0EFFF5C21BF
:103940004DF2092001F0EAFF00214DF20A2001F0BA
:10395000E5FF81214DF20B2001F0E0FF00214DF247
:103960000C2001F0DBFFA6214DF20D2001F0D6FF67
:1039700000214DF20E2001F0D1FFE5214DF20F2084
:1039800001F0CCFF01214DF2102001F0C7FF1321FF
:103990004DF2112001F0C2FF01214DF2122001F081
:1039A000BDFF54214DF2132001F0B8FF01214DF26B
:1039B000142001F0B3FF82214DF2152001F0AEFF7B
:1039C00001214DF2162001F0A9FFCA214DF2172066
:1039D00001F0A4FF02214DF2182001F09FFF002109
:1039E0004DF2192001F09AFF02214DF21A2001F048
:1039F00095FF01214DF21B2001F090FF02214DF2B5
:103A00001C2001F08BFF34214DF21D2001F086FFB8
:103A100002214DF21E2001F081FF67214DF21F208F
:103A200001F07CFF02214DF2202001F077FF84217C
:103A30004DF2212001F072FF02214DF2222001F00F
:103A40006DFFA4214DF2232001F068FF02214DF209
:103A5000242001F063FFB7214DF2252001F05EFF25
:103A600002214DF2262001F059FFCF214DF22720EF
:103A700001F054FF02214DF2282001F04FFFDE211A
:103A80004DF2292001F04AFF02214DF22A2001F0D7
:103A900045FFF2214DF22B2001F040FF02214DF2B3
:103AA0002C2001F03BFFFE214DF22D2001F036FFCE
:103AB00003214DF22E2001F031FF10214DF22F2075
:103AC00001F02CFF03214DF2302001F027FF3321BC
:103AD0004DF2312001F022FF03214DF2322001F09E
:103AE0001DFF6D214DF2332001F018FF00214FF42E
:103AF000534001F013FF33214DF2013001F00EFF6E
:103B000000214DF2023001F009FF34214DF2033063
:103B100001F004FF00214DF2043001F0FFFE3A21D4
:103B20004DF2053001F0FAFE00214DF2063001F0B1
:103B3000F5FE4A214DF2073001F0F0FE00214DF272
:103B4000083001F0EBFE5C214DF2093001F0E6FE99
:103B500000214DF20A3001F0E1FE81214DF20B30DF
:103B600001F0DCFE00214DF20C3001F0D7FEA62161
:103B70004DF20D3001F0D2FE00214DF20E3001F079
:103B8000CDFEE5214DF20F3001F0C8FE01214DF2CE
:103B9000103001F0C3FE13214DF2113001F0BEFED2
:103BA00001214DF2123001F0B9FE54214DF21330D3
:103BB00001F0B4FE01214DF2143001F0AFFE82217C
:103BC0004DF2153001F0AAFE01214DF2163001F040
:103BD000A5FECA214DF2173001F0A0FE02214DF2E0
:103BE000183001F09BFE00214DF2193001F096FED5
:103BF00002214DF21A3001F091FE01214DF21B30ED
:103C000001F08CFE02214DF21C3001F087FE3421C0
:103C10004DF21D3001F082FE02214DF21E3001F006
:103C20007DFE67214DF21F3001F078FE02214DF23A
:103C3000203001F073FE84214DF2213001F06EFE40
:103C400002214DF2223001F069FEA4214DF2233011
:103C500001F064FE02214DF2243001F05FFEB72135
:103C60004DF2253001F05AFE02214DF2263001F0CE
:103C700055FECF214DF2273001F050FE02214DF2CA
:103C8000283001F04BFEDE214DF2293001F046FED6
:103C900002214DF22A3001F041FEF2214DF22B308B
:103CA00001F03CFE02214DF22C3001F037FEFE21E6
:103CB0004DF22D3001F032FE03214DF22E3001F095
:103CC0002DFE10214DF22F3001F028FE03214DF280
:103CD000303001F023FE33214DF2313001F01EFE71
:103CE00003214DF2323001F019FE6D214DF23330D7
:103CF00001F014FE00214FF4544001F00FFE332177
:103D00004DF2014001F00AFE00214DF2024001F0A7
:103D100005FE34214DF2034001F000FE00214DF27A
:103D2000044001F0FBFD3A214DF2054001F0F6FDA3
:103D300000214DF2064001F0F1FD4A214DF207400D
:103D400001F0ECFD00214DF2084001F0E7FD5C219F
:103D50004DF2094001F0E2FD00214DF20A4001F070
:103D6000DDFD81214DF20B4001F0D8FD00214DF227
:103D70000C4001F0D3FDA6214DF20D4001F0CEFD27
:103D800000214DF20E4001F0C9FDE5214DF20F403A
:103D900001F0C4FD01214DF2104001F0BFFD1321DF
:103DA0004DF2114001F0BAFD01214DF2124001F037
:103DB000B5FD54214DF2134001F0B0FD01214DF24B
:103DC000144001F0ABFD82214DF2154001F0A6FD3B
:103DD00001214DF2164001F0A1FDCA214DF217401C
:103DE00001F09CFD02214DF2184001F097FD0021E9
:103DF0004DF2194001F092FD02214DF21A4001F0FE
:103E00008DFD01214DF21B4001F088FD02214DF294
:103E10001C4001F083FD34214DF21D4001F07EFD78
:103E200002214DF21E4001F079FD67214DF21F4045
:103E300001F074FD02214DF2204001F06FFD84215C
:103E40004DF2214001F06AFD02214DF2224001F0C5
:103E500065FDA4214DF2234001F060FD02214DF2E9
:103E6000244001F05BFDB7214DF2254001F056FDE5
:103E700002214DF2264001F051FDCF214DF22740A5
:103E800001F04CFD02214DF2284001F047FDDE21FA
:103E90004DF2294001F042FD02214DF22A4001F08D
:103EA0003DFDF2214DF22B4001F038FD02214DF293
:103EB0002C4001F033FDFE214DF22D4001F02EFD8E
:103EC00003214DF22E4001F029FD10214DF22F402B
:103ED00001F024FD03214DF2304001F01FFD33219C
:103EE0004DF2314001F01AFD03214DF2324001F054
:103EF00015FD6D214DF2334001F010FD00214FF40E
:103F0000554001F00BFD33214DF2015001F006FD4B
:103F100000214DF2025001F001FD34214DF2035019
:103F200001F0FCFC00214DF2045001F0F7FC3A21B5
:103F30004DF2055001F0F2FC00214DF2065001F067
:103F4000EDFC4A214DF2075001F0E8FC00214DF252
:103F5000085001F0E3FC5C214DF2095001F0DEFC59
:103F600000214DF20A5001F0D9FC81214DF20B5095
:103F700001F0D4FC00214DF20C5001F0CFFCA62141
:103F80004DF20D5001F0CAFC00214DF20E5001F02F
:103F9000C5FCE5214DF20F5001F0C0FC01214DF2AE
:103FA000105001F0BBFC13214DF2115001F0B6FC92
:103FB00001214DF2125001F0B1FC54214DF2135089
:103FC00001F0ACFC01214DF2145001F0A7FC82215C
:103FD0004DF2155001F0A2FC01214DF2165001F0F6
:103FE0009DFCCA214DF2175001F098FC02214DF2C0
:103FF000185001F093FC00214DF2195001F08EFC95
:1040000002214DF21A5001F089FC01214DF21B50A2
:1040100001F084FC02214DF21C5001F07FFC3421A0
:104020004DF21D5001F07AFC02214DF21E5001F0BC
:1040300075FC67214DF21F5001F070FC02214DF21A
:10404000205001F06BFC84214DF2215001F066FC00
:1040500002214DF2225001F061FCA4214DF22350C7
:1040600001F05CFC02214DF2245001F057FCB72115
:104070004DF2255001F052FC02214DF2265001F084
:104080004DFCCF214DF2275001F048FC02214DF2AA
:10409000285001F043FCDE214DF2295001F03EFC96
:1040A00002214DF22A5001F039FCF2214DF22B5041
:1040B00001F034FC02214DF22C5001F02FFCFE21C6
:1040C0004DF22D5001F02AFC03214DF22E5001F04B
:1040D00025FC10214DF22F5001F020FC03214DF260
:1040E000305001F01BFC33214DF2315001F016FC31
:1040F00003214DF2325001F011FC6D214DF233508D
:1041000001F00CFC00214FF4564001F007FC332174
:104110004DF2016001F002FC00214DF2026001F05D
:10412000FDFB34214DF2036001F0F8FB00214DF25C
:10413000046001F0F3FB3A214DF2056001F0EEFB63
:1041400000214DF2066001F0E9FB4A214DF20760C3
:1041500001F0E4FB00214DF2086001F0DFFB5C217F
:104160004DF2096001F0DAFB00214DF20A6001F026
:10417000D5FB81214DF20B6001F0D0FB00214DF207
:104180000C6001F0CBFBA6214DF20D6001F0C6FBE7
:1041900000214DF20E6001F0C1FBE5214DF20F60F0
:1041A00001F0BCFB01214DF2106001F0B7FB1321BF
:1041B0004DF2116001F0B2FB01214DF2126001F0ED
:1041C000ADFB54214DF2136001F0A8FB01214DF22B
:1041D000146001F0A3FB82214DF2156001F09EFBFB
:1041E00001214DF2166001F099FBCA214DF21760D2
:1041F00001F094FB02214DF2186001F08FFB0021C9
:104200004DF2196001F08AFB02214DF21A6001F0B3
:1042100085FB01214DF21B6001F080FB02214DF274
:104220001C6001F07BFB34214DF21D6001F076FB38
:1042300002214DF21E6001F071FB67214DF21F60FB
:1042400001F06CFB02214DF2206001F067FB84213C
:104250004DF2216001F062FB02214DF2226001F07B
:104260005DFBA4214DF2236001F058FB02214DF2C9
:10427000246001F053FBB7214DF2256001F04EFBA5
:1042800002214DF2266001F049FBCF214DF227605B
:1042900001F044FB02214DF2286001F03FFBDE21DA
:1042A0004DF2296001F03AFB02214DF22A6001F043
:1042B00035FBF2214DF22B6001F030FB02214DF273
:1042C0002C6001F02BFBFE214DF22D6001F026FB4E
:1042D00003214DF22E6001F021FB10214DF22F60E1
:1042E00001F01CFB03214DF2306001F017FB33217C
:1042F0004DF2316001F012FB03214DF2326001F00A
:104300000DFB6D214DF2336001F008FB5521204675
:1043100001F004FBAA21284601F000FB522130469F
:1043200001F0FCFA0821384601F0F8FA0021404675
:1043300001F0F4FACC21504601F0F0FA0021584681
:1043400001F0ECFA0521484601F0E8FA70214FF43B
:10435000374001F0E3FA70214BF2017001F0DEFA10
:1043600001214FF4384001F0D9FA03214BF6010046
:1043700001F0D4FA03214BF6020001F0CFFA032139
:104380004BF6030001F0CAFA02214FF43C4001F061
:10439000C5FA00214BF6014001F0C0FA00214BF6AE
:1043A000024001F0BBFAD0214FF4494001F0B6FAC7
:1043B00002214CF6011001F0B1FA50214CF6021026
:1043C00001F0ACFA50214CF6031001F0A7FA50218D
:1043D0004CF6041001F0A2FA00214FF4545001F001
:1043E0009DFA55214FF4685001F098FA4FF4885027
:1043F000ADF80000144C2D0625616E002661BDF855
:104400000000124F38604FF40008C4F810804FF0DD
:104410008009C4F810904FF4007AC4F810A001206D
:10442000FDF71EF94FF42450ADF800002561266118
:10443000BDF800003860C4F81080C4F81090C4F8CB
:1044400010A0BDE8F88F0000001001400C0C0140E6
:104450002DE9F84FE220ADF80000AC4C4FF080752C
:1044600025616E002661BDF80010DFF8A482C8F84F
:1044700000106F1027614FF08009C4F810904FF4BE
:10448000007AC4F810A01D2001F034FA022001F0D7
:1044900031FA042001F02EFA0120FDF7E1F84FF087
:1044A000E00BADF800B025612661BDF80010C8F83A
:1044B00000102761C4F81090C4F810A0012001F08A
:1044C00019FA0A20FDF7CCF8ADF800B02561266195
:1044D000BDF80010C8F800102761C4F81090C4F8A7
:1044E00010A0032001F006FA0C20FDF7B9F8012016
:1044F000ADF8000025612661BDF80010C8F8001075
:104500002761C4F81090C4F810A00A20FDF7A8F89D
:10451000E620ADF8000025612661BDF80010C8F85E
:1045200000102761C4F81090C4F810A02F2001F0EB
:10453000E1F9FF2001F0DEF9FF2001F0DBF9B02006
:10454000ADF8000025612661BDF80010C8F8001024
:104550002761C4F81090C4F810A0202001F0CAF917
:10456000002001F0C7F9032001F0C4F940F21F3028
:1045700001F0C0F9012001F0BDF940F2DF1001F0B7
:10458000B9F9002001F0B6F9B420ADF800002561BA
:104590002661BDF80010C8F800102761C4F810901B
:1045A000C4F810A0042001F0A5F940F21F4001F06A
:1045B000A1F9002001F09EF92E2001F09BF90020C6
:1045C00001F098F9002001F095F9002001F092F92E
:1045D000002001F08FF9B620ADF8000025612661BA
:1045E000BDF80010C8F800102761C4F81090C4F896
:1045F00010A0022001F07EF94FF4037001F07AF967
:10460000002001F077F9172001F074F9152001F06E
:1046100071F9002001F06EF9002001F06BF9F02033
:10462000ADF8000025612661BDF80010C8F8001043
:104630002761C4F81090C4F810A0032001F05AF9C3
:104640002920ADF8000025612661BDF80010C8F8EA
:1046500000102761C4F81090C4F810A0D020ADF865
:10466000000025612661BDF80010C8F80010276120
:10467000C4F81090C4F810A0002001F03BF9BE204F
:10468000ADF8000025612661BDF80010C8F80010E3
:104690002761C4F81090C4F810A0052001F02AF991
:1046A000FE2001F027F9012001F024F9002001F09B
:1046B00021F9002001F01EF9002001F01BF9B820BB
:1046C000ADF8000025612661BDF80010C8F80010A3
:1046D0002761C4F81090C4F810A0032001F00AF973
:1046E000012001F007F9BA20ADF80000256126612C
:1046F000BDF80010C8F800102761C4F81090C4F885
:1047000010A0BDE8F84F012001F0F4B800100140FE
:104710000C0C01402DE9F84F1120ADF80000CB4CF6
:104720004FF0807525616E002661BDF80010DFF83E
:1047300020A3CAF800106F1027614FF08008C4F85A
:1047400010804FF40079C4F810907820FCF788FFAF
:104750003620ADF8000025612661BDF80010CAF8CA
:1047600000102761C4F81080C4F81090002001F0F8
:10477000C1F83A20ADF8000025612661BDF80010AF
:10478000CAF800102761C4F81080C4F81090052002
:1047900001F0B0F8B220ADF8000025612661BDF847
:1047A0000010CAF800102761C4F81080C4F81090F7
:1047B0000C2001F09FF80C2001F09CF8002001F083
:1047C00099F8332001F096F8332001F093F8B720E0
:1047D000ADF8000025612661BDF80010CAF8001090
:1047E0002761C4F81080C4F81090352001F082F8D9
:1047F000BB20ADF8000025612661BDF80010CAF8A5
:1048000000102761C4F81080C4F81090322001F025
:1048100071F8C020ADF8000025612661BDF80010D8
:10482000CAF800102761C4F81080C4F810900C205A
:1048300001F060F8C220ADF8000025612661BDF8E6
:104840000010CAF800102761C4F81080C4F8109056
:10485000012001F04FF8C320ADF80000256126616A
:10486000BDF80010CAF800102761C4F81080C4F821
:104870001090102001F03EF8C420ADF80000256132
:104880002661BDF80010CAF800102761C4F8108036
:10489000C4F81090202001F02DF8C620ADF80000DB
:1048A00025612661BDF80010CAF800102761C4F820
:1048B0001080C4F810900F2001F01CF8D020ADF843
:1048C000000025612661BDF80010CAF800102761BC
:1048D000C4F81080C4F81090A42001F00BF8A120B7
:1048E00001F008F8E020ADF8000025612661BDF870
:1048F0000010CAF800102761C4F81080C4F81090A6
:10490000D02000F0F7FF002000F0F4FF022000F0BC
:10491000F1FF072000F0EEFF0A2000F0EBFF282057
:1049200000F0E8FF322000F0E5FF442000F0E2FF55
:10493000422000F0DFFF062000F0DCFF0E2000F038
:10494000D9FF122000F0D6FF142000F0D3FF17206B
:1049500000F0D0FFE120ADF8000025612661BDF830
:104960000010CAF800102761C4F81080C4F8109035
:10497000D02000F0BFFF002000F0BCFF022000F0BC
:10498000B9FF072000F0B6FF0A2000F0B3FF28208F
:1049900000F0B0FF312000F0ADFF542000F0AAFF7E
:1049A000472000F0A7FF0E2000F0A4FF1C2000F01D
:1049B000A1FF172000F09EFF1B2000F09BFF1E2090
:1049C00000F098FF2A20ADF8000025612661BDF8AF
:1049D0000010CAF800102761C4F81080C4F81090C5
:1049E000002000F087FF002000F084FF002000F08E
:1049F00081FFEF2000F07EFF2B20ADF80000256145
:104A00002661BDF80010CAF800102761C4F81080B4
:104A1000C4F81090002000F06DFF002000F06AFF45
:104A2000012000F067FF3F2000F064FF2920ADF86F
:104A3000000025612661BDF80010CAF8001027614A
:104A4000C4F81080C4F81090BDE8F88F0010014041
:104A50000C0C01402DE9F84F1120ADF80000E24C9C
:104A60004FF0807525616E002661BDF80010DFF8FB
:104A70007C83C8F800106F1027614FF08009C4F8DC
:104A800010904FF4007AC4F810A07820FCF7E8FDED
:104A90003620ADF8000025612661BDF80010C8F889
:104AA00000102761C4F81090C4F810A0482000F04E
:104AB00021FF3A20ADF8000025612661BDF8001005
:104AC000C8F800102761C4F81090C4F810A0552051
:104AD00000F010FFF023ADF8003025612661BDF82D
:104AE0000010C8F800102761C4F81090C4F810A096
:104AF000C32000F0FFFEADF8003025612661BDF84F
:104B00000010C8F800102761C4F81090C4F810A075
:104B1000962000F0EFFEB420ADF80000256126617C
:104B2000BDF80010C8F800102761C4F81090C4F850
:104B300010A0012000F0DEFEB620ADF800002561D7
:104B40002661BDF80010C8F800102761C4F8109065
:104B5000C4F810A00A2000F0CDFEA22000F0CAFE8A
:104B6000B720ADF8000025612661BDF80010C8F837
:104B700000102761C4F81090C4F810A0C62000F0FF
:104B8000B9FEB920ADF8000025612661BDF800101E
:104B9000C8F800102761C4F81090C4F810A00220D3
:104BA00000F0A8FEE02000F0A5FEC020ADF8000057
:104BB00025612661BDF80010C8F800102761C4F80F
:104BC0001090C4F810A0802000F094FE162000F091
:104BD00091FEC120ADF8000025612661BDF80010EE
:104BE000C8F800102761C4F81090C4F810A019206C
:104BF00000F080FEC220ADF8000025612661BDF8FE
:104C00000010C8F800102761C4F81090C4F810A074
:104C1000A72000F06FFEC520ADF8000025612661D9
:104C2000BDF80010C8F800102761C4F81090C4F84F
:104C300010A0162000F05EFEE820ADF8000025610F
:104C40002661BDF80010C8F800102761C4F8109064
:104C5000C4F810A0402000F04DFE8A2000F04AFE6B
:104C6000002000F047FE002000F044FE292000F064
:104C700041FE192000F03EFEA52000F03BFE33204F
:104C800000F038FEE020ADF8000025612661BDF897
:104C90000010C8F800102761C4F81090C4F810A0E4
:104CA000F02000F027FE072000F024FE0D2000F089
:104CB00021FE042000F01EFE052000F01BFE142043
:104CC00000F018FE362000F015FE542000F012FE11
:104CD0004C2000F00FFE382000F00CFE132000F0F6
:104CE00009FE142000F006FE2E2000F003FE342002
:104CF00000F000FEE120ADF8000025612661BDF85E
:104D00000010C8F800102761C4F81090C4F810A073
:104D1000F02000F0EFFD102000F0ECFD142000F07A
:104D2000E9FD0E2000F0E6FD0C2000F0E3FD082078
:104D300000F0E0FD352000F0DDFD442000F0DAFD5C
:104D40004C2000F0D7FD262000F0D4FD102000F00C
:104D5000D1FD122000F0CEFD2C2000F0CBFD322042
:104D600000F0C8FDADF8003025612661BDF80010E7
:104D7000C8F800102761C4F81090C4F810A03C20B7
:104D800000F0B8FDADF8003025612661BDF80010D7
:104D9000C8F800102761C4F81090C4F810A069206A
:104DA00000F0A8FD7820FCF75BFC2120ADF80000A6
:104DB00025612661BDF80010C8F800102761C4F80D
:104DC0001090C4F810A02920ADF8000025612661DC
:104DD000BDF80010C8F800102761C4F81090C4F89E
:104DE00010A0BDE8F88F0000001001400C0C01403D
:104DF0002DE9F04FFC4885B0816941F010018161D7
:104E0000816901F010010491816941F01001816113
:104E1000816901F010010491816941F01001816103
:104E2000816901F010010491816941F010018161F3
:104E3000816901F010010491816941F010018161E3
:104E4000816901F010010491816941F008018161DB
:104E5000816901F008010491816941F001018161DA
:104E6000806900F001000490E048416821F0E061B1
:104E700041F00071416001250015CDE900050327CF
:104E8000DB4CCDE9025769462046FBF773FB4FF434
:104E9000007BCDE900B5CDE902575E466946204664
:104EA000FBF768FB8027694620460097FBF762FB0B
:104EB0004FF0400969462046CDF80090FBF75AFBB9
:104EC0004FF4807A69462046CDF800A0FBF752FBEC
:104ED0004FF6FF78CDE900856946C648FBF74AFBE7
:104EE0002761C4F810902661C4F810A0C14D0C359C
:104EF000C5F80080C048401EFDD2D320ADF8100098
:104F00004FF0807020614FF00079C4F81090BDF828
:104F1000100028604FF4000020612761C4F810B031
:104F200000F07EF9B54FB88000F07AF9B88000F053
:104F300077F94FF6FF7A0AEA0020B88000F070F99E
:104F4000B9880843A0F51341B88041397DD00420C9
:104F5000ADF8100080052061C4F81090BDF8100075
:104F600028604FF40008C4F81080802020615F465C
:104F7000C4F810B000F054F9A04EB08000F050F921
:104F8000B08000F04DF90AEA0020B08000F048F946
:104F9000B1880843A0F50541B08052397ED0A0F514
:104FA000EE418939D2D0D420ADF810004FF0807096
:104FB000206140002061BDF81010A9462960C4F8A6
:104FC000108080252561276100F02AF9B08000F06B
:104FD00027F9B08000F024F90AEA0020B08000F040
:104FE0001FF9B1880843A0F5A641B0801039ADD0B3
:104FF000D320ADF810006F042761AE042661BDF820
:105000001010C9F800102804206180202061800061
:10501000206100F005F9794DA88000F001F9A88021
:1050200000F0FEF80AEA0020A88000F0F9F8A9884C
:105030000843A0F5EE41A880963906D055214FF4DB
:10504000704000F06BFCAA2100E093E04FF20100F9
:1050500000F064FC52214FF2020000F05FFC0821D6
:105060004FF2030000F05AFC01214FF2040000F05F
:1050700055FC4FF44540ADF81000B8462761B346E3
:105080002661BDF81010C9F80010B61026618027FF
:105090002761B513256100F0C3F800E089E05749A6
:1050A0000AEA002088804CF20150ADF81000C4F8E4
:1050B0001080C4F810B0BDF81010C9F800102661B7
:1050C0002761256100F0ACF84C49898808434B49B9
:1050D00088800520FCF7C4FA48488188A1F5AA40D9
:1050E000103847D0D320ADF81000E8032061D8462F
:1050F000C4F810B0BDF81010C9F8001040102061BD
:10510000BB462761256100F08BF83C4EB08000F073
:1051100087F8B08000F084F80AEA00205746B08093
:1051200000F07EF8B1880843A0F51841B080063938
:1051300020D0A120ADF81000E8032061C4F8108051
:10514000BDF81010C9F8001040102061C4F810B06C
:10515000256100F065F8B08000F062F807EA0020F1
:10516000B08000F05DF8B1880843A0F5AE41B08092
:10517000613924D021488088A0F5EE4189391BD0BF
:10518000A0F5134141393BD0A0F5A64110393AD0E2
:10519000A0F5EE41963939D0A0F5AA41103938D0A2
:1051A000A0F51841063937D0A0F5C851633909D0A8
:1051B0000DE047F28970B080FFF7ACFA07E041F6E6
:1051C0006310B080FFF744F9642000F02DFB00204D
:1051D000FCF7C4FA4FF4806020615046FCF788FA6F
:1051E00005B0BDE8F08F0000001002400000014053
:1051F00000100140000C0140FFFF01005C01002095
:10520000FCF722FBE3E7FCF7F3FFE0E7FFF722FC04
:10521000DDE7FEF77BF9DAE7FCF730FDD7E70000C2
:10522000F0B585B04FF6FF7501AA002001240326D2
:10523000009582E85100124F69463846FBF79AF90B
:1052400010482102016149040161C9100161022174
:10525000491EFDD20A4908310968ADF810104021F5
:105260000161C9000161CDE90054CDE902466946FA
:105270003846FBF77FF9BDF8100005B0F0BD00001F
:10528000000C0140001001402DE9F84FBB4C0025F7
:105290002146A279898841F66316012A01D01AB104
:1052A0000CE0B14202D109E0B14207D1082805D291
:1052B000DFE800F0161812140C19100E082812D28C
:1052C000DFE800F0110406080A0C0E1080250AE041
:1052D000402508E0C02506E0202504E0602502E026
:1052E000A02500E0E025362045F21058414500D1C8
:1052F0000002A1F51342413A05D0A1F5EE42893AE8
:1053000001D00D3A01D145F00805294600F006FB11
:10531000B4F804C0B4450AD0A8062088618802D534
:10532000884202D303E0884201D921806080802531
:105330009348A9046F04934A8B1046154FF0000E52
:105340004FF4807BC4457DD1A1466489ADF800400F
:1053500007610161BDF800C0C2F800C003610561CA
:105360000661DC46C0F810B00161F246C2F800E008
:1053700003610561066104F10108ADF80080076171
:105380000161BDF80080C2F800800361056106611B
:10539000C0F810C00161C2F800A003610561066198
:1053A00004F10208ADF8008007610161BDF80080DA
:1053B000C2F80080036105610661C0F810C0016198
:1053C000B9F80080A8F1010B4FEA2B28C2F8008041
:1053D000036105610661E41CADF8004007610161ED
:1053E000BDF800401460036105610661C0F810C09B
:1053F00001610BF0FF041460036105610661B9F8F7
:105400000C40ADF8004007610161BDF80080C2F8B2
:105410000080036105610661C0F810C00161C2F837
:1054200000A003610561066104F10108ADF8008088
:1054300007610161BDF80080C2F800800361056169
:10544000066100E033E0C0F810C00161C2F800A0BE
:1054500003610561066104F10208ADF8008007618F
:105460000161BDF80080C2F800800361056106613A
:10547000C0F810C00161B9F80280A8F101094FEA33
:105480002928C2F80080036105610661E41CADF8BB
:10549000004007610161BDF80040146003610561CF
:1054A0000661C0F810C0016109F0FF015FE0B4F8C7
:1054B0000AC0ADF800C0BA4607610161BDF80070CE
:1054C00017600361056106615F46C0F810B00161B5
:1054D000F446C2F800E0036105610661C0F810B04F
:1054E0000161C2F800E0036105610661C0F810B017
:1054F0000161B4F80080A8F101094FEA2928C2F837
:1055000000800361056106610761016109F0FF0820
:10551000C2F80080036105610661B4F80C80ADF843
:105520000080C0F810A00161BDF80080C2F80080C2
:1055300003610561066107610161C2F800C0036192
:105540000561066107610161C2F800C00361056180
:105550000661076101616488641E4FEA242CC2F869
:1055600000C003610561066107610161E1B211607C
:10557000036105610661BDE8F88F00005C01002051
:10558000001001400C0C01402DE9F34F81B0A34BFA
:1055900001981D469A884FEA102C00F0FF0E4FEA42
:1055A000112B01F0FF0A9E48AF896E89A2F5C854FD
:1055B0004FF000714FF080094FF48078633C44D085
:1055C000A2F5AA43103BADF800604FF08072026173
:1055D0000161BDF80030934A13604FF4000303618A
:1055E0004C46C0F810904FF400750561C0F810806B
:1055F0000161C2F800C00361C0F8109005617DD060
:10560000C0F810800161C2F800E003610461056127
:10561000ADF800704E1006610161BDF800601660C3
:10562000036104610561C0F8108001615E46166087
:10563000036104610561C0F810800161C2F800A037
:10564000036104610561BDE8FE8F744A734B927972
:105650001D88002A70D0ADF800604FF080720261A2
:105660000161BDF800306F4A13604FF4000303611D
:10567000C0F8109054150461C0F810800161C2F8A0
:1056800000C00361C0F810900461C0F8108001618F
:10569000C2F800E00361C0F810900461C0F8108007
:1056A00001616D1E2E1216600361C0F81090046136
:1056B000C0F810800161EDB215600361C0F8109070
:1056C0000461564DADF800704FF0807202610161C7
:1056D000BDF80030534A13604FF4000303614C4699
:1056E000C0F8109056150661C0F810800161C2F82C
:1056F00000B00361C0F81090066100E05AE0C0F805
:1057000010800161C2F800A00361C0F8109006612A
:10571000C0F8108001616D886D1E2F121760036143
:1057200004610661C0F810800161E9B21160036193
:105730000461066187E7FFE7019AADF80060AA1AE5
:10574000521E95B24FF0807202610161BDF80030C7
:10575000344A13604FF4000303614C46C0F81090C4
:105760004FF4007CC0F810C0C0F810800161002622
:1057700016600361C0F81090C0F810C0C0F8108027
:10578000016116600361C0F81090C0F810C0C0F845
:10579000108001612E0A166003610461C0F810C018
:1057A000C0F810800161EDB2156003610461C0F8BA
:1057B00010C086E7761CADF800604FF08076066179
:1057C0000161BDF800601660036104610561C0F805
:1057D00010800161C2F800E0036104610561ADF869
:1057E00000704FF0807606610161BDF800601660C0
:1057F000036104610561C0F810800161C2F800B066
:105800000361046105617F1CADF800704FF0807684
:1058100006610161BDF8006009E700005C0100203D
:10582000001001400C0C01402DE9F84FBE21ADF8ED
:1058300000102D4C4FF0807121614D002561BDF8A5
:1058400000102A4E3160AF1027614FF08008C4F875
:1058500010804FF40079C4F810904FF4807AC4F8A7
:1058600010A02561052131602761C4F81080C4F8BB
:105870001090C4F810A02561FAF719FD4FF06632B8
:105880001B4BFAF7A2FCFAF71FFD30602761C4F842
:105890001080C4F81090C4F810A025610120306079
:1058A0002761C4F81080C4F81090C4F810A02561D6
:1058B000FF2030602761C4F81080C4F81090C4F84D
:1058C00010A02561002030602761C4F81080C4F862
:1058D0001090C4F810A0256130602761C4F81080D2
:1058E000C4F81090BDE8F88F001001400C0C014086
:1058F0006666044007494FF480720A6152040A61E7
:10590000054A10604FF400000861802008618000A3
:1059100008617047001001400C0C0140F8B5ADF86B
:1059200000000C484FF08072026152000261BDF825
:105930000040094B1C6094100461802505614615E8
:1059400006618715076102611960046105610661DE
:10595000F8BD0000001001400C0C0140FAF71AFFDE
:10596000FBF7E4FCFBF78AFCFBF7BEFCFFF740FA11
:10597000FBF780FE4FF6FF70FBF7BAFE01220A49E3
:105980000A48FBF7C1FB084C094EA41E4FF4807572
:1059900062783AB1012AFBD1002229463046FAF753
:1059A000E5FEF5E70122F8E70200002014010020DF
:1059B00000080140010202030405060708090A0B5A
:1059C0000C0D0E0F1010000000000000000001027E
:1059D0000304060708090000000001020304000098
:1059E000005A0008000000201400000042160008C1
:1059F000145A0008140000205C050000521600082C
:105A00000000000001000000100000000000000085
:045A10000024F4007A
:0400000508000131BD
:00000001FF
