:020000040800F2
:10000000D80A002045010008EF200008951F0008CD
:10001000ED200008A909000889250008000000005B
:10002000000000000000000000000000F3200008B5
:10003000470A000800000000F120000885210008A0
:100040005F0100085F0100085F0100085F01000810
:100050005F0100085F0100085F0100085F01000800
:100060005F0100085F0100085F0100085F010008F0
:100070005F0100085F0100085F0100085F010008E0
:100080005F0100085F0100085F0100085F010008D0
:100090005F0100085F0100085F0100085F010008C0
:1000A0005F0100085F0100085F0100085F010008B0
:1000B0005F0100085F0100085F0100085F010008A0
:1000C0005F0100085F0100085F0100085F01000890
:1000D0005F0100087D2500085F0100085F0100083E
:1000E0005F0100085F0100085F0100085F01000870
:1000F0005F0100085F0100085F0100085F01000860
:100100005F0100085F0100085F0100085F0100084F
:100110005F0100085F0100085F0100085F0100083F
:100120005F0100085F0100085F010008110A000874
:10013000DFF80CD000F0F6FB00480047BD72000865
:10014000D80A00200648804706480047FEE7FEE739
:10015000FEE7FEE7FEE7FEE7FEE7FEE7FEE7FEE777
:10016000E721000831010008202A04DB203A21FAA7
:1001700002F00021704721FA02F3D040C2F12002C0
:100180009140084319467047D2B201E000F8012BB4
:10019000491EFBD270470022F6E710B513460A4607
:1001A00004461946FFF7F0FF204610BD30B505465E
:1001B0000020034600E05B1C934205D2EC5CC85C67
:1001C000201A01D1002CF6D130BDF0B480EA010232
:1001D000D40F4200B2EB410F02D20246084611464C
:1001E0004A0042D0C30DDDB2C1F3C752AD1A202D73
:1001F00035DAC1F3160141F4000204B15242C5F1EF
:10020000200602FA06F12A411044B3EBD05F23D056
:10021000C4B1012DA0EBC35009DCF0BC4FF000428B
:1002200002EAC352DBB200F5000000F0EFBA400072
:1002300000F1807000EBC350A0F1807040EAD170F3
:10024000490009E0490841EAC071A0EBC35000F53C
:100250000000400800EBC350F0BC00F0CEBA614291
:10026000012202EB4101001BF6E7F0BC704781F070
:100270000041AAE780F00040A7E780EA010210B53C
:1002800002F00043400022D04A001FD0010E01EBD3
:100290001261C0F35600C2F3560240F4000042F46B
:1002A0000002A0FB022000047F39140400D0401C8F
:1002B00050EA124001D44000491EC2B20C0604EBC1
:1002C000D010401C4008802A02D003E0002010BD5E
:1002D00020F00100002900DA0020184310BD30B4DE
:1002E00080EA010202F0004530F0004221F00040B7
:1002F00013D090B1C30DD40DC2F31601C0F3160094
:10030000E41A41F4000140F400027D34914201D32B
:10031000641C00E04900002C02DA30BC0020704769
:100320004FF400000023914201D3891A034340088F
:100330004FEA4101F7D151B1914202D14FF0004152
:1003400005E002D24FF0010101E06FF0010103EB83
:10035000C450284430BC00F050BA2DE9FE4F80460E
:1003600081EA0300C00F0C46009021F0004123F009
:100370000045B8EB0200A94105D24046214690460F
:100380001C460B46024623F00040104347D0270D81
:10039000C7F30A00C3F30A510290401A01904028A3
:1003A0006BDAC3F3130040F4801B0098924620B12F
:1003B0000023D2EB030A63EB0B0B01985946C0F103
:1003C0004002504600F0F8F906460D4650465946A0
:1003D000019A00F000FA10EB08006141002487EA5E
:1003E000115284EAE7731A4340D0009A62B3019A2B
:1003F000012A4FEA075215DC001B61EB02014FF0A6
:10040000004202EA0752CDE90042001C41F580118A
:1004100032462B4600F037FA03B0BDE8F08F404675
:100420002146F9E7001B61EB0201001C41F5801336
:1004300000185B412018A2F5001747EB030140EAC2
:10044000D570B6196D4111E06D084FEA360645EAE0
:10045000C0754FEA0752001B61EB0201001C41F519
:10046000801149084FEA30000019514132462B46AD
:1004700003B0BDE8F04F00F0F7B90098012240004A
:100480000023D0EB020263EBE073009821464FEAB1
:10049000E074B8EB000061EB0401E9E783F000438E
:1004A0005BE781F0004158E72DE9FE4F81EA030444
:1004B00004F0004421F0004100944FF0000B23F0C1
:1004C000004350EA01045ED052EA03045BD0C3F358
:1004D0000A54C1F30A552C44A4F2F3340194A0FB4E
:1004E0000254C1F3130141F48011C3F3130343F425
:1004F000801301FB024400FB034E840A970A44EA7E
:10050000815447EA8357A4FB076802958D0A05FBCF
:1005100007854FEA932C04FB0C542705029D4FEAF4
:10052000065847EA1637B5EB08056EEB070C870E41
:10053000920E47EA811742EA8312A7FB0201B6EB4B
:100540000B0164EB00042B0D43EA0C335E1844EB03
:100550001C50DA465146E7FB0201C5F313044FEA8B
:100560000B3343EA14534FEA0432019C43EA060377
:10057000A4F10C040294009CCDE900B400F083F9CE
:1005800003B0BDE8F08F00200146F9E72DE9F04DFA
:1005900081EA030404F0004B21F0004514464FF0BB
:1005A000000A23F0004150EA050220D054EA01027B
:1005B0001DD0C5F30A570246C5F31303C1F3130058
:1005C000C1F30A5640F4801543F48013A7EB0608E4
:1005D000101BD64608F2FD3873EB050002D308F174
:1005E000010801E092185B41B8F1000F03DA002026
:1005F0000146BDE8F08D00204FF480110646844688
:100600000EE0171B73EB050705D3121B63EB050305
:1006100006434CEA010C49084FEA300092185B414E
:1006200050EA0107EDD152EA030012D082EA040039
:1006300083EA0501084305D0101BAB4106D2012215
:10064000002306E000224FF0004302E06FF00102B9
:1006500053101AEB06004CEB085110EB0A0041EB6B
:100660000B01BDE8F04D00F0FFB870B521F000437C
:1006700003430CD0C1F30A550024D5EB040564EB09
:100680000403D617AD1AB34102DB0020014670BD4A
:10069000201841EB025170BDC10F80EAE0700844A0
:1006A000CA079623002100F0B1B896230022114614
:1006B00000F0ACB80EB540F2334102910021CDE913
:1006C00000110A460B4600F0DEF803B000BD00F052
:1006D000004220F00040C10DC0F3160040F40000BD
:1006E0007F2901DA00207047962903DCC1F19601C9
:1006F000C84001E096398840002AF4D04042704753
:1007000020F00040C10DC0F3160040F400007F2926
:1007100001DA00207047962903DCC1F19601C84038
:100720007047963988407047C1F30A5210B5C1F33B
:10073000130140F2FF3341F480119A4201DA0020A4
:1007400010BD40F233439A42A2F2334203DC5242DC
:10075000FFF70AFD10BD904010BD00F0004230F0E0
:1007600000400AD0C10D01F56071C0F3160042EAE5
:100770000151C208400711437047002001467047ED
:1007800001F0004330B421F0004150EA010206D0EC
:100790000A0DA2F56072C1F31301002A02DC30BC1D
:1007A00000207047440F44EAC104C100E01830BC87
:1007B00000EBC25000F021B8202A04DB203A00FAF6
:1007C00002F1002070479140C2F1200320FA03F3A8
:1007D000194390407047202A06DBCB17203A41FA94
:1007E00002F043EAE07306E041FA02F3D040C2F1BE
:1007F000200291400843194670470029A8BF70475E
:10080000401C490008BF20F00100704710B4B0FA46
:1008100080FC00FA0CF050EA010404BF10BC7047E1
:1008200049B1CCF1200421FA04F411FA0CF118BFFB
:10083000012121430843A3EB0C01CB1D4FEA0061CA
:100840004FEA102042BF002010BC704700EBC3509D
:1008500010440029A4BF10BC7047401C490008BFC9
:1008600020F0010010BC704710B5141E73F1000495
:1008700008DA401C41F1000192185B411A4301D192
:1008800020F0010010BD2DE9F04D92469B4611B1BC
:10089000B1FA81F202E0B0FA80F220329046FFF71E
:1008A0008BFF04460F4640EA0A0041EA0B0153461B
:1008B0005A46084313D0114653EA010019D0C8F133
:1008C00040025046FFF750FC05460E46504659463A
:1008D0004246FFF771FF084305D0012004E020469F
:1008E0003946BDE8F08D0020054346EAE0762C430A
:1008F00037430A986305E40AA0EB08000022FD0ACA
:1009000044EA47540A3002D500200146E9E70105D0
:1009100010196941DDE9084500196941BDE8F04D4C
:10092000A2E70000064C074D06E0E06840F0010336
:1009300094E8070098471034AC42F6D3FFF7FCFB6D
:1009400068B0000888B000080EB5C10F80EAE070FA
:100950000844CA07002140F233438DE80E000A46DE
:100960000B46FFF790FF03B000BD70B5C1F30A520C
:1009700001F000450024C1F3130140F2FF3341F4BC
:1009800080119A4201DA002070BD40F233439A424E
:10099000A2F2334203DC5242FFF7E6FB00E0904054
:1009A0002C43F1D0404270BDFEE710B5446A2046AA
:1009B00000F076F80120207110BD10B5446A204681
:1009C00000F044F80120207110BD10B5446A206980
:1009D00040F004002061204600F064F801202071FE
:1009E00010BD10B5446A206940F004002061204623
:1009F00000F02EF80120207110BD10B5406A00F003
:100A000050F810BD10B5406A00F021F810BD00008C
:100A1000014800F0E5B90000F405002030B590F879
:100A200040500124AC40C56B6C600468636043684F
:100A3000102B036803D099600068C26030BD9A60D3
:100A40000068C16030BD704772B6FEE770477047FE
:100A5000704770B500B3F9B14379012B1ED0012660
:100A600046710223037105682C6802F0100340F6FA
:100A7000FE729A409443D1E900210A439A402243EE
:100A80002A6001680A68C0249C40A2430A6006717B
:100A900000214171084670BD012070BD022070BD6B
:100AA00070477047704770B5040003D02079002567
:100AB00010B105E0012070BD6571204600F008F816
:100AC00002202071256101202071002070BD0000EE
:100AD000F0B585B00026054600960196029603966D
:100AE00000681A4988422ED11949C86940F000505F
:100AF000C861C86900F000500490886940F00400A3
:100B000088618869202700F0040004900320CDE963
:100B1000007069460F4800F0FDFA104C0E48206046
:100B20001020C4E901068020E060400020618000C0
:100B3000E661C4E90507204600F076FA08B1FFF740
:100B400083FFEC60656205B0F0BD000000740040FA
:100B5000001002400008014044040240F405002057
:100B60002DE9F0410400069817460D461BD0617927
:100B700001291BD00126667102212171C5B1E268ED
:100B800024499162E2682449D162E26823491163F1
:100B900021680A6842F080520A6018B3226804286B
:100BA00023D01C3222E00120BDE8F0810220FBE7C7
:100BB000A2681B499162A2681A49D162A2681A49C7
:100BC000116321680A6842F480520A6020B12268E9
:100BD000042804D0103203E02268083200E00C320E
:100BE000A06804E02268143200E01832E068394658
:100BF00000F058FA0021617120B1216941F004012F
:100C00002161D1E721680A6805F010039E40324354
:100C10000A60C9E7BB090008050A0008E3090008E3
:100C2000AB090008FB090008CB09000870B50400F7
:100C300017D02068036801F010024FF480559540EA
:100C4000AB43036020680368012505FA02F2934371
:100C5000036041B1D4F80C0000F007F825710020C2
:100C600070BD012070BDA068F6E710B590F82110A6
:100C70000022022905D00421816380F82020012070
:100C800010BD01680B6823F00E030B6001680B6850
:100C900023F001030B6090F84030C46B012101FA8E
:100CA00003F3636080F8211080F82020104610BD07
:100CB0002DE9F05F90F821100024022903D00421CF
:100CC0008163012485E001680A6822F00E020A604F
:100CD00001680A6822F001020A603F4E3E4FB215D9
:100CE000DFF8F4C0DFF8F090DFF8ECA0DFF8E8B050
:100CF000DFF8E4E00168783F13011502ACF1640C01
:100D0000A9F15009AAF13C0AABF1280BAEF1140E7F
:100D10004FF48018B14227D9B9420ED0614512D0A4
:100D200049451DD0514518D0594518D0714501D1BC
:100D3000424615E0294EB14201D1012210E0274E72
:100D40001436B14201D110220AE0244E2836B142B5
:100D500006D0224A3C32914201D11A4600E02A468E
:100D60001E49091F0A602BE0B94213D0614517D014
:100D7000494522D051451DD059451DD0714501D15D
:100D800042461AE0B14202D14FF0807215E0134E94
:100D9000B14201D1012210E0104E1436B14201D10E
:100DA00010220AE00D4E2836B14206D00B4A3C32E2
:100DB000914201D11A4600E02A46074980394A602B
:100DC000012180F82110002180F82010416B01B131
:100DD00088472046BDE8F09F80000240080402409A
:100DE0002DE9F05FC16B0A6801680B68046C4FF075
:100DF000040808FA04F8844D844E854FDFF814C2C5
:100E0000DFF81492DFF814A2DFF814B2DFF814E26E
:100E100018EA020F65D05FEA437862D50A68920645
:100E200003D40A6822F004020A60DFF8F0814FF46C
:100E30008062016808F1140813011402414524D9A5
:100E4000A9420DD0B1420FD0B9421AD0614515D098
:100E5000494515D0514501D1120312E0594501D140
:100E600004220EE0714501D140220AE06D4D143597
:100E7000A94206D06B4A2832914201D11A4600E0BD
:100E800022466749091F0A6029E0A94213D0B142EE
:100E900015D0B94220D061451BD049451BD05145E2
:100EA00002D14FF4800217E0414502D14FF0806239
:100EB00012E0594501D104220EE0714501D14022D2
:100EC0000AE0584D1435A94206D0564A28329142BC
:100ED00001D11A4600E022464B4908394A60C16AEE
:100EE00071E04FF0020808FA04F818EA020F70D017
:100EF0005FEA83786DD50A68920606D40A6822F004
:100F00000A020A60012180F82110DFF810814FF4F5
:100F10000072016808F1140813011402414524D934
:100F2000A9420DD0B1420FD0B9421AD0614515D0B7
:100F3000494515D0514501D1120312E0594501D15F
:100F400002220EE0714501D120220AE0354D143510
:100F5000A94206D0334A2832914201D11A4600E014
:100F600022462F49091F0A6029E0A94213D0B14245
:100F700015D0B94220D061451BD049451BD0514501
:100F800002D14FF4001217E0414502D14FF0007238
:100F900012E0594501D102220EE0714501D1202213
:100FA0000AE0204D1435A94206D01E4A283291424B
:100FB00001D11A4600E02246134908394A6000214F
:100FC00080F82010816A00291CD0BDE8F05F084736
:100FD000FFE70825A540154214D01A0712D50A6864
:100FE00022F00E020A6090F84020C36B012101FA42
:100FF00002F25A60816380F82110002180F82010ED
:10100000016BE0E7BDE8F09F080002401C000240D1
:101010003000024044000240580002406C00024090
:10102000080402401C04024030B560B11A4B02684B
:1010300014219A4209D2194B1344B3FBF1F18900F0
:10104000016417490AE0012030BD134B5B42134491
:10105000B3FBF1F1890001640F490839C163022132
:1010600080F82110136843F6F0718B43F0E9011406
:101070002143D0E902452C432143046921434469BB
:1010800021438469214319431160002141630122F6
:1010900042770177084630BD08040240F8FFFDBFE3
:1010A0000000024070B5044690F820000025012899
:1010B0000CD0012084F8200094F821600020012E3B
:1010C00006D084F820000225284670BD022070BD9D
:1010D000022684F82160A0632068066826F00106D5
:1010E00006602046FFF79AFCE06A00282068016845
:1010F00002D041F00E0106E021F0040101602068F9
:10110000016841F00A0101602068016841F00101B5
:101110000160D9E72DE9F84FDFF8C8910024A9F163
:10112000040B23460F2709F1040AABF1040ED1E0AA
:101130000125A54006EA0502AA4276D1DFF8A8C13A
:101140004E68A6EB0C0866452BD00DDC032E34D080
:1011500005DC36B3012E19D0022E2FD11BE0112E43
:1011600016D0122E2AD119E0B8F5881F19D006DC46
:10117000B8F5803F15D0B8F5801F1FD111E0B8F544
:10118000001F0ED0B8F5041F18D10AE0CB6815E097
:10119000CB681B1D12E0CB6808330FE0CB680C3323
:1011A0000CE08B682BB1012B4FF0080303D0456195
:1011B00004E0042302E0056100E00023FF2A01D8D7
:1011C000064601E000F104064FEA840501D9A5F1C5
:1011D0002005D6F8008007FA05FC28EA0C0803FA77
:1011E00005F548EA0508C6F800804D68ED0070D5A1
:1011F0003E4DAE6946F00106AE61AD6924F00306CE
:1012000005F0010500953A4D06EB050CDCF8085099
:10121000A607360F07FA06F825EA0805DFF8D48096
:10122000404503D14FF0000825E052E0DFF8C880C8
:10123000404502D14FF001081DE0DFF8C080404575
:1012400002D14FF0020816E0DFF8B480404502D129
:101250004FF003080FE0DFF8AC80404502D14FF0BB
:10126000040808E0DFF8A080404502D14FF00508EF
:1012700001E04FF0060808FA06F848EA0508CCF83D
:1012800008804D68D9F80060ED024D4601D516433F
:1012900000E096432E604D68DAF80060AD025546D6
:1012A00001D5164300E096432E604D68DBF80060E0
:1012B000AD035D4601D5164300E096432E604D68B0
:1012C000DEF80060ED03754601D5164300E0964355
:1012D0002E60641C0A681646E2407FF429AFBDE820
:1012E000F88F0000080401400000111000100240B7
:1012F0000000014000080140000C014000100140C6
:101300000014014000180140001C014080680840A2
:1013100000D0012070470AB1016170470904FBE762
:10132000014880687047000014000020024881686E
:10133000027811448160704714000020074810B5FE
:10134000016841F010010160032000F075F80F20E2
:1013500000F006F800F024F8002010BD0020024044
:1013600070B50D4D04464FF47A712878B1FBF0F05A
:101370000A490968B1FBF0F000F0DCFA48B9102C1A
:1013800007D200222146501E00F036F800206C6083
:1013900070BD012070BD000014000020200000205E
:1013A0000C4808B5816941F001018161816901F052
:1013B00001010091C16941F08051C161C06900F033
:1013C000805000900448416821F0E06141F00071D4
:1013D000416008BD0010024000000140002809DB08
:1013E00000F01F02012191404009800000F1E0203F
:1013F000C0F8001170470000F0B40E4B1B680C469B
:10140000C3F30223C3F10705042D00D90425191DD8
:10141000072901D2002300E0DB1E012606FA05F1B0
:10142000491E214099409E40761E16403143F0BC33
:1014300001F0BFB80CED00E0064900F007020868B3
:101440004FF6FF03184040EA0220034A10430860A9
:10145000704700000CED00E00000FA052DE9F047B0
:101460000F46050061D0434E306800F00700B842D7
:1014700009D2306820F0070038433060306800F04F
:101480000700B84251D128683B4C810712D540076C
:1014900003D5606840F4E06060602878000703D5F9
:1014A000606840F4605060606068A96820F0F000F7
:1014B000084360602878C00728D06868012810D0E9
:1014C0002168022810D0890700292EDA616821F0EE
:1014D000030101436160FFF723FF804641F2883931
:1014E0000DE021688903EFE78901EDE7FFF718FFB9
:1014F000A0EB0801494502D90320BDE8F0876068E8
:10150000696800F00C00B0EB810FEFD1306800F09B
:101510000700B8420BD9306820F00700384330602C
:10152000306800F00700B84201D00120E5E72878D4
:10153000400705D56068E96820F4E0600843606012
:101540002878000706D56068296920F4605040EAD1
:10155000C100606000F038F86168084AC1F3031107
:10156000515CC8400649086006480068FFF7F8FE6D
:101570000020C2E700200240001002401A77000855
:101580002000002018000020044805490068496830
:10159000044AC1F30221515CC8407047200000207A
:1015A000001002402A77000804480549006849688D
:1015B000044AC1F3C221515CC8407047200000209A
:1015C000001002402A7700080E4A51680E4801F0C8
:1015D0000C03042B11D0082B0FD10C48C1F383430B
:1015E000C903C05C0AD55168084AC1F34041921E44
:1015F000515C054A5043B0FBF1F070470449484341
:10160000704700000010024000127A000A770008BC
:1016100000093D002DE9F84F040070D02078C04D3E
:10162000C00749D06868C0F38100012807D0686806
:10163000C0F38100022809D16868C00306D5286874
:10164000800339D560680028E7D035E06068B0F5E0
:10165000803F0BD010B1B0F5A02F11D0286820F436
:1016600080302860286820F4802002E0286840F458
:1016700080302860606890B1FFF752FE06460AE0AD
:10168000286840F480202860F0E700BFFFF748FE9C
:10169000801B642873D828688003F7D50CE0FFF717
:1016A0003FFE064605E000BFFFF73AFE801B6428B8
:1016B000F0D828688003F7D420789A4E80074FF03E
:1016C00001094FF0000839D5686810F00C0F07D0F9
:1016D0006868C0F38100022809D16868C00306D495
:1016E0002868800714D52069012808D110E02069F6
:1016F000B0B1C6F80090FFF713FE074605E00AE117
:10170000FFF70EFEC01B0228C4D828688007F7D553
:101710002868616920F0F80040EAC10028600DE007
:10172000C6F80080FFF7FCFD074604E0FFF7F8FD70
:10173000C01B022823D828688007F7D42078000728
:101740002CD57948A169D9B1C0F80090FFF7E8FD20
:10175000074604E0FFF7E4FDC01B02280FD8686AC3
:101760008007F7D571484FF4FA510068B0FBF1F0EB
:10177000009000BF0098411E0091FAD20EE080E078
:10178000C0F80080FFF7CCFD074604E0FFF7C8FD76
:10179000C01B022875D8686A8007F7D420784007F4
:1017A00060D5E8690027C00008D4E86940F080509F
:1017B000E861E869012700F0805000905C4801680A
:1017C000C90513D40168834641F480710160FFF7B5
:1017D000A7FD824606E000BFFFF7A2FDA0EB0A00CE
:1017E00064284ED8DBF80000C005F5D5E068012874
:1017F0000AD008B1052813D0286A20F00100286219
:10180000286A20F0040002E0286A40F00100286203
:10181000E06841F2883B98B1FFF782FD82460BE019
:10182000286A40F004002862EEE700BFFFF778FD69
:10183000A0EB0A0159455AD8286A8007F6D50CE072
:10184000FFF76EFD824605E0FFF76AFDA0EB0A0197
:1018500059454CD8286A8007F6D41FB1E86920F0B2
:101860008050E861E06988B36968C1F381010229A9
:1018700044D00228C6F8608004D0FFF751FD04462A
:1018800038E034E0FFF74CFD074604E0FFF748FD81
:10189000C01B02282BD828688001F7D4206AB0F535
:1018A000803F05D16868A16820F400300843686073
:1018B000D4E908010843696821F474110843686099
:1018C000C6F86090FFF72CFD044606E025E000BF57
:1018D000FFF726FD001B022809D828688001F7D5EC
:1018E0001BE000BFFFF71CFD001B022802D90320EC
:1018F000BDE8F88F28688001F4D40EE00128F7D005
:101900006868226A00F48031914204D1616A00F46F
:101910007010884201D00120EAE70020E8E70000CB
:101920000010024000004242800442422000002099
:101930000070004010B5401EB0F1807F01D301203F
:1019400010BD4FF0E02460610F21601700F031FE00
:101950000020A06107202061002010BD70B590F824
:101960003C20012A2CD0012480F83C40022280F83F
:101970003D2003685A689D6822F070060A68324369
:101980005A60104B02689A420ED00F4B9A420BD00D
:10199000B2F1804F08D00D4B9A4205D00C4B9A42C1
:1019A00002D00C4B9A4204D1496825F080031943B8
:1019B000916080F83D40002180F83C10084670BDE1
:1019C000022070BD002C01400034014000040040A2
:1019D00000080040000C004010B5040003D094F84B
:1019E0003D0010B107E0012010BD002084F83C004C
:1019F000204600F01FF8022084F83D00211D2068D9
:101A000000F0F2FB012084F8460084F83E0084F8E0
:101A10003F0084F8400084F8410084F8420084F8D4
:101A2000430084F8440084F8450084F83D00002019
:101A300010BD000008B500680649884208D1064874
:101A4000C16941F01001C161C06900F0100000904F
:101A500008BD0000001000400010024090F83D104A
:101A6000012901D001207047022180F83D10006853
:101A70000E4988420ED00E4988420BD0B0F1804FFB
:101A800008D00C49884205D00B49884202D00B4946
:101A9000884204D1816801F00701062903D001685A
:101AA00041F001010160002070470000002C01405E
:101AB000003401400004004000080040000C0040D9
:101AC00070477047F8B5016804460868CA684B69F2
:101AD00010F00F0F4FF000055AD003F0010602F48A
:101AE0009077374365D0C10705D0D10503D5616C28
:101AF00041F001016164410705D5D90703D0616C4C
:101B000041F002016164810705D5D90703D0616CFA
:101B100041F004016164010707D502F0200131435F
:101B200003D0616C41F008016164616C00293BD015
:101B3000800604D5900602D5204600F00AFC2068F5
:101B40004069616CC0F3801001F008010143204638
:101B50002BD000F0D7FB20684069400621D52068D3
:101B6000143050E8001F21F0400140E80012002A24
:101B7000F5D1E06BA8B16D494163E06BFFF798F8D0
:101B8000002811D0E06B416B01B0BDE8F040084780
:101B900083060ED593060CD52046BDE8F84000F02C
:101BA000D8BB2046FFF78DFFF8BDFFF78AFF6564BD
:101BB000F8BD266B2023012E7CD1C6067AD5D60629
:101BC00078D508684868009048694FF002064006DA
:101BD00040D5E16B086840680004000CE8D0A28D95
:101BE0008242E5D9E085886920282DD020680C3014
:101BF00050E8001F21F4807140E80012002AF5D15E
:101C00002168143151E8000F20F0010041E8000282
:101C1000002AF5D12068143050E8001F21F040015F
:101C200040E80012002AF5D184F84230256320688C
:101C30000C3050E8001F21F0100140E80012002A8B
:101C4000F5D1E06BFFF711F86663A08DE18D401AC6
:101C500081B22AE0A08DE18D401A81B2E08D00288A
:101C6000A6D00029A4D022680C3252E8000F20F43C
:101C7000907042E80007002FF5D12068143050E83A
:101C8000002F22F0010240E80027002FF5D184F850
:101C90004230256320680C3050E8002F22F01002FB
:101CA00040E80023002BF5D166632046FFF708FFCC
:101CB000F8BDFFE705062BD5150629D594F8410098
:101CC0002128F5D1A068B0F5805F01D12069B0B1BD
:101CD000206A411C2162216800784860E08C401E27
:101CE0000004000CE084E3D12068C16821F0800189
:101CF000C1602068C16841F04001C160D8E7206A36
:101D00000088C0F308004860206A801C2062E5E774
:101D10004006CDD55006CBD5CA68204622F04002F9
:101D2000CA6084F8413000F034F9C1E7F5220008B8
:101D300070B5040004D094F84100002510B106E00D
:101D4000012070BD84F84050204600F023F8242084
:101D500084F841002068C16821F40051C160204628
:101D600000F058FB2068016921F49041016120686E
:101D7000416921F02A0141612068C16841F40051A4
:101D8000C1606564202084F8410084F842006563E6
:101D9000002070BD30B585B00024009401940294F9
:101DA00003940068184988422CD11848816941F48D
:101DB00080418161816901F480410491816941F030
:101DC000040181618069124D00F0040004904FF419
:101DD000007000900220019003200390694628467D
:101DE000FFF798F92815CDE90004694628460294C2
:101DF000FFF790F9002211462520FFF7FDFA252074
:101E0000FFF7ECFA05B030BD003801400010024089
:101E10000008014090F84230202B01D0022070478A
:101E200021B11AB10023036300F050BB01207047B9
:101E30002DE9F04100682749884242D1264C00260E
:101E40008F1520784FF6FF75FF280BD32670394683
:101E50002248FEF7A0F92B460A2221A1234800F0D0
:101E60004BF82EE01D49E2780A54401CC2B2881893
:101E7000227010F8011C0A2923D110F8020C0D2839
:101E80001FD12B461549194800F036F8012218A138
:101E90001248FEF78BF920B901206070284600F047
:101EA000D5FF012213A10D48FEF780F920B90220C9
:101EB0006070284600F0CAFF267039460748FEF7D2
:101EC0006AF9BDE8F04104490122C91C0748FFF73F
:101ED000A1BF00000038014000000020E004002005
:101EE000CAFDBEDDD2E7B3F6000000008006002088
:101EF0005A000000530000002DE9F843044690F812
:101F000041001F4616460D46202802D00220BDE89B
:101F1000F8837DB176B100206064212084F841000F
:101F2000FFF7FEF9A6848046E684A068B0F5805FDE
:101F300002D003E00120EAE7206910B12E46002517
:101F40000EE000260CE08021204600F0DAFAA0B96D
:101F5000AEB116F8010B21684860E08C401EE084A9
:101F6000E08C43464FF0000200970028EBD14FF081
:101F70004001204600F0C5FA30B10320C7E735F82C
:101F8000020BC0F30800E6E7202084F8410000209F
:101F9000BDE77047FEE700001CB500200D4900902A
:101FA00001900B4808600846FEF77DFD08B1FEF77A
:101FB0004BFD042000900220019010226946054844
:101FC000FEF747FD002801D0FEF73EFD1CBD0000D6
:101FD00000740040E0050020094808B5416941F05F
:101FE000020141614069002200F0020000901146A8
:101FF0003B20FFF701FABDE808403B20FFF7EEB9B0
:102000000010024030B585B00024174800940194B8
:1020100002940394816941F020018161816901F09A
:1020200020010491816941F00401816180690F4DB3
:1020300000F004000490002280212846FFF76BF98D
:10204000012211022846FFF766F94FF4C070009094
:102050000120CDE901040220039069462846FFF7DC
:1020600059F805B030BD00000010024000080140E2
:102070001CB500240E4800940C490194C0E90014DA
:10208000EF21C0E902418461FFF7A6FC08B1FEF729
:10209000DBFC2020CDE9000469460548FFF75EFC23
:1020A000002801D0FEF7D0FC1CBD0000001000404D
:1020B000380600200C4810B50A4901604FF4E131A0
:1020C0004160002181600C22C160C0E9041281617D
:1020D000C161FFF72DFE002803D0BDE81040FEF7D8
:1020E000B3BC10BD0038014080060020FEE7FEE7CB
:1020F000704770472DE9F74F002683463446354632
:10210000FEF7D8FA02460B461A481B49FEF73EFA7C
:10211000804689462AE02046294605F0A5FA002295
:10212000164BFEF71AF907468A460198FEF715FB8B
:102130004FF0FF32FEF799FA3A465346FEF7B4F9EC
:102140000C22FEF792FA4FF066320D4BFEF71EFAA4
:10215000FEF7EAFA029942464B4621F8160020465D
:102160002946FEF7FAF804460D46761C5E45D2D3A2
:10217000BDE8FE8F4AD8124DFB2119400000F03F08
:1021800066660A40FFF7D2B830B58FB0282168469E
:10219000FEF701F814210AA8FDF7FDFF012108044C
:1021A000CDE900100024029402250491CDE90750E6
:1021B0004FF4E01009906846FFF72CFA08B172B6A8
:1021C000FEE70F20CDE90A054FF48060CDE90C4011
:1021D00002210AA80E94FFF741F9002801D072B637
:1021E000FEE70FB030BD7047F0B502681C4B1D4DC7
:1021F0001D4E1E4F1E4C4FF0804C984209D0A042FD
:1022000007D0604505D0A84203D0B04201D0B84203
:1022100004D122F0700E4A6842EA0E02984209D0B8
:10222000A04207D0604505D0A84203D0B04201D0FB
:10223000B84203D122F44075CA682A434D6922F09E
:1022400080022A4302608A68C2620A6882629842F7
:1022500001D0A04201D10969016301214161F0BDB2
:10226000002C01400004004000080040000C004029
:10227000003401402DE9F047002417468946064600
:10228000450830E0AC420EDA2046FEF705FA8046FB
:102290002846FEF701FA01464846FEF720F8414677
:1022A000FDF7EBFF10E0601BFEF7F6F980462846CD
:1022B000FEF7F2F901464846FEF711F84146FDF7F0
:1022C000DCFF4946FDF7D6FFFEF747FA0C22FEF782
:1022D000CCF94FF06632064BFEF758F9FEF724FAB8
:1022E00027F81400641CB442CCD3BDE8F08700008A
:1022F00066660A4010B5406A0021C185C184FFF7B7
:10230000E0FB10BD01680C3151E8002F22F49072FF
:1023100041E80023002BF5D10168143151E8002F6A
:1023200022F0010241E80023002BF5D1016B0129C5
:1023300009D101680C3151E8002F22F0100241E868
:102340000023002BF5D1202180F8421000210163E9
:10235000704708B590F84210222901D0022008BD2C
:1023600082684FF480539A4201D1016921B1816A98
:102370009A421BD04AB10AE00268816A5268C2F3ED
:1023800008020A80816A891C08E0026972B1026849
:10239000526802F07F020A70816A491C8162C18D15
:1023A000491E0904090CC18503D01BE0026852686C
:1023B000F1E70168CA6822F02002CA600168CA68B1
:1023C00022F48072CA6001684A6922F001024A61FF
:1023D000202180F8421000214163026B012A03D0C2
:1023E000FFF726FD002008BD016301680C3151E8AC
:1023F000002F22F0100241E80023002BF5D10168E4
:102400000A68D20602D50A6849680091818DFFF7F3
:1024100057FBE7E770B5044600680169E26821F4FC
:102420004051114301612169A06808436169084373
:102430002168CA6841F20C639A430243CA6020686B
:102440004169A26921F44071114341611E4920682C
:10245000884202D1FFF7A8F801E0FFF795F800EBFA
:10246000C00101EB0012606864218000B2FBF0F350
:10247000B3FBF1F36FF018067343B2FBF0F5B2FB58
:10248000F0F605EB8305322303EB0515B5FBF1F5FB
:10249000B6FBF1F605F0F00505EB0615B2FBF0F61C
:1024A000B2FBF0F0B0FBF1F06FF01802504306EB16
:1024B000800003EB0010B0FBF1F0216800F00F008A
:1024C0002844886070BD0000003801408162828528
:1024D000C28500214164222180F84210016921B1A6
:1024E0000168CA6842F48072CA6001684A6942F0B1
:1024F00001024A610068C16841F02001C16000200A
:1025000070472DE9F041984617460E460446069D51
:1025100027E0681C25D02DB1FEF702FFA0EB0800D4
:10252000A8421ED920680C3050E8001F21F4D07159
:1025300040E80012002AF5D12068143050E8001F4E
:1025400021F0010140E80012002AF5D1202084F892
:10255000410084F84200002084F840000320BDE8D8
:10256000F0812068006836EA000004D00020B842FC
:10257000CFD00020F3E70120F9E700000148FFF782
:10258000A1BA000080060020FEE7490050EAC12001
:1025900018BF04204A0D18BF40F0010040F2FF723E
:1025A000B2EB515F08BF40F00200012808BF0520D0
:1025B00070470907090E002804DB00F1E02080F8CD
:1025C0000014704700F00F0000F1E02080F8141DA7
:1025D000704700002DE9F74F144694B00021C4E97C
:1025E00002111599079121F00045C9498D4206DC79
:1025F0001599C4E9000117B00020BDE8F08FC54966
:10260000DFF814A3A9423CDD0799C44E0029C44F4A
:10261000C44A1599534619DDFDF740FF554506D0CC
:10262000C14AC24BFDF73AFFC4E900010AE04FF08E
:10263000D352BE4BFDF732FF32463B46FDF72EFF2D
:10264000C4E9000117B00120BDE8F08FFDF785FE59
:10265000554506D0B44AB54BFDF77FFEC4E90001ED
:102660000AE04FF0D352B14BFDF777FE32463B46BE
:10267000FDF773FEC4E9000117B04FF0FF30BDE86D
:10268000F08FAB49A942159978DB21F000418346D0
:102690008846A84AA84BFDF707FF0022A74BFDF785
:1026A0005CFEFEF762F90990FEF74EF906460F460A
:1026B0009C4A5346FDF7F8FE43465A46FDF7F1FEA5
:1026C00080468A46984A994B30463946FDF7ECFEDB
:1026D0002A0D01250B9242465346FDF7E2FE032DDB
:1026E000C4E9000139D00B98C1F30A51401A05EB37
:1026F00045111139814230DA9148C346784400EBE4
:102700000510CDF80CA00C90D0E9002330463946D6
:10271000FDF7CAFE02460B460491069058460399FF
:10272000FDF7BCFE80468A4602460B465846039992
:10273000FDF7B4FE049B069AFDF7B0FE83460C98A5
:1027400003913946D0E902233046FDF7ADFE5A46E3
:10275000039BFDF7A3FE6D1CBDE707980028A2BFF1
:10276000099817B0BDE8F08F616881F000416160A1
:10277000099817B04042BDE8F08FFFE784461598EE
:10278000C1F31301C0F30A50A0F2F5304FEA60180C
:1027900000F01F06C6F1200013900020069007905D
:1027A00041F4801E05206D4676B1664A08EB0001B3
:1027B0007A4452F8213002EB8101B3404A68139900
:1027C00022FA01F1194305E05F4908EB0002794460
:1027D00051F82210A1FB0E27A1FB0C131A449A42B8
:1027E00034BF0123002303EB070A05EB8003D3E981
:1027F00001B70F448F4234BF0121002193448B4421
:1028000011B1934502D903E0934501D2012100E0C3
:102810000021C3E901B7514445F82010011EA0F181
:102820000100C1DC0298059F00F10050800F12905A
:102830000298DDE903568000FEF786F883462846B5
:102840000D91FDF737FF6FF01D02FDF70EFFCDE98B
:102850000E013046FDF72EFF6FF03D02FDF705FF3C
:1028600080468A463846FDF725FF6FF05D02FDF78A
:10287000FCFE0746424653461191FDF76EFDDDE929
:102880000E23FDF76AFD5A460D9BFDF766FD0025F8
:102890000E465A4628460D9BFDF700FEDDE90E2345
:1028A000FDF7FCFD42465346FDF7F8FD3A46119B05
:1028B000FDF7F7FDDFF898A0244A5346FDF7F4FD35
:1028C00007468846234A244B31462846FDF7ECFD4F
:1028D0003A464346FDF741FD074688464FF0A84279
:1028E000534631462846FDF7DFFD3A464346FDF79D
:1028F00034FD159A12F0004F04D0129A81F0004175
:1029000052421292C4E90001129817B0BDE8F08F4C
:10291000FB21E93F7CD90240FB21F93F7370032E74
:102920008A19A33B000040543163621A61B4D03D60
:10293000FB21394183C8C96D305FE43F0000E03FAF
:1029400078880000F4870000D6870000182D4454D2
:10295000FB21F93D3326A611460B113C2DE9FF4D15
:1029600021F0004807460C46B8F1795F08DAFDF718
:10297000FCFF002801BF0020324904B0BDE8F08D03
:102980003A46234610461946FDF78EFD0546024697
:102990002D480E460B460621784400F05DF82A4685
:1029A0003346FDF781FDDDE9022382468B4638463A
:1029B0002146FDF779FD04460F4652465B46284600
:1029C0003146FDF771FD22463B46FDF767FD0746A0
:1029D0008A464FF0FF3228463146FDF746FE1B4A35
:1029E00090450ADA3A465346FDF758FD04B00022F6
:1029F000BDE8F04D134BFDF754BD154A4245A8BF45
:102A0000A8F500154FF00004B8BF124D22462B4622
:102A1000FDF744FD0646884622462B46002009491C
:102A2000FDF73CFD04460D463A46534630464146C6
:102A3000FDF734FD04B022462B46BDE8F04DFDF70E
:102A400030BD00000000F03FAC8500003333D33FC1
:102A50000000E93F0000D23F2DE9F0414F1E00EB9E
:102A6000C7010446D1E9000115461E4637F00602AB
:102A70000DD02A463346FDF717FD7F1E04EBC70332
:102A8000D3E90023FDF769FC37F00602F1D1022FEC
:102A900025D0042F13D0062F18BFBDE8F0812A4699
:102AA0003346FDF701FDD4E90A23FDF756FC2A461B
:102AB0003346FDF7F9FCD4E90823FDF74EFC2A461E
:102AC0003346FDF7F1FCD4E90623FDF746FC2A4620
:102AD0003346FDF7E9FCD4E90423FDF73EFC2A4622
:102AE0003346FDF7E1FCD4E90223FDF736FC2A4624
:102AF0003346FDF7D9FCD4E90023BDE8F041FDF7EA
:102B00002CBC00002DE9FF4D054621F0004084B0AB
:102B10000C46B0F1795F0BDA2846FFF736FD042842
:102B200008BF00F06FF8284608B02146BDE8F08DD8
:102B30002A460B461046FDF7B7FC06460F462A46C6
:102B40002346FDF7B1FC804626488A4632463B467E
:102B500005217844FFF780FF83461098029160B307
:102B6000214A224B40465146FDF79EFCCDE900012B
:102B70005A4640465146029BFDF796FC82468846DF
:102B8000DDE906014FF0FF32FDF76FFD5246434687
:102B9000FDF784FC32463B46FDF786FCDDE9062363
:102BA000FDF77CFCDDE90023FDF778FC08B02A4640
:102BB0002346BDE8F04DFDF774BC0B465A4630463F
:102BC0003946FDF771FC084A084BFDF7C6FB424643
:102BD0005346FDF769FC08B02A462346BDE8F04D90
:102BE000FDF7BBBBEA840000495555555555C5BF97
:102BF0000122FDF73ABD0022134610461146FDF7AB
:102C0000C5BC0000024A00201107FDF72EBD0000E0
:102C100001FDFFFF02E008C8121F08C1002AFAD117
:102C200070477047002001E001C1121F002AFBD14C
:102C30007047000001490860704700002C00002028
:102C4000034A11681368CB1A8342FBD37047000014
:102C50001C0000202DE9F04178273E460024164D47
:102C600025E000BFC4EB04110901B1FBF0F002B292
:102C70004FF49670B4FBF0F100FB11400F4931F8AE
:102C800010007843C11700EB115016EB203001D52E
:102C9000002004E0B0F5A07F01DB40F23F1081B2DC
:102CA00090B24FF4784200F07DF9641CA4B2A88879
:102CB0008442D7D3BDE8F08100000020300000201E
:102CC0002DE9F04178273E460024154D22E000BF53
:102CD00004EB84018901B1FBF0F002B24FF496706D
:102CE000B4FBF0F100FB11400E4931F810007843BD
:102CF000C11700EB115016EB203000D50022F02850
:102D000000DBEF2081B290B24FF4784200F04AF934
:102D1000641CA4B2A8888442DAD3BDE8F081000024
:102D20000000002088020020F0B51B4885B08169B2
:102D300041F010018161816901F010010491816904
:102D400041F004018161816901F00401049181690C
:102D500041F0040181618069002400F004000490C6
:102D60002020012503268DE8710069460B48FEF7F7
:102D7000D1F9E8038DE87100094F69463846FEF73E
:102D8000C9F9022003960095CDE90140694638460D
:102D9000FEF7C0F905B0F0BD001002400010014080
:102DA000000801402DE9F0470024254DDFF894800C
:102DB000254E01274FF4004908B12F7001E0287813
:102DC00078B120214046FEF7A1FA88B14946304645
:102DD000FEF79CFA60B101213046FEF797FA012810
:102DE00006D020214046FEF791FA012819D024E0B0
:102DF0000A20FFF725FF0020287020214046FEF71B
:102E000085FA00B9012449463046FEF77FFA00B939
:102E1000022401213046FEF779FA01280DD103245E
:102E20000BE049463046FEF771FA012805D1012131
:102E30003046FEF76BFA00B92F702046BDE8F087E8
:102E4000280000200010014000080140F8B5174F8D
:102E50000646002438887D8821464543204603F0F5
:102E60006FFF3889ADF8000011494FF0807008619C
:102E700047000F61BDF800200E480260BA100A61D9
:102E800080230B614FF4007CC1F810C04FF4807EAA
:102E9000C1F810E00F6103E006600A610B61641C79
:102EA000AC42F9D3C1F810C0F8BD0000C80600203C
:102EB000001001400C0C01402DE9F04F38492C2640
:102EC0000A46887192884FF4305A4FF4285B41F6D5
:102ED000631E2B274FF02A0C4FF0F00845F21059D3
:102EE0004FF448754FF4A0744FF4F07358B10C8050
:102EF000A1F802804A4530D1A1F808A0A1F80AB093
:102F00003802888141E0A1F800804C804A4507D111
:102F1000A1F808A0A1F80AB04FF42C50888105E070
:102F200072450E8105D14F81A1F80CC00B804D80F8
:102F300002E0A1F80AC08F81A2F5A640103803D0A4
:102F4000A2F5EE40963801D10C804B80A2F51840D6
:102F500006381FD10B804D801CE0724511D0A2F5C0
:102F6000184006380DD00E81A1F80AC0A1F80C70E7
:102F7000A2F5A64010380BD0A2F5EE40963807D047
:102F800008E00E81A1F80AC08F810D804B80EFE729
:102F90000B804C80BDE8F04F002003F051BD0000D5
:102FA000C8060020F8B5144603F0CAFE0D48008993
:102FB000ADF800000C484FF08071016149000161DB
:102FC000BDF80030094A13608B100361802505614C
:102FD000461506618715076101611460036105618B
:102FE0000661F8BDC8060020001001400C0C01402D
:102FF0002DE9F84FCF20ADF80000FF4C4FF0807561
:1030000025616E002661BDF80010DFF8F0A3CAF854
:1030100000106F1027614FF08008C4F810804FF443
:103020000079C4F81090002004F014F9C12004F0D5
:1030300011F9302004F00EF9ED20ADF80000256103
:103040002661BDF80010CAF800102761C4F810808E
:10305000C4F81090642004F0FDF8032004F0FAF89E
:10306000122004F0F7F8812004F0F4F8E820ADF81D
:10307000000025612661BDF80010CAF80010276124
:10308000C4F81080C4F81090852004F0E3F81020F4
:1030900004F0E0F87A2004F0DDF8CB20ADF8000071
:1030A00025612661BDF80010CAF800102761C4F838
:1030B0001080C4F81090392004F0CCF82C2004F0D3
:1030C000C9F8002004F0C6F8342004F0C3F8022048
:1030D00004F0C0F8F720ADF8000025612661BDF8C6
:1030E0000010CAF800102761C4F81080C4F81090CE
:1030F000202004F0AFF8EA20ADF800002561266139
:10310000BDF80010CAF800102761C4F81080C4F898
:103110001090002004F09EF8002004F09BF8C020DE
:10312000ADF8000025612661BDF80010CAF8001056
:103130002761C4F81080C4F810901B2004F08AF8AE
:10314000C120ADF8000025612661BDF80010CAF865
:1031500000102761C4F81080C4F81090012004F01A
:1031600079F8C520ADF8000025612661BDF8001092
:10317000CAF800102761C4F81080C4F810903020FD
:1031800004F068F8302004F065F8C720ADF80000BE
:1031900025612661BDF80010CAF800102761C4F847
:1031A0001080C4F81090B72004F054F83620ADF821
:1031B000000025612661BDF80010CAF800102761E3
:1031C000C4F81080C4F81090482004F043F83A2066
:1031D000ADF8000025612661BDF80010CAF80010A6
:1031E0002761C4F81080C4F81090552004F032F81C
:1031F000B120ADF8000025612661BDF80010CAF8C5
:1032000000102761C4F81080C4F81090002004F06A
:1032100021F81A2004F01EF8B620ADF80000256150
:103220002661BDF80010CAF800102761C4F81080AC
:10323000C4F810900A2004F00DF8A22004F00AF857
:10324000F220ADF8000025612661BDF80010CAF833
:1032500000102761C4F81080C4F81090002003F01B
:10326000F9FF2620ADF8000025612661BDF80010A9
:10327000CAF800102761C4F81080C4F8109001202B
:1032800003F0E8FFE020ADF8000025612661BDF8FD
:103290000010CAF800102761C4F81080C4F810901C
:1032A0000F2003F0D7FF2A2003F0D4FF282003F0DB
:1032B000D1FF082003F0CEFF0E2003F0CBFF082043
:1032C00003F0C8FF542003F0C5FFA92003F0C2FF9C
:1032D000432003F0BFFF0A2003F0BCFF0F2003F0E0
:1032E000B9FF002003F0B6FF002003F0B3FF002079
:1032F00003F0B0FF002003F0ADFFE120ADF80000C7
:1033000025612661BDF80010CAF800102761C4F8D5
:103310001080C4F81090002003F09CFF152003F0EB
:1033200099FF172003F096FF072003F093FF112069
:1033300003F090FF062003F08DFF2B2003F08AFF9F
:10334000562003F087FF3C2003F084FF052003F0A4
:1033500081FF102003F07EFF0F2003F07BFF3F2052
:1033600003F078FF3F2003F075FF0F2003F072FF9A
:103370002B20ADF8000025612661BDF80010CAF8C9
:1033800000102761C4F81080C4F81090002003F0EA
:1033900061FF002003F05EFF012003F05BFF3F2090
:1033A00003F058FF2A20ADF8000025612661BDF822
:1033B0000010CAF800102761C4F81080C4F81090FB
:1033C000002003F047FF002003F044FF002003F03B
:1033D00041FFEF2003F03EFF1120ADF80000256112
:1033E0002661BDF80010CAF800102761C4F81080EB
:1033F000C4F81090782003E0001001400C0C01404C
:10340000FFF71EFC2920ADF8000025612661BDF8FC
:103410000010CAF800102761C4F81080C4F810909A
:10342000BDE8F88F2DE9F84FFF20ADF80000FF4C04
:103430004FF0807525616E002661BDF80010DFF841
:10344000F0A3CAF800106F1027614FF08008C4F88D
:1034500010804FF40079C4F8109003F0FBFE982020
:1034600003F0F8FE062003F0F5FEBC20ADF80000E6
:1034700025612661BDF80010CAF800102761C4F864
:103480001080C4F81090012003F0E4FE0F2003F038
:10349000E1FE612003F0DEFEFF2003F0DBFE0120F1
:1034A00003F0D8FE012003F0D5FE0B2003F0D2FE7E
:1034B000102003F0CFFE372003F0CCFE632003F092
:1034C000C9FEFF2003F0C6FEFF2003F0C3FE01206B
:1034D00003F0C0FE012003F0BDFE002003F0BAFEA1
:1034E000002003F0B7FEFF2003F0B4FE522003F0EB
:1034F000B1FE012003F0AEFE002003F0ABFE402041
:1035000003F0A8FEBD20ADF8000025612661BDF8DE
:103510000010CAF800102761C4F81080C4F8109099
:10352000012003F097FE232003F094FE452003F0D2
:1035300091FE672003F08EFE012003F08BFE232016
:1035400003F088FE452003F085FE672003F082FE2D
:10355000BE20ADF8000025612661BDF80010CAF854
:1035600000102761C4F81080C4F81090002003F008
:1035700071FE012003F06EFEAB2003F06BFE6020B5
:1035800003F068FE222003F065FE222003F062FEB5
:10359000222003F05FFE222003F05CFE222003F0D5
:1035A00059FEC720ADF8000025612661BDF8001066
:1035B000CAF800102761C4F81080C4F810903620B3
:1035C00003F048FEED20ADF8000025612661BDF84E
:1035D0000010CAF800102761C4F81080C4F81090D9
:1035E0007F2003F037FE0F2003F034FEC020ADF83B
:1035F000000025612661BDF80010CAF8001027619F
:10360000C4F81080C4F810900F2003F023FE0B20A4
:1036100003F020FE0A2003F01DFEFC20ADF80000A0
:1036200025612661BDF80010CAF800102761C4F8B2
:103630001080C4F81090082003F00CFEDF20ADF8D5
:10364000000025612661BDF80010CAF8001027614E
:10365000C4F81080C4F81090002003F0FBFD002097
:1036600003F0F8FD002003F0F5FD002003F0F2FD6B
:10367000002003F0EFFD202003F0ECFDF320ADF877
:10368000000025612661BDF80010CAF8001027610E
:10369000C4F81080C4F81090742003F0DBFDB4204F
:1036A000ADF8000025612661BDF80010CAF80010D1
:1036B0002761C4F81080C4F81090002003F0CAFD00
:1036C000002003F0C7FD002003F0C4FDF720ADF893
:1036D000000025612661BDF80010CAF800102761BE
:1036E000C4F81080C4F81090822003F0B3FDB1201C
:1036F000ADF8000025612661BDF80010CAF8001081
:103700002761C4F81080C4F81090002003F0A2FDD7
:10371000132003F09FFD132003F09CFDF220ADF871
:10372000000025612661BDF80010CAF8001027616D
:10373000C4F81080C4F81090802003F08BFD0420A2
:1037400003F088FD402003F085FD282003F082FD72
:10375000C120ADF8000025612661BDF80010CAF84F
:1037600000102761C4F81080C4F81090172003F0EF
:1037700071FD882003F06EFD882003F06BFD202092
:1037800003F068FDE020ADF8000025612661BDF87A
:103790000010CAF800102761C4F81080C4F8109017
:1037A000002003F057FD0A2003F054FD122003F01F
:1037B00051FD102003F04EFD0E2003F04BFD2020A4
:1037C00003F048FDCC2003F045FD072003F042FD47
:1037D000062003F03FFD0B2003F03CFD0E2003F01C
:1037E00039FD0F2003F036FD0D2003F033FD1520C9
:1037F00003F030FD102003F02DFD002003F02AFD22
:10380000E120ADF8000025612661BDF80010CAF87E
:1038100000102761C4F81080C4F81090002003F055
:1038200019FD0B2003F016FD132003E000100140EA
:103830000C0C014003F00EFD0D2003F00BFD0E20DB
:1038400003F008FD1B2003F005FD712003F002FDCD
:10385000062003F0FFFC062003F0FCFC0A2003F026
:10386000F9FC0F2003F0F6FC0E2003F0F3FC0F2010
:1038700003F0F0FC152003F0EDFC0C2003F0EAFC53
:10388000002003F0E7FC2A20ADF800002561266146
:10389000BDF80010CAF800102761C4F81080C4F801
:1038A0001090002003F0D6FC002003F0D3FC012090
:1038B00003F0D0FCDF2003F0CDFC2B20ADF800009E
:1038C00025612661BDF80010CAF800102761C4F810
:1038D0001080C4F81090002003F0BCFC002003F01E
:1038E000B9FC032003F0B6FC1F2003F0B3FC3A2020
:1038F000ADF8000025612661BDF80010CAF800107F
:103900002761C4F81080C4F81090552003F0A2FC81
:103910003620ADF8000025612661BDF80010CAF818
:1039200000102761C4F81080C4F81090002003F044
:1039300091FC1120ADF8000025612661BDF8001052
:10394000CAF800102761C4F81080C4F810907820DD
:10395000FFF776F92920ADF8000025612661BDF852
:103960000010CAF800102761C4F81080C4F8109045
:103970001420FFF765F92C20ADF8000025612661C1
:10398000BDF80010CAF800102761C4F81080C4F810
:103990001090BDE8F88F00002DE9F84FED20ADF84C
:1039A0000000FF4E4FF08074346163003361BDF856
:1039B0000000FC4D28609F1037614FF08009C6F869
:1039C00010904FF40078C6F81080012003F042FCFC
:1039D000FE2003F03FFCEE20ADF8000034613361BF
:1039E000BDF8000028603761C6F81090C6F8108056
:1039F000DE2003F02FFC212003F02CFCF120ADF899
:103A0000000034613361BDF8000028603761C6F8FA
:103A10001090C6F81080012003F01CFCDF20ADF8E8
:103A2000000034613361BDF8000028603761C6F8DA
:103A30001090C6F81080102003F00CFC4FF0C40A60
:103A4000ADF800A034613361BDF800002860376133
:103A5000C6F81090C6F810808F2003F0FBFB4FF0E3
:103A6000C60BADF800B034613361BDF800002860CA
:103A70003761C6F81090C6F81080002003F0EAFB0A
:103A8000E22003F0E7FBE22003F0E4FBE22003F096
:103A9000E1FBBF20ADF8000034613361BDF80000E8
:103AA00028603761C6F81090C6F81080AA2003F08D
:103AB000D1FBB020ADF8000034613361BDF80000E7
:103AC00028603761C6F81090C6F810800D2003F00A
:103AD000C1FB002003F0BEFB0D2003F0BBFB002068
:103AE00003F0B8FB112003F0B5FB002003F0B2FB9C
:103AF000192003F0AFFB002003F0ACFB212003F002
:103B0000A9FB002003F0A6FB2D2003F0A3FB00205F
:103B100003F0A0FB3D2003F09DFB002003F09AFB87
:103B20005D2003F097FB002003F094FB5D2003F081
:103B300091FB002003F08EFBB120ADF80000346152
:103B40003361BDF8000028603761C6F81090C6F8F0
:103B50001080802003F07EFB002003F07BFB8B2095
:103B600003F078FB002003F075FB962003F072FB56
:103B7000002003F06FFBB220ADF800003461336128
:103B8000BDF8000028603761C6F81090C6F81080B4
:103B9000002003F05FFB002003F05CFB022003F039
:103BA00059FB002003F056FB032003F053FB0020D9
:103BB00003F050FBB320ADF8000034613361BDF871
:103BC000000028603761C6F81090C6F81080002009
:103BD00003F040FB002003F03DFB002003F03AFB24
:103BE000002003F037FB002003F034FB002003F03B
:103BF00031FB002003F02EFB002003F02BFB002004
:103C000003F028FB002003F025FB002003F022FB3B
:103C1000002003F01FFB002003F01CFB002003F03A
:103C200019FB002003F016FB002003F013FB00201B
:103C300003F010FB002003F00DFB002003F00AFB53
:103C4000002003F007FB002003F004FB002003F03A
:103C500001FB002003F0FEFA002003F0FBFAB42081
:103C6000ADF8000034613361BDF8000028603761B1
:103C7000C6F81090C6F810808B2003F0EBFA0020F5
:103C800003F0E8FA962003F0E5FA002003F0E2FAE8
:103C9000A12003F0DFFA002003F0DCFAB520ADF834
:103CA000000034613361BDF8000028603761C6F858
:103CB0001090C6F81080022003F0CCFA002003F028
:103CC000C9FA032003F0C6FA002003F0C3FA042067
:103CD00003F0C0FA002003F0BDFAB620ADF80000F2
:103CE00034613361BDF8000028603761C6F8109078
:103CF000C6F81080002003F0ADFA002003F0AAFA05
:103D0000B720ADF8000034613361BDF800002860D1
:103D10003761C6F81090C6F81080002003F09AFAB8
:103D2000002003F097FA3F2003F094FA002003F0FC
:103D300091FA5E2003F08EFA002003F08BFA6420E3
:103D400003F088FA002003F085FA8C2003F082FA51
:103D5000002003F07FFAAC2003F07CFA002003F08F
:103D600079FADC2003F076FA002003F073FA702071
:103D700003F070FA002003F06DFA902003F06AFA65
:103D8000002003F067FAEB2003F064FA002003F050
:103D900061FADC2003F05EFA002003F05BFA03E036
:103DA000001001400C0C0140B820ADF80000346157
:103DB0003361BDF8000028603761C6F81090C6F87E
:103DC0001080002003F046FA002003F043FA0020A0
:103DD00003F040FA002003F03DFA002003F03AFA25
:103DE000002003F037FA002003F034FA002003F03B
:103DF00031FABA20ADF8000034613361BDF800003B
:103E000028603761C6F81090C6F81080242003F0AF
:103E100021FA002003F01EFA002003F01BFA002014
:103E200003F018FAC120ADF8000034613361BDF829
:103E3000000028603761C6F81090C6F81080202076
:103E400003F008FA002003F005FA542003F002FA08
:103E5000002003F0FFF9FF2003F0FCF9002003F03D
:103E6000F9F9C220ADF8000034613361BDF80000FB
:103E700028603761C6F81090C6F810800A2003F059
:103E8000E9F9002003F0E6F9042003F0E3F900204B
:103E900003F0E0F9C320ADF8000034613361BDF8F0
:103EA000000028603761C6F81090C6F810803C20EA
:103EB00003F0D0F9002003F0CDF93A2003F0CAF95D
:103EC000002003F0C7F9392003F0C4F9002003F003
:103ED000C1F9372003F0BEF9002003F0BBF93C2004
:103EE00003F0B8F9002003F0B5F9362003F0B2F979
:103EF000002003F0AFF9322003F0ACF9002003F00A
:103F0000A9F92F2003F0A6F9002003F0A3F92C2033
:103F100003F0A0F9002003F09DF9292003F09AF99D
:103F2000002003F097F9262003F094F9002003F015
:103F300091F9242003F08EF9002003F08BF924205E
:103F400003F088F9002003F085F9232003F082F9BB
:103F5000002003F07FF93C2003F07CF9002003F0FF
:103F600079F9362003F076F9002003F073F9322056
:103F700003F070F9002003F06DF92F2003F06AF9C7
:103F8000002003F067F92C2003F064F9002003F00F
:103F900061F9292003F05EF9002003F05BF9262087
:103FA00003F058F9002003F055F9242003F052F9EA
:103FB000002003F04FF9242003F04CF9002003F017
:103FC00049F9232003F046F9002003F043F9ADF846
:103FD00000A034613361BDF8000028603761C6F885
:103FE0001090C6F81080622003F034F9002003F02E
:103FF00031F9052003F02EF9002003F02BF984207D
:1040000003F028F9002003F025F9F02003F022F94D
:10401000002003F01FF9182003F01CF9002003F022
:1040200019F9A42003F016F9002003F013F9182061
:1040300003F010F9002003F00DF9502003F00AF905
:10404000002003F007F90C2003F004F9002003F02E
:1040500001F9172003F0FEF8002003F0FBF895208B
:1040600003F0F8F8002003F0F5F8F32003F0F2F87D
:10407000002003F0EFF8E62003F0ECF8002003F056
:10408000E9F8C520ADF8000034613361BDF80000E7
:1040900028603761C6F81090C6F81080322003F00F
:1040A000D9F8002003F0D6F8442003F0D3F800201C
:1040B00003F0D0F8652003F0CDF8002003F0CAF833
:1040C000762003F0C7F8002003F0C4F8882003F03E
:1040D000C1F8002003F0BEF8ADF800B034613361E0
:1040E000BDF8000028603761C6F81090C6F810804F
:1040F000202003F0AFF8002003F0ACF8172003F005
:10410000A9F8002003F0A6F8012003F0A3F800208E
:1041100003F0A0F8C720ADF8000034613361BDF8AA
:10412000000028603761C6F81090C6F810800020A3
:1041300003F090F8002003F08DF8002003F08AF8D7
:10414000002003F087F8C820ADF800003461336127
:10415000BDF8000028603761C6F81090C6F81080DE
:10416000002003F077F8002003F074F8002003F03B
:1041700071F8002003F06EF8C920ADF8000034613A
:104180003361BDF8000028603761C6F81090C6F8AA
:104190001080002003F05EF8002003F05BF80020A0
:1041A00003F058F8002003F055F8002003F052F80F
:1041B000002003F04FF8002003F04CF8002003F03B
:1041C00049F8002003F046F8002003F043F80020EF
:1041D00003F040F8002003F03DF8002003F03AF827
:1041E000002003F037F8002003F034F8002003F03B
:1041F00031F8E020ADF8000034613361BDF8000013
:1042000028604FF4000AC6F810A0CB46C6F81090FC
:104210004746C6F81080162003F01CF8002003F073
:1042200019F81C2003F016F8002003F013F82120E1
:1042300003F010F8002003F00DF8362003F00AF820
:10424000002003F007F8462003F004F8002003F0F4
:1042500001F8522002F0FEFF002002F0FBFF642074
:1042600002F0F8FF002002F0F5FF7A2002F0F2FFE2
:10427000002002F0EFFF8B2002F0ECFF002002F0A4
:10428000E9FF992002F0E6FF002002F0E3FFA820FA
:1042900002F0E0FF002002F0DDFFB92002F0DAFFBB
:1042A000002002F0D7FFC42002F0D4FF002002F06B
:1042B000D1FFCA2002F0CEFF002002F0CBFFD220B7
:1042C00002F0C8FF002002F0C5FFD92002F0C2FFB3
:1042D000002002F0BFFFE02002F0BCFF002002F04F
:1042E000B9FFF32002F0B6FF002002F0B3FFE12097
:1042F000ADF8000034613361BDF800002860C6F8F5
:1043000010A0C6F810903761162002F0A3FF00201D
:1043100002F0A0FF1C2002F09DFF002002F09AFF97
:10432000222002F097FF002002F094FF362002F0D6
:1043300091FF002002F08EFF452002F08BFF00204D
:1043400002F088FF522002F085FF002002F082FF79
:10435000642002F07FFF002002F07CFF7A2002F050
:1043600079FF002002F076FF8B2002F073FF00201F
:1043700002F070FF992002F06DFF002002F06AFF4A
:10438000A82002F067FF002002F064FFB92002F0CD
:1043900061FF002002F05EFFC42002F05BFF0020FE
:1043A00002F058FFCA2002F055FF002002F052FF31
:1043B000D22002F04FFF002002F04CFFD82002F084
:1043C00049FF002002F046FFE02002F043FF0020FA
:1043D00002F040FFF32002F03DFF002002F03AFF20
:1043E000E220ADF8000034613361BDF800002860C0
:1043F000C6F810A0C6F810903761052002F02AFF19
:10440000002002F027FF0B2002F024FF002002F022
:1044100021FF1B2002F01EFF002002F01BFF3420B2
:1044200002F018FF002002F015FF442002F012FFF6
:10443000002002F00FFF4F2002F00CFF002002F0DE
:1044400009FF612002F006FF002002F003FF79203F
:1044500002F000FF002002F0FDFE882002F0FAFECC
:10446000002002F0F7FE972002F0F4FE002002F098
:10447000F1FEA62002F0EEFE002002F0EBFEB720D7
:1044800002F0E8FE002002F0E5FEC22002F0E2FEAB
:10449000002002F0DFFEC72002F0DCFE002002F068
:1044A000D9FED12002F0D6FE002002F0D3FED620A5
:1044B00002F0D0FE002002F0CDFEDD2002F0CAFEA8
:1044C000002002F0C7FEF32002F0C4FE002002F03C
:1044D000C1FEE320ADF8000034613361BDF8000097
:1044E0002860C6F810A0C6F810903761052002F0C9
:1044F000B1FE002002F0AEFE0A2002F0ABFE00206A
:1045000002F0A8FE1C2002F0A5FE002002F0A2FE90
:10451000332002F09FFE002002F09CFE442002F0B7
:1045200099FE002002F096FE502002F093FE00203B
:1045300002F090FE622002F08DFE002002F08AFE62
:10454000782002F087FE002002F084FE882002F02E
:1045500081FE002002F07EFE972002F07BFE00200C
:1045600002F078FEA62002F075FE002002F072FE36
:10457000B72002F06FFE002002F06CFEC22002F0B5
:1045800069FE002002F066FEC72002F063FE0020F4
:1045900002F060FED12002F05DFE002002F05AFE23
:1045A000D52002F057FE002002F054FEDD2002F07C
:1045B00051FE002002F04EFEF32002F04BFE0020E0
:1045C00002F048FEE420ADF8000034613361BDF82C
:1045D00000002860C6F810A0C6F8109037610120CE
:1045E00002F038FE002002F035FE012002F032FE1B
:1045F000002002F02FFE022002F02CFE002002F02C
:1046000029FE2A2002F026FE002002F023FE3C2094
:1046100002F020FE002002F01DFE4B2002F01AFEE8
:10462000002002F017FE5D2002F014FE002002F0D0
:1046300011FE742002F00EFE002002F00BFE84201A
:1046400002F008FE002002F005FE932002F002FEB8
:10465000002002F0FFFDA22002F0FCFD002002F08D
:10466000F9FDB32002F0F6FD002002F0F3FDBE20BC
:1046700002F0F0FD002002F0EDFDC42002F0EAFDA2
:10468000002002F0E7FDCD2002F0E4FD002002F062
:10469000E1FDD32002F0DEFD002002F0DBFDDD2095
:1046A00002F0D8FD002002F0D5FDF32002F0D2FD8B
:1046B000002002F0CFFDE520ADF800003461336149
:1046C000BDF800002860C6F810A0C6F81090376149
:1046D000002002F0BFFD002002F0BCFD002002F02F
:1046E000B9FD002002F0B6FD022002F0B3FD00206B
:1046F00002F0B0FD292002F0ADFD002002F0AAFD7D
:104700003C2002F0A7FD002002F0A4FD4B2002F0A7
:10471000A1FD002002F09EFD5D2002F09BFD002027
:1047200002F098FD742002F095FD002002F092FD49
:10473000842002F08FFD002002F08CFD932002F017
:1047400089FD002002F086FDA22002F083FD0020FA
:1047500002F080FDB32002F07DFD002002F07AFD22
:10476000BE2002F077FD002002F074FDC42002F0AC
:1047700071FD002002F06EFDCD2002F06BFD0020E7
:1047800002F068FDD32002F065FD002002F062FD1A
:10479000DC2002F05FFD002002F05CFDF32002F05F
:1047A00059FD002002F056FDE620ADF8000034610E
:1047B0009A463361BDF80010A9462960651035613D
:1047C0005F46C6F810B0C6F81080112002F042FD16
:1047D000002002F03FFD342002F03CFD002002F0FA
:1047E00039FD562002F036FD002002F033FD762020
:1047F00002F030FD002002F02DFD772002F02AFDAE
:10480000002002F027FD662002F024FD002002F0C7
:1048100021FD882002F01EFD002002F01BFD9920E2
:1048200002F018FD002002F015FDBB2002F012FD81
:10483000002002F00FFD992002F00CFD002002F094
:1048400009FD662002F006FD002002F003FD552060
:1048500002F000FD002002F0FDFC552002F0FAFC01
:10486000002002F0F7FC452002F0F4FC002002F0EA
:10487000F1FC432002F0EEFC002002F0EBFC4420AF
:1048800002F0E8FC002002F0E5FCE720ADF80000B3
:104890003461C6F810A0BDF80010C9F800103561E9
:1048A0003761C6F81080322002F0D4FC002002F0FC
:1048B000D1FC552002F0CEFC002002F0CBFC76208B
:1048C00002F0C8FC002002F0C5FC662002F0C2FC29
:1048D000002002F0BFFC672002F0BCFC002002F0C8
:1048E000B9FC672002F0B6FC002002F0B3FC872080
:1048F00002F0B0FC002002F0ADFC992002F0AAFC0E
:10490000002002F0A7FCBB2002F0A4FC002002F073
:10491000A1FC992002F09EFC002002F09BFC772075
:1049200002F098FC002002F095FC442002F092FC7A
:10493000002002F08FFC562002F08CFC002002F0D8
:1049400089FC232002F086FC002002F083FC332047
:1049500002F080FC002002F07DFC452002F07AFC91
:10496000002002F077FCE820ADF800003461C6F8C2
:1049700010A0BDF80010C9F8001035613761C6F805
:104980001080002002F066FC002002F063FC9920F9
:1049900002F060FC002002F05DFC872002F05AFC6F
:1049A000002002F057FC882002F054FC002002F0A6
:1049B00051FC772002F04EFC002002F04BFC6620F8
:1049C00002F048FC002002F045FC882002F042FC86
:1049D000002002F03FFCAA2002F03CFC002002F084
:1049E00039FCBB2002F036FC002002F033FC992099
:1049F00002F030FC002002F02DFC662002F02AFCC0
:104A0000002002F027FC552002F024FC002002F0D8
:104A100021FC552002F01EFC002002F01BFC44206B
:104A200002F018FC002002F015FC442002F012FCF9
:104A3000002002F00FFC552002F00CFC002002F0D8
:104A400009FCE920ADF800003461C6F810A0BDF8FB
:104A50000010C9F8001035613761C6F81080AA202F
:104A600002F0F8FB002002F0F5FB002002F0F2FB60
:104A7000002002F0EFFB0020ADF800003461C6F822
:104A800010A0BDF80010C9F8001035613761C6F8F4
:104A90001080AA2002F0DEFBCF20ADF800003461C8
:104AA000C6F810A0BDF80010C9F8001035613761D4
:104AB000C6F81080002002F0CDFB002002F0CAFBF7
:104AC000002002F0C7FB002002F0C4FB002002F02F
:104AD000C1FB002002F0BEFB002002F0BBFB002067
:104AE00002F0B8FB002002F0B5FB002002F0B2FBA0
:104AF000002002F0AFFB002002F0ACFB002002F02F
:104B0000A9FB002002F0A6FB002002F0A3FB00207E
:104B100002F0A0FB002002F09DFBF020ADF80000A9
:104B20003461C6F810A0BDF80010C9F80010356156
:104B30003761C6F81080002002F08CFB502002F094
:104B400089FB002002F086FB002002F083FB00209E
:104B500002F080FBF320ADF800003461C6F810A02D
:104B6000BDF80010C9F8001035613761C6F8108033
:104B7000002002F06FFBF920ADF800003461C6F8A8
:104B800010A0BDF80010C9F8001035613761C6F8F3
:104B90001080062002F05EFB102002F05BFB292053
:104BA00002F058FB002002F055FB3A20ADF800005F
:104BB0003461C6F810A0BDF80010C9F800103561C6
:104BC0003761C6F81080552002F044FB1120ADF883
:104BD00000003461C6F810A0BDF80010C9F800103C
:104BE00035613761C6F810806420FEF729F8292066
:104BF000ADF800003461C6F810A0BDF80010C9F887
:104C0000001035613761C6F810803520ADF800001E
:104C10003461C6F810A0BDF80010C9F80010356165
:104C20003761C6F81080002002F014FB5120ADF867
:104C300000003461C6F810A0BDF80010C9F80010DB
:104C400035613761C6F81080FF2002F003FB532066
:104C5000ADF800003461C6F810A0BDF80010C9F826
:104C6000001035613761C6F810802C2002F0F2FA8E
:104C70005520ADF800003461C6F810A0BDF8001052
:104C8000C9F8001035613761C6F81080822002F043
:104C9000E1FA2C20ADF800003461C6F810A0BDF890
:104CA0000010C9F8001035613761C6F81080BDE802
:104CB000F88F00002DE9F84F4FF47044552120463D
:104CC00002F0DCFA651CAA21284602F0D7FAA61CDD
:104CD0005221304602F0D2FAE71C0821384602F091
:104CE000CDFA4FF204080121404602F0C7FA0D2127
:104CF0004FF4304002F0C2FA0D214BF2010002F0F5
:104D0000BDFA0D214BF2020002F0B8FA4FF4364919
:104D10003421484602F0B2FA34214BF2016002F02D
:104D2000ADFA34214BF2026002F0A8FA4FF4314A96
:104D30000D21504602F0A2FA4BF2011B0D215846FC
:104D400002F09CFA0D214BF2021002F097FA342186
:104D50004FF4374002F092FA34214BF2017002F026
:104D60008DFA34214BF2027002F088FA00214FF4E0
:104D7000324002F083FA00214BF2012002F07EFA69
:104D800000214BF2022002F079FA24214FF438403E
:104D900002F074FA24214BF6010002F06FFA24218C
:104DA0004BF6020002F06AFA01214FF43F4002F094
:104DB00065FA0F214FF4334002F060FA0F214BF2F5
:104DC000013002F05BFA0F214BF2023002F056FA8A
:104DD00034214FF4394002F051FA34214BF60110DE
:104DE00002F04CFA34214BF6021002F047FA082187
:104DF0004FF4354002F042FA08214BF2015002F024
:104E00003DFA08214BF2025002F038FA03214FF428
:104E1000424002F033FA24214FF43A4002F02EFAD5
:104E200024214BF6012002F029FA24214BF602201E
:104E300002F024FA00214FF43C4002F01FFA7821DE
:104E40004BF6014002F01AFA00214BF6024002F044
:104E500015FA00214FF43D4002F010FA78214BF68C
:104E6000015002F00BFA00214BF6025002F006FA54
:104E700000214FF43E4002F001FA64214BF601603C
:104E800002F0FCF900214FF4514002F0F7F9332110
:104E90004DF2011002F0F2F900214DF2021002F081
:104EA000EDF934214DF2031002F0E8F900214DF242
:104EB000041002F0E3F93A214DF2051002F0DEF998
:104EC00000214DF2061002F0D9F94A214DF20710E7
:104ED00002F0D4F900214DF2081002F0CFF95C2164
:104EE0004DF2091002F0CAF900214DF20A1002F049
:104EF000C5F981214DF20B1002F0C0F900214DF2ED
:104F00000C1002F0BBF9A6214DF20D1002F0B6F91B
:104F100000214DF20E1002F0B1F9E5214DF20F1013
:104F200002F0ACF901214DF2101002F0A7F91321A3
:104F30004DF2111002F0A2F901214DF2121002F00F
:104F40009DF954214DF2131002F098F901214DF210
:104F5000141002F093F982214DF2151002F08EF92F
:104F600001214DF2161002F089F9CA214DF21710F5
:104F700002F084F902214DF2181002F07FF90021AD
:104F80004DF2191002F07AF902214DF21A1002F0D6
:104F900075F901214DF21B1002F070F902214DF25A
:104FA0001C1002F06BF934214DF21D1002F066F96D
:104FB00002214DF21E1002F061F967214DF21F101F
:104FC00002F05CF902214DF2201002F057F9842121
:104FD0004DF2211002F052F902214DF2221002F09E
:104FE0004DF9A4214DF2231002F048F902214DF2AF
:104FF000241002F043F9B7214DF2251002F03EF9DA
:1050000002214DF2261002F039F9CF214DF227107E
:1050100002F034F902214DF2281002F02FF9DE21BE
:105020004DF2291002F02AF902214DF22A1002F065
:1050300025F9F2214DF22B1002F020F902214DF258
:105040002C1002F01BF9FE214DF22D1002F016F982
:1050500003214DF22E1002F011F910214DF22F1004
:1050600002F00CF903214DF2301002F007F9332160
:105070004DF2311002F002F903214DF2321002F02C
:10508000FDF86D214DF2331002F0F8F800214FF4D5
:10509000524002F0F3F833214DF2012002F0EEF815
:1050A00000214DF2022002F0E9F834214DF20320F4
:1050B00002F0E4F800214DF2042002F0DFF83A217A
:1050C0004DF2052002F0DAF800214DF2062002F040
:1050D000D5F84A214DF2072002F0D0F800214DF218
:1050E000082002F0CBF85C214DF2092002F0C6F84E
:1050F00000214DF20A2002F0C1F881214DF20B206F
:1051000002F0BCF800214DF20C2002F0B7F8A62105
:105110004DF20D2002F0B2F800214DF20E2002F007
:10512000ADF8E5214DF20F2002F0A8F801214DF273
:10513000102002F0A3F813214DF2112002F09EF886
:1051400001214DF2122002F099F854214DF2132062
:1051500002F094F801214DF2142002F08FF8822120
:105160004DF2152002F08AF801214DF2162002F0CE
:1051700085F8CA214DF2172002F080F802214DF285
:10518000182002F07BF800214DF2192002F076F889
:1051900002214DF21A2002F071F801214DF21B207C
:1051A00002F06CF802214DF21C2002F067F8342165
:1051B0004DF21D2002F062F802214DF21E2002F095
:1051C0005DF867214DF21F2002F058F802214DF2E0
:1051D000202002F053F884214DF2212002F04EF8F5
:1051E00002214DF2222002F049F8A4214DF22320A1
:1051F00002F044F802214DF2242002F03FF8B721DA
:105200004DF2252002F03AF802214DF2262002F05C
:1052100035F8CF214DF2272002F030F802214DF26F
:10522000282002F02BF8DE214DF2292002F026F88A
:1052300002214DF22A2002F021F8F2214DF22B201A
:1052400002F01CF802214DF22C2002F017F8FE218A
:105250004DF22D2002F012F803214DF22E2002F023
:105260000DF810214DF22F2002F008F803214DF225
:10527000302002F003F833214DF2312001F0FEFF1F
:1052800003214DF2322001F0F9FF6D214DF2332060
:1052900001F0F4FF00214FF4534001F0EFFF332100
:1052A0004DF2013001F0EAFF00214DF2023001F031
:1052B000E5FF34214DF2033001F0E0FF00214DF213
:1052C000043001F0DBFF3A214DF2053001F0D6FF4A
:1052D00000214DF2063001F0D1FF4A214DF2073096
:1052E00001F0CCFF00214DF2083001F0C7FF5C2136
:1052F0004DF2093001F0C2FF00214DF20A3001F0F9
:10530000BDFF81214DF20B3001F0B8FF00214DF2BD
:105310000C3001F0B3FFA6214DF20D3001F0AEFFCD
:1053200000214DF20E3001F0A9FFE5214DF20F30C2
:1053300001F0A4FF01214DF2103001F09FFF132175
:105340004DF2113001F09AFF01214DF2123001F0BF
:1053500095FF54214DF2133001F090FF01214DF2E1
:10536000143001F08BFF82214DF2153001F086FFE1
:1053700001214DF2163001F081FFCA214DF21730A4
:1053800001F07CFF02214DF2183001F077FF00217F
:105390004DF2193001F072FF02214DF21A3001F086
:1053A0006DFF01214DF21B3001F068FF02214DF22B
:1053B0001C3001F063FF34214DF21D3001F05EFF1F
:1053C00002214DF21E3001F059FF67214DF21F30CE
:1053D00001F054FF02214DF2203001F04FFF8421F3
:1053E0004DF2213001F04AFF02214DF2223001F04E
:1053F00045FFA4214DF2233001F040FF02214DF280
:10540000243001F03BFFB7214DF2253001F036FF8B
:1054100002214DF2263001F031FFCF214DF227302D
:1054200001F02CFF02214DF2283001F027FFDE2190
:105430004DF2293001F022FF02214DF22A3001F015
:105440001DFFF2214DF22B3001F018FF02214DF229
:105450002C3001F013FFFE214DF22D3001F00EFF34
:1054600003214DF22E3001F009FF10214DF22F30B3
:1054700001F004FF03214DF2303001F0FFFE332133
:105480004DF2313001F0FAFE03214DF2323001F0DD
:10549000F5FE6D214DF2333001F0F0FE00214FF4A6
:1054A000544001F0EBFE33214DF2014001F0E6FEE5
:1054B00000214DF2024001F0E1FE34214DF20340A3
:1054C00001F0DCFE00214DF2044001F0D7FE3A214C
:1054D0004DF2054001F0D2FE00214DF2064001F0F0
:1054E000CDFE4A214DF2074001F0C8FE00214DF2E9
:1054F000084001F0C3FE5C214DF2094001F0BEFE00
:1055000000214DF20A4001F0B9FE81214DF20B401D
:1055100001F0B4FE00214DF20C4001F0AFFEA621D7
:105520004DF20D4001F0AAFE00214DF20E4001F0B7
:10553000A5FEE5214DF20F4001F0A0FE01214DF244
:10554000104001F09BFE13214DF2114001F096FE38
:1055500001214DF2124001F091FE54214DF2134011
:1055600001F08CFE01214DF2144001F087FE8221F2
:105570004DF2154001F082FE01214DF2164001F07E
:105580007DFECA214DF2174001F078FE02214DF256
:10559000184001F073FE00214DF2194001F06EFE3B
:1055A00002214DF21A4001F069FE01214DF21B402B
:1055B00001F064FE02214DF21C4001F05FFE342137
:1055C0004DF21D4001F05AFE02214DF21E4001F045
:1055D00055FE67214DF21F4001F050FE02214DF2B1
:1055E000204001F04BFE84214DF2214001F046FEA7
:1055F00002214DF2224001F041FEA4214DF2234050
:1056000001F03CFE02214DF2244001F037FEB721AB
:105610004DF2254001F032FE02214DF2264001F00C
:105620002DFECF214DF2274001F028FE02214DF240
:10563000284001F023FEDE214DF2294001F01EFE3C
:1056400002214DF22A4001F019FEF2214DF22B40C9
:1056500001F014FE02214DF22C4001F00FFEFE215C
:105660004DF22D4001F00AFE03214DF22E4001F0D3
:1056700005FE10214DF22F4001F000FE03214DF2F6
:10568000304001F0FBFD33214DF2314001F0F6FDD9
:1056900003214DF2324001F0F1FD6D214DF2334016
:1056A00001F0ECFD00214FF4554001F0E7FD3321FE
:1056B0004DF2015001F0E2FD00214DF2025001F0E7
:1056C000DDFD34214DF2035001F0D8FD00214DF2F3
:1056D000045001F0D3FD3A214DF2055001F0CEFD0A
:1056E00000214DF2065001F0C9FD4A214DF207504C
:1056F00001F0C4FD00214DF2085001F0BFFD5C2116
:105700004DF2095001F0BAFD00214DF20A5001F0AE
:10571000B5FD81214DF20B5001F0B0FD00214DF29D
:105720000C5001F0ABFDA6214DF20D5001F0A6FD8D
:1057300000214DF20E5001F0A1FDE5214DF20F5078
:1057400001F09CFD01214DF2105001F097FD132155
:105750004DF2115001F092FD01214DF2125001F075
:105760008DFD54214DF2135001F088FD01214DF2C1
:10577000145001F083FD82214DF2155001F07EFDA1
:1057800001214DF2165001F079FDCA214DF217505A
:1057900001F074FD02214DF2185001F06FFD00215F
:1057A0004DF2195001F06AFD02214DF21A5001F03C
:1057B00065FD01214DF21B5001F060FD02214DF20B
:1057C0001C5001F05BFD34214DF21D5001F056FDDF
:1057D00002214DF21E5001F051FD67214DF21F5084
:1057E00001F04CFD02214DF2205001F047FD8421D3
:1057F0004DF2215001F042FD02214DF2225001F004
:105800003DFDA4214DF2235001F038FD02214DF25F
:10581000245001F033FDB7214DF2255001F02EFD4B
:1058200002214DF2265001F029FDCF214DF22750E3
:1058300001F024FD02214DF2285001F01FFDDE2170
:105840004DF2295001F01AFD02214DF22A5001F0CB
:1058500015FDF2214DF22B5001F010FD02214DF209
:105860002C5001F00BFDFE214DF22D5001F006FDF4
:1058700003214DF22E5001F001FD10214DF22F5069
:1058800001F0FCFC03214DF2305001F0F7FC332114
:105890004DF2315001F0F2FC03214DF2325001F093
:1058A000EDFC6D214DF2335001F0E8FC00214FF486
:1058B000564001F0E3FC33214DF2016001F0DEFCC3
:1058C00000214DF2026001F0D9FC34214DF2036059
:1058D00001F0D4FC00214DF2046001F0CFFC3A212C
:1058E0004DF2056001F0CAFC00214DF2066001F0A6
:1058F000C5FC4A214DF2076001F0C0FC00214DF2C9
:10590000086001F0BBFC5C214DF2096001F0B6FCBF
:1059100000214DF20A6001F0B1FC81214DF20B60D3
:1059200001F0ACFC00214DF20C6001F0A7FCA621B7
:105930004DF20D6001F0A2FC00214DF20E6001F06D
:105940009DFCE5214DF20F6001F098FC01214DF224
:10595000106001F093FC13214DF2116001F08EFCF8
:1059600001214DF2126001F089FC54214DF21360C7
:1059700001F084FC01214DF2146001F07FFC8221D2
:105980004DF2156001F07AFC01214DF2166001F034
:1059900075FCCA214DF2176001F070FC02214DF236
:1059A000186001F06BFC00214DF2196001F066FCFB
:1059B00002214DF21A6001F061FC01214DF21B60E1
:1059C00001F05CFC02214DF21C6001F057FC342117
:1059D0004DF21D6001F052FC02214DF21E6001F0FB
:1059E0004DFC67214DF21F6001F048FC02214DF291
:1059F000206001F043FC84214DF2216001F03EFC67
:105A000002214DF2226001F039FCA4214DF2236005
:105A100001F034FC02214DF2246001F02FFCB7218B
:105A20004DF2256001F02AFC02214DF2266001F0C2
:105A300025FCCF214DF2276001F020FC02214DF220
:105A4000286001F01BFCDE214DF2296001F016FCFC
:105A500002214DF22A6001F011FCF2214DF22B607F
:105A600001F00CFC02214DF22C6001F007FCFE213C
:105A70004DF22D6001F002FC03214DF22E6001F089
:105A8000FDFB10214DF22F6001F0F8FB03214DF2D8
:105A9000306001F0F3FB33214DF2316001F0EEFB99
:105AA00003214DF2326001F0E9FB6D214DF23360CC
:105AB00001F0E4FB5521204601F0E0FBAA21284635
:105AC00001F0DCFB5221304601F0D8FB08213846BA
:105AD00001F0D4FB0021404601F0D0FBCC21504620
