:020000040800F2
:10000000800D0020CD010008BF1E0008F51C00086F
:10001000BD1E0008C7030008F92400080000000006
:10002000000000000000000000000000C31E0008E7
:100030006304000800000000C11E0008551F0008EE
:10004000E7010008E7010008E7010008E7010008F0
:10005000E7010008E7010008E7010008E7010008E0
:10006000E7010008E7010008E7010008E7010008D0
:10007000E7010008E7010008E7010008E7010008C0
:10008000E7010008E7010008E7010008E7010008B0
:10009000E7010008E7010008E7010008E7010008A0
:1000A000E7010008E7010008E7010008E701000890
:1000B000E7010008E7010008E7010008E701000880
:1000C000E7010008E7010008E7010008E701000870
:1000D000E7010008ED240008E7010008E701000837
:1000E000E7010008E7010008E7010008E701000850
:1000F000E7010008E7010008E7010008E701000840
:10010000E7010008E7010008E7010008E70100082F
:10011000E7010008E7010008E7010008E70100081F
:10012000E7010008E7010008E70100082D040008C6
:1001300000F002F800F03AF80AA090E8000C8244BF
:100140008344AAF10107DA4501D100F02FF8AFF29C
:10015000090EBAE80F0013F0010F18BFFB1A43F0A5
:100160000103184764BF000084BF0000103A24BF99
:1001700078C878C1FAD8520724BF30C830C144BF0C
:1001800004680C607047000000230024002500264E
:10019000103A28BF78C1FBD8520728BF30C148BFEA
:1001A0000B6070471FB51FBD10B510BD00F0D8F82B
:1001B0001146FFF7F7FF07F025F800F0F6F803B453
:1001C000FFF7F2FF03BC00F0F7F800000948804792
:1001D00009480047FEE7FEE7FEE7FEE7FEE7FEE729
:1001E000FEE7FEE7FEE7FEE704480549054A064B41
:1001F00070470000B71F0008310100088007002089
:10020000800D0020800900208009002040EA0103C1
:1002100070B59B072ED14FF00136042A2AD308C8A7
:1002200010C99D1B9D43121F15EAC61517D0D8B2E1
:10023000E1B2401A50EA056110D198B2A1B2401A59
:1002400050EA05410AD123F07F4024F07F41401A53
:1002500050EA052102D1180EA0EB146070BDA34234
:10026000DBD018BA21BA884201D9012070BD4FF005
:10027000FF3070BD0AB9002070BD10F8013B11F8C5
:10028000014B63B1A3420AD1521E08D010F8013BC2
:1002900011F8014B1BB1A34201D1521EEDD1181B25
:1002A00070BD4FF000020429C0F0128010F0030C62
:1002B00000F01B80CCF1040CBCF1020F18BF00F859
:1002C000012BA8BF20F8022BA1EB0C0100F00DB808
:1002D0005FEAC17C24BF00F8012B00F8012B48BF66
:1002E00000F8012B70474FF0000200B5134694460A
:1002F0009646203922BFA0E80C50A0E80C50B1F17E
:100300002001BFF4F7AF090728BFA0E80C5048BF91
:100310000CC05DF804EB890028BF40F8042B08BF2F
:10032000704748BF20F8022B11F0804F18BF00F82B
:10033000012B704770477047704710B500F008F800
:10034000006810BD10B5044600F002F8046010BD4E
:10035000004870471C070020004870471C07002019
:100360007546FFF7F9FFAE4605006946534620F093
:100370000700854618B020B5FFF736FFBDE82040DE
:100380004FF000064FF000074FF000084FF0000B51
:1003900021F00701AC46ACE8C009ACE8C009ACE804
:1003A000C009ACE8C0098D4670470446AFF3008031
:1003B0002046FFF704FF000001491820ABBEFEE70E
:1003C000260002007047FEE710B5446A204600F0A0
:1003D000E9F80120207110BD10B5446A204600F0F4
:1003E000B7F80120207110BD10B5446A206940F0B3
:1003F00004002061204600F0D7F80120207110BDD4
:1004000010B5446A206940F004002061204600F0E5
:10041000A1F80120207110BD10B5406A00F0C3F8AA
:1004200010BD10B5406A00F094F810BD014800F00E
:1004300059BA0000F005002030B590F84050012472
:10044000AC40C56B6C60046863604368102B036844
:1004500003D099600068C26030BD9A600068C160D6
:1004600030BD70472DE9F05F3226B425DFF8D8A003
:1004700001244FF0C8084FF4784B00BF9AF80300EE
:10048000C0EB00100001B0FBF8F1A14201DDA81B98
:100490000EE0B0FBF8F0A04209D18227B9B2A0B2B9
:1004A000002202F021FD7F1CE62FF7DB01E0A819F6
:1004B00081464946A0B25F465A4602F015FD641CCB
:1004C000782CDBDB9AF8030078B164280DD0822405
:1004D000A1B23A46782002F007FDA1B23A460120C7
:1004E00002F002FD641CE62CF2DBD3460124C24676
:1004F0009BF80300C0EB00100101B1FBFAF2A2422D
:1005000001DDA81B12E0B1FBFAF0A0420DD1822759
:1005100004F17809B9B21FFA89F04FF4784202F079
:10052000E3FC7F1CE62FF5DB01E0A819804604F10F
:100530007800414680B24FF4784202F0D5FC641C4A
:10054000782CD5DBBDE8F09F0000002072B6FEE7F6
:1005500070477047704770B500B3F9B14379012B0C
:100560001ED0012646710223037105682C6802F033
:10057000100340F6FE729A409443D1E900210A43E9
:100580009A4022432A6001680A68C0249C40A24322
:100590000A60067100214171084670BD012070BDDE
:1005A000022070BD70477047704770B5040003D0DB
:1005B0002079002510B105E0012070BD657120464D
:1005C00000F008F802202071256101202071002030
:1005D00070BD0000F0B585B0002605460096019676
:1005E0000296039600681A4988422ED11949C869B3
:1005F00040F00050C861C86900F00050049088695C
:1006000040F0040088618869202700F0040004900D
:100610000320CDE9007069460F4800F0FDFA104C48
:100620000E4820601020C4E901068020E0604000F0
:1006300020618000E661C4E90507204600F076FAF3
:1006400008B1FFF783FFEC60656205B0F0BD000004
:1006500000740040001002400008014044040240C1
:10066000F00500202DE9F0410400069817460D46DC
:100670001BD0617901291BD00126667102212171ED
:10068000C5B1E26824499162E2682449D162E26816
:100690002349116321680A6842F080520A6018B346
:1006A0002268042823D01C3222E00120BDE8F0811A
:1006B0000220FBE7A2681B499162A2681A49D16235
:1006C000A2681A49116321680A6842F480520A60DC
:1006D00020B12268042804D0103203E022680832D6
:1006E00000E00C32A06804E02268143200E0183206
:1006F000E068394600F058FA0021617120B12169A3
:1007000041F004012161D1E721680A6805F0100376
:100710009E4032430A60C9E7D90300082304000859
:1007200001040008C903000819040008E9030008CF
:1007300070B5040017D02068036801F010024FF470
:1007400080559540AB43036020680368012505FA96
:1007500002F29343036041B1D4F80C0000F007F8B3
:100760002571002070BD012070BDA068F6E710B5AE
:1007700090F821100022022905D00421816380F81D
:100780002020012010BD01680B6823F00E030B60D0
:1007900001680B6823F001030B6090F84030C46BD4
:1007A000012101FA03F3636080F8211080F8202012
:1007B000104610BD2DE9F05F90F8211000240229A9
:1007C00003D004218163012485E001680A6822F0D6
:1007D0000E020A6001680A6822F001020A603F4EB8
:1007E0003E4FB215DFF8F4C0DFF8F090DFF8ECA070
:1007F000DFF8E8B0DFF8E4E00168783F13011502A4
:10080000ACF1640CA9F15009AAF13C0AABF1280B38
:10081000AEF1140E4FF48018B14227D9B9420ED070
:10082000614512D049451DD0514518D0594518D0C1
:10083000714501D1424615E0294EB14201D1012254
:1008400010E0274E1436B14201D110220AE0244EA6
:100850002836B14206D0224A3C32914201D11A4692
:1008600000E02A461E49091F0A602BE0B94213D056
:10087000614517D0494522D051451DD059451DD05D
:10088000714501D142461AE0B14202D14FF0807267
:1008900015E0134EB14201D1012210E0104E143682
:1008A000B14201D110220AE00D4E2836B14206D0E5
:1008B0000B4A3C32914201D11A4600E02A460749D0
:1008C00080394A60012180F82110002180F8201031
:1008D000416B01B188472046BDE8F09F800002408F
:1008E000080402402DE9F05FC16B0A6801680B68DB
:1008F000046C4FF0040808FA04F8844D844E854FC8
:10090000DFF814C2DFF81492DFF814A2DFF814B293
:10091000DFF814E218EA020F65D05FEA437862D587
:100920000A68920603D40A6822F004020A60DFF81B
:10093000F0814FF48062016808F114081301140279
:10094000414524D9A9420DD0B1420FD0B9421AD0A5
:10095000614515D0494515D0514501D1120312E02A
:10096000594501D104220EE0714501D140220AE02F
:100970006D4D1435A94206D06B4A2832914201D1FF
:100980001A4600E022466749091F0A6029E0A94289
:1009900013D0B14215D0B94220D061451BD0494592
:1009A0001BD0514502D14FF4800217E0414502D1DE
:1009B0004FF0806212E0594501D104220EE07145EA
:1009C00001D140220AE0584D1435A94206D0564ABA
:1009D0002832914201D11A4600E022464B4908399B
:1009E0004A60C16A71E04FF0020808FA04F818EA98
:1009F000020F70D05FEA83786DD50A68920606D43C
:100A00000A6822F00A020A60012180F82110DFF84A
:100A100010814FF40072016808F1140813011402E8
:100A2000414524D9A9420DD0B1420FD0B9421AD0C4
:100A3000614515D0494515D0514501D1120312E049
:100A4000594501D102220EE0714501D120220AE070
:100A5000354D1435A94206D0334A2832914201D18E
:100A60001A4600E022462F49091F0A6029E0A942E0
:100A700013D0B14215D0B94220D061451BD04945B1
:100A80001BD0514502D14FF4001217E0414502D16D
:100A90004FF0007212E0594501D102220EE071457B
:100AA00001D120220AE0204D1435A94206D01E4A69
:100AB0002832914201D11A4600E0224613490839F2
:100AC0004A60002180F82010816A00291CD0BDE80E
:100AD000F05F0847FFE70825A540154214D01A0724
:100AE00012D50A6822F00E020A6090F84020C36B0B
:100AF000012101FA02F25A60816380F8211000217D
:100B000080F82010016BE0E7BDE8F09F080002408C
:100B10001C000240300002404400024058000240E5
:100B20006C000240080402401C04024030B560B171
:100B30001A4B026814219A4209D2194B1344B3FB91
:100B4000F1F18900016417490AE0012030BD134B1F
:100B50005B421344B3FBF1F1890001640F4908398A
:100B6000C163022180F82110136843F6F0718B43B2
:100B7000F0E901142143D0E902452C4321430469E3
:100B800021434469214384692143194311600021B1
:100B90004163012242770177084630BD08040240D4
:100BA000F8FFFDBF0000024070B5044690F8200039
:100BB000002501280CD0012084F8200094F8216041
:100BC0000020012E06D084F820000225284670BDA2
:100BD000022070BD022684F82160A06320680668A8
:100BE00026F0010606602046FFF726FCE06A002892
:100BF0002068016802D041F00E0106E021F00401F6
:100C000001602068016841F00A0101602068016804
:100C100041F001010160D9E72DE9F84FDFF8C891F3
:100C20000024A9F1040B23460F2709F1040AABF1B4
:100C3000040ED1E00125A54006EA0502AA4276D1BC
:100C4000DFF8A8C14E68A6EB0C0866452BD00DDC7A
:100C5000032E34D005DC36B3012E19D0022E2FD14D
:100C60001BE0112E16D0122E2AD119E0B8F5881FDC
:100C700019D006DCB8F5803F15D0B8F5801F1FD11C
:100C800011E0B8F5001F0ED0B8F5041F18D10AE026
:100C9000CB6815E0CB681B1D12E0CB6808330FE072
:100CA000CB680C330CE08B682BB1012B4FF00803A1
:100CB00003D0456104E0042302E0056100E0002365
:100CC000FF2A01D8064601E000F104064FEA840538
:100CD00001D9A5F12005D6F8008007FA05FC28EA1D
:100CE0000C0803FA05F548EA0508C6F800804D68C7
:100CF000ED0070D53E4DAE6946F00106AE61AD69BE
:100D000024F0030605F0010500953A4D06EB050CAD
:100D1000DCF80850A607360F07FA06F825EA08059A
:100D2000DFF8D480404503D14FF0000825E052E0C1
:100D3000DFF8C880404502D14FF001081DE0DFF820
:100D4000C080404502D14FF0020816E0DFF8B480C1
:100D5000404502D14FF003080FE0DFF8AC8040457A
:100D600002D14FF0040808E0DFF8A080404502D12E
:100D70004FF0050801E04FF0060808FA06F848EAC7
:100D80000508CCF808804D68D9F80060ED024D46A2
:100D900001D5164300E096432E604D68DAF80060F6
:100DA000AD02554601D5164300E096432E604D68CE
:100DB000DBF80060AD035D4601D5164300E09643C5
:100DC0002E604D68DEF80060ED03754601D51643D0
:100DD00000E096432E60641C0A681646E2407FF4E9
:100DE00029AFBDE8F88F0000080401400000111091
:100DF000001002400000014000080140000C0140CA
:100E0000001001400014014000180140001C014086
:100E10008068084000D0012070470AB10161704726
:100E20000904FBE7014880687047000014000020B7
:100E300002488168027811448160704714000020E4
:100E4000074810B5016841F010010160032000F06F
:100E500075F80F2000F006F800F024F8002010BD0F
:100E60000020024070B50D4D04464FF47A71287889
:100E7000B1FBF0F00A490968B1FBF0F000F0DCFAD0
:100E800048B9102C07D200222146501E00F036F837
:100E900000206C6070BD012070BD000014000020B7
:100EA000200000200C4808B5816941F001018161F2
:100EB000816901F001010091C16941F08051C16176
:100EC000C06900F0805000900448416821F0E06162
:100ED00041F00071416008BD001002400000014077
:100EE000002809DB00F01F02012191404009800029
:100EF00000F1E020C0F8001170470000F0B40E4B84
:100F00001B680C46C3F30223C3F10705042D00D967
:100F10000425191D072901D2002300E0DB1E01264C
:100F200006FA05F1491E214099409E40761E164062
:100F30003143F0BC01F0F5BA0CED00E0064900F0D9
:100F4000070208684FF6FF03184040EA0220034AF0
:100F500010430860704700000CED00E00000FA0547
:100F60002DE9F0470F46050061D0434E306800F090
:100F70000700B84209D2306820F0070038433060DB
:100F8000306800F00700B84251D128683B4C810717
:100F900012D5400703D5606840F4E06060602878AF
:100FA000000703D5606840F4605060606068A9681D
:100FB00020F0F000084360602878C00728D06868F7
:100FC000012810D02168022810D0890700292EDAC4
:100FD000616821F0030101436160FFF723FF804650
:100FE00041F288390DE021688903EFE78901EDE7D7
:100FF000FFF718FFA0EB0801494502D90320BDE81F
:10100000F0876068696800F00C00B0EB810FEFD1E9
:10101000306800F00700B8420BD9306820F00700B4
:1010200038433060306800F00700B84201D001203A
:10103000E5E72878400705D56068E96820F4E060B6
:10104000084360602878000706D56068296920F4A5
:10105000605040EAC100606000F038F86168084AFA
:10106000C1F30311515CC840064908600648006896
:10107000FFF7F8FE0020C2E7002002400010024007
:101080007C87000820000020180000200448054943
:1010900000684968044AC1F30221515CC8407047A6
:1010A00020000020001002408C87000804480549F9
:1010B00000684968044AC1F3C221515CC8407047C6
:1010C00020000020001002408C8700080E4A516862
:1010D0000E4801F00C03042B11D0082B0FD10C4843
:1010E000C1F38343C903C05C0AD55168084AC1F300
:1010F0004041921E515C054A5043B0FBF1F07047ED
:1011000004494843704700000010024000127A0072
:101110006C87000800093D002DE9F84F040070D0ED
:101120002078C04DC00749D06868C0F3810001280D
:1011300007D06868C0F38100022809D16868C0033D
:1011400006D52868800339D560680028E7D035E0E7
:101150006068B0F5803F0BD010B1B0F5A02F11D072
:10116000286820F480302860286820F4802002E07D
:10117000286840F480302860606890B1FFF752FE24
:1011800006460AE0286840F480202860F0E700BFA7
:10119000FFF748FE801B642873D828688003F7D5C2
:1011A0000CE0FFF73FFE064605E000BFFFF73AFE02
:1011B000801B6428F0D828688003F7D420789A4EE2
:1011C00080074FF001094FF0000839D5686810F02A
:1011D0000C0F07D06868C0F38100022809D1686845
:1011E000C00306D42868800714D52069012808D1D7
:1011F00010E02069B0B1C6F80090FFF713FE074673
:1012000005E00AE1FFF70EFEC01B0228C4D82868DB
:101210008007F7D52868616920F0F80040EAC1002E
:1012200028600DE0C6F80080FFF7FCFD074604E0EB
:10123000FFF7F8FDC01B022823D828688007F7D4E1
:10124000207800072CD57948A169D9B1C0F8009061
:10125000FFF7E8FD074604E0FFF7E4FDC01B0228A6
:101260000FD8686A8007F7D571484FF4FA510068C3
:10127000B0FBF1F0009000BF0098411E0091FAD23F
:101280000EE080E0C0F80080FFF7CCFD074604E0E8
:10129000FFF7C8FDC01B022875D8686A8007F7D41D
:1012A0002078400760D5E8690027C00008D4E869C5
:1012B00040F08050E861E869012700F0805000901C
:1012C0005C480168C90513D40168834641F4807104
:1012D0000160FFF7A7FD824606E000BFFFF7A2FD11
:1012E000A0EB0A0064284ED8DBF80000C005F5D555
:1012F000E06801280AD008B1052813D0286A20F038
:1013000001002862286A20F0040002E0286A40F008
:1013100001002862E06841F2883B98B1FFF782FD46
:1013200082460BE0286A40F004002862EEE700BF26
:10133000FFF778FDA0EB0A0159455AD8286A8007C3
:10134000F6D50CE0FFF76EFD824605E0FFF76AFD7B
:10135000A0EB0A0159454CD8286A8007F6D41FB182
:10136000E86920F08050E861E06988B36968C1F3FA
:101370008101022944D00228C6F8608004D0FFF71A
:1013800051FD044638E034E0FFF74CFD074604E029
:10139000FFF748FDC01B02282BD828688001F7D42E
:1013A000206AB0F5803F05D16868A16820F400305C
:1013B00008436860D4E908010843696821F474119E
:1013C00008436860C6F86090FFF72CFD044606E00D
:1013D00025E000BFFFF726FD001B022809D828687A
:1013E0008001F7D51BE000BFFFF71CFD001B0228A2
:1013F00002D90320BDE8F88F28688001F4D40EE0FC
:101400000128F7D06868226A00F48031914204D143
:10141000616A00F47010884201D00120EAE70020E0
:10142000E8E700000010024000004242800442420F
:10143000200000200070004010B5401EB0F1807FF9
:1014400001D3012010BD4FF0E02460610F2160172F
:1014500001F067F80020A06107202061002010BD86
:1014600070B590F83C20012A2CD0012480F83C4033
:10147000022280F83D2003685A689D6822F07006B9
:101480000A6832435A60104B02689A420ED00F4BE2
:101490009A420BD0B2F1804F08D00D4B9A4205D042
:1014A0000C4B9A4202D00C4B9A4204D1496825F069
:1014B00080031943916080F83D40002180F83C1082
:1014C000084670BD022070BD002C01400034014070
:1014D0000004004000080040000C004010B504006B
:1014E00003D094F83D0010B107E0012010BD0020AA
:1014F00084F83C00204600F01FF8022084F83D00EC
:10150000211D206800F058FD012084F8460084F871
:101510003E0084F83F0084F8400084F8410084F8DD
:10152000420084F8430084F8440084F8450084F8BD
:101530003D00002010BD000008B500680649884243
:1015400008D10648C16941F01001C161C06900F0CD
:101550001000009008BD0000001000400010024084
:1015600090F83D10012901D001207047022180F838
:101570003D1000680E4988420ED00E4988420BD0BB
:10158000B0F1804F08D00C49884205D00B49884201
:1015900002D00B49884204D1816801F00701062975
:1015A00003D0016841F00101016000207047000094
:1015B000002C0140003401400004004000080040BD
:1015C000000C004000B585B000210091019102910E
:1015D00003910068B0F1804F10D10948816941F052
:1015E000040181618069694600F0040004900220D2
:1015F0000090019003900348FFF70EFB05B000BD7B
:10160000001002400008014070B5044690F83C000C
:1016100000260D4601280FD0012084F83C006AB155
:10162000042A1DD0082A2FD00C2A3FD001260020E2
:1016300084F83C00304670BD022070BD206800F088
:101640000FFD2068816941F008018161206881698E
:1016500021F004018161206881692A69114311E048
:10166000206800F02DFD2068816941F400618161EE
:101670002068816921F480618161206881692A691B
:1016800041EA02218161D2E7206800F04FFD206825
:10169000C16941F00801C1612068C16921F00401FC
:1016A000C1612068C1692A69114311E0206800F016
:1016B00071FD2068C16941F40061C1612068C169A0
:1016C00021F48061C1612068C1692A6941EA02216F
:1016D000C161ACE710B5040003D094F83D0010B12F
:1016E00007E0012010BD002084F83C00204600F0F7
:1016F0001FF8022084F83D00211D206800F05CFCEA
:10170000012084F8460084F83E0084F83F0084F805
:10171000400084F8410084F8420084F8430084F8D3
:10172000440084F8450084F83D00002010BD00000E
:1017300008B50068B0F1804F08D10548C16941F093
:101740000101C161C06900F00100009008BD000006
:101750000010024010B50446022249B104290ED0FF
:10176000082913D094F84100012816D0012010BD9B
:1017700094F83E000128F9D184F83E200FE094F857
:101780003F000128F2D184F83F2008E094F840009F
:101790000128EBD184F8402001E084F841200122A7
:1017A000206800F04FFC13492068134A884201D09A
:1017B000904203D1436C43F4004343642068884261
:1017C0000DD090420BD0B0F1804F08D00B49884229
:1017D00005D00B49884202D00A49884204D1816869
:1017E00001F00701062903D0016841F00101016001
:1017F000002010BD002C01400034014000040040D6
:1018000000080040000C004070477047F8B50168C0
:1018100004460868CA684B6910F00F0F4FF00005C6
:1018200059D003F0010602F49077374365D0C10721
:1018300005D0D10503D5616C41F001016164410718
:1018400005D5D90703D0616C41F0020161648107BD
:1018500005D5D90703D0616C41F00401616401072B
:1018600007D502F02001314303D0616C41F008013B
:101870006164616C00293AD0800604D5900602D5D7
:10188000204600F01EFD20684069616CC0F38010A6
:10189000090700D460B3204600F0ECFC20684069E2
:1018A000400621D52068143050E8001F21F0400187
:1018B00040E80012002AF5D1E06BA8B16D49416300
:1018C000E06BFEF777FF002811D0E06B416B01B0B1
:1018D000BDE8F040084783060FD593060DD5204696
:1018E000BDE8F84000F0EDBC2046FFF78EFFF8BDE4
:1018F0002046FFF78AFF6564F8BD266B2023012E82
:101900007CD1C6067AD5D60678D508684868009096
:1019100048694FF00206400640D5E16B0868406810
:101920000004000CE8D0A28D8242E5D9E0858869E8
:1019300020282DD020680C3050E8001F21F4807141
:1019400040E80012002AF5D12068143050E8001F4A
:1019500021F0010140E80012002AF5D1206814307E
:1019600050E8001F21F0400140E80012002AF5D1A4
:1019700084F84230256320680C3050E8001F21F0C5
:10198000100140E80012002AF5D1E06BFEF7EFFEEF
:101990006663A08DE18D401A81B22AE0A08DE18DB1
:1019A000401A81B2E08D0028A6D00029A4D0226878
:1019B0000C3252E8000F20F4907042E80007002F2C
:1019C000F5D12068143050E8002F22F0010240E8E1
:1019D0000027002FF5D184F84230256320680C30B1
:1019E00050E8002F22F0100240E80023002BF5D130
:1019F00066632046FFF708FFF8BDFFE705062BD515
:101A0000150629D594F841002128F5D1A068B0F534
:101A1000805F01D12069B0B1206A411C2162216838
:101A200000784860E08C401E0004000CE084E3D1A4
:101A30002068C16821F08001C1602068C16841F060
:101A40004001C160D8E7206A0088C0F30800486000
:101A5000206A801C2062E5E74006CDD55006CBD534
:101A6000CA68204622F04002CA6084F8413000F083
:101A700040F9C1E76522000870B5040004D094F86D
:101A80004100002510B106E0012070BD84F84050EF
:101A9000204600F023F8242084F841002068C16823
:101AA00021F40051C160204600F06CFC20680169FF
:101AB00021F4904101612068416921F02A014161CE
:101AC0002068C16841F40051C1606564202084F839
:101AD000410084F842006563002070BD30B585B0D8
:101AE00000240094019402940394006818498842E9
:101AF0002CD11848816941F480418161816901F4E8
:101B000080410491816941F0040181618069124D35
:101B100000F0040004904FF4007000900220019047
:101B20000320039069462846FFF776F82815CDE98B
:101B30000004694628460294FFF76EF80022114619
:101B40002520FFF7DBF92520FFF7CAF905B030BDE6
:101B500000380140001002400008014090F8423077
:101B6000202B01D00220704721B11AB1002303635A
:101B700000F064BC012070472DE9F04100682C4959
:101B800088424DD12B4C00268F1520784FF6FF75DB
:101B9000FF280BD3267039462748FEF782FB2B46D9
:101BA0000A2226A1284800F057F839E02249227974
:101BB0000A54401CC2B28818227010F8011C0A296D
:101BC0002ED110F8020C0D282AD12B461A491E4896
:101BD00000F042F801221DA11748FEF717FB20B9BB
:101BE00001206070284601F0D3F8012218A11248A4
:101BF000FEF70CFB20B902206070284601F0C8F8FF
:101C0000012214A10C48FEF701FB20B903206070EB
:101C1000284601F0BDF8267039460748FEF741FB1B
:101C2000BDE8F04103490122091D0748FFF796BFAF
:101C30000038014000000020DC040020CAFDBEDDA9
:101C4000D2E7B3F600000000C40600205A000000EE
:101C500053000000430000002DE9F843044690F8CB
:101C600041001F4616460D46202802D00220BDE83E
:101C7000F8837DB176B100206064212084F84100B2
:101C8000FFF7D0F8A6848046E684A068B0F5805FB0
:101C900002D003E00120EAE7206910B12E460025BA
:101CA0000EE000260CE08021204600F0E2FBA0B907
:101CB000AEB116F8010B21684860E08C401EE0844C
:101CC000E08C43464FF0000200970028EBD14FF024
:101CD0004001204600F0CDFB30B10320C7E735F8C6
:101CE000020BC0F30800E6E7202084F84100002042
:101CF000BDE77047FEE700001CB500200D490090CD
:101D000001900B4808600846FEF74FFC08B1FEF74B
:101D10001DFC042000900220019010226946054815
:101D2000FEF719FC002801D0FEF710FC1CBD0000D6
:101D300000740040DC050020094808B5416941F005
:101D4000020141614069002200F00200009011464A
:101D50003B20FFF7D3F8BDE808403B20FFF7C0B8B1
:101D60000010024030B585B000241748009401945B
:101D700002940394816941F020018161816901F03D
:101D800020010491816941F00401816180690F4D56
:101D900000F004000490002280212846FFF73DF85F
:101DA000012211022846FFF738F84FF4C070009066
:101DB0000120CDE901040220039069462846FEF780
:101DC0002BFF05B030BD00000010024000080140AC
:101DD00010B58AB0002407941C2168460894FEF7C9
:101DE00082FA16484FF08041016041F61F41C0E978
:101DF0000114C721C0E903148461FFF76BFC08B12B
:101E0000FEF7A4FB079407A90C480894FFF728FBEA
:101E100008B1FEF79BFB6020CDE900040294042288
:101E2000694606480494FFF7EFFB08B1FEF78EFB06
:101E30000248FFF7C7FB0AB010BD000034060020BF
:101E40001CB500240E4800940C490194C0E900140C
:101E5000EF21C0E902418461FFF740FB08B1FEF7C2
:101E600075FB2020CDE9000469460548FFF7F8FA24
:101E7000002801D0FEF76AFB1CBD000000100040E6
:101E80007C0600200C4810B50A4901604FF4E1318E
:101E90004160002181600C22C160C0E904128161AF
:101EA000C161FFF7E9FD002803D0BDE81040FEF74F
:101EB0004DBB10BD00380140C4060020FEE7FEE720
:101EC000704770472DE9F74F002683463446354664
:101ED00005F0C8FE02460B461A481B4905F0F6FC01
:101EE000804689462AE02046294605F0BDFB0022AF
:101EF000164B05F03BFC07468A46019806F0BAF8F7
:101F00004FF0FF3206F0EBFB3A46534605F0BEFEBB
:101F10000C2206F0E4FB4FF066320D4B05F0D6FCC8
:101F200005F05CFE029942464B4621F81600204619
:101F3000294605F01BFC04460D46761C5E45D2D3AF
:101F4000BDE8FE8F4AD8124DFB2119400000F03F3A
:101F500066660A40FEF76CBF30B58FB02821684630
:101F6000FEF7C1F914210AA8FEF7BDF90121080402
:101F7000CDE900100024029402250491CDE9075018
:101F80004FF4E01009906846FFF7C6F808B172B642
:101F9000FEE70F20CDE90A054FF48060CDE90C4043
:101FA00002210AA80E94FEF7DBFF002801D072B6CA
:101FB000FEE70FB030BD7047F0B502681C4B1D4DF9
:101FC0001D4E1E4F1E4C4FF0804C984209D0A0422F
:101FD00007D0604505D0A84203D0B04201D0B84236
:101FE00004D122F0700E4A6842EA0E02984209D0EB
:101FF000A04207D0604505D0A84203D0B04201D02E
:10200000B84203D122F44075CA682A434D6922F0D0
:1020100080022A4302608A68C2620A688262984229
:1020200001D0A04201D10969016301214161F0BDE4
:10203000002C01400004004000080040000C00405B
:102040000034014010B501F01F030121046A9940DA
:102050008C430462016A9A401143016210BD000082
:10206000F0B5036A026A22F00102026242688469E2
:10207000124E24F073050C682C4323F002058B6884
:102080002B430D4DA84201D0B04205D123F00807E3
:10209000CB683B4323F00403A84201D0B04205D1F2
:1020A0004D6922F4407215438A692A434260846173
:1020B000496841630362F0BD002C014000340140D7
:1020C000F0B5026A036A23F010030362436884696F
:1020D0000D6824F4E64444EA05248D6822F02002C9
:1020E00042EA05120F4D104EA84201D0B04206D16F
:1020F000CF6822F0800242EA071222F04002A84292
:1021000001D0B04207D14D6923F4406343EA85030F
:102110008D6943EA85034360846149688163026293
:10212000F0BD0000002C014000340140F0B5026A0F
:10213000036A23F4807303624368C46922F4007263
:1021400024F073050C68124E2C438D6842EA052278
:102150000E4DA84201D0B04206D1CF6822F40062F1
:1021600042EA072222F48062A84201D0B04207D19D
:102170004D6923F4405343EA05138D6943EA05137F
:102180004360C4614968C1630262F0BD002C014034
:102190000034014030B5046A026A22F480520262BF
:1021A0004268C3690D6823F4E64343EA05238D685A
:1021B00024F4005444EA0534084DA84202D0084DE6
:1021C000A84204D14D6922F4804242EA851242605D
:1021D000C36149680164046230BD0000002C014005
:1021E000003401402DE9F047002417468946064691
:1021F000450830E0AC420EDA204606F0C7F88046CB
:10220000284606F0C3F80146484605F0C1FF41469E
:1022100006F0E8F810E0601B06F0B8F880462846A3
:1022200006F0B4F80146484605F0B2FF414606F014
:10223000D9F8494606F0A2F905F01CFF0C2206F079
:102240004EFA4FF06632064B05F040FB05F0C6FC37
:1022500027F81400641CB442CCD3BDE8F08700001A
:1022600066660A4010B5406A0021C185C184FFF747
:10227000CCFA10BD01680C3151E8002F22F49072A5
:1022800041E80023002BF5D10168143151E8002FFB
:1022900022F0010241E80023002BF5D1016B012956
:1022A00009D101680C3151E8002F22F0100241E8F9
:1022B0000023002BF5D1202180F84210002101637A
:1022C000704708B590F84210222901D0022008BDBD
:1022D00082684FF480539A4201D1016921B1816A29
:1022E0009A421BD04AB10AE00268816A5268C2F37E
:1022F00008020A80816A891C08E0026972B10268DA
:10230000526802F07F020A70816A491C8162C18DA5
:10231000491E0904090CC18503D01BE002685268FC
:10232000F1E70168CA6822F02002CA600168CA6841
:1023300022F48072CA6001684A6922F001024A618F
:10234000202180F8421000214163026B012A03D052
:10235000FFF712FC002008BD016301680C3151E851
:10236000002F22F0100241E80023002BF5D1016874
:102370000A68D20602D50A6849680091818DFFF784
:1023800043FAE7E770B5044600680169E26821F4A2
:102390004051114301612169A06808436169084304
:1023A0002168CA6841F20C639A430243CA602068FC
:1023B0004169A26921F44071114341611E492068BD
:1023C000884202D1FEF772FE01E0FEF75FFE00EBED
:1023D000C00101EB0012606864218000B2FBF0F3E1
:1023E000B3FBF1F36FF018067343B2FBF0F5B2FBE9
:1023F000F0F605EB8305322303EB0515B5FBF1F58C
:10240000B6FBF1F605F0F00505EB0615B2FBF0F6AC
:10241000B2FBF0F0B0FBF1F06FF01802504306EBA6
:10242000800003EB0010B0FBF1F0216800F00F001A
:102430002844886070BD00000038014081628285B8
:10244000C28500214164222180F84210016921B136
:102450000168CA6842F48072CA6001684A6942F041
:1024600001024A610068C16841F02001C16000209A
:1024700070472DE9F041984617460E460446069DE2
:1024800027E0681C25D02DB1FEF7CCFCA0EB08009E
:10249000A8421ED920680C3050E8001F21F4D071EA
:1024A00040E80012002AF5D12068143050E8001FDF
:1024B00021F0010140E80012002AF5D1202084F823
:1024C000410084F84200002084F840000320BDE869
:1024D000F0812068006836EA000004D00020B8428D
:1024E000CFD00020F3E70120F9E700000148FFF713
:1024F0008DB90000C4060020FEE7490050EAC12063
:1025000018BF04204A0D18BF40F0010040F2FF72CE
:10251000B2EB515F08BF40F00200012808BF052060
:1025200070470907090E002804DB00F1E02080F85D
:102530000014704700F00F0000F1E02080F8141D37
:10254000704700002DE9F74F144694B00021C4E90C
:1025500002111599079121F00045C9498D4206DC09
:102560001599C4E9000117B00020BDE8F08FC549F6
:10257000DFF814A3A9423CDD0799C44E0029C44FDB
:10258000C44A1599534619DD05F08AFC554506D015
:10259000C14AC24B05F084FCC4E900010AE04FF0D7
:1025A000D352BE4B05F07CFC32463B4605F078FC2E
:1025B000C4E9000117B00120BDE8F08F05F0D6F89E
:1025C000554506D0B44AB54B05F0D0F8C4E9000132
:1025D0000AE04FF0D352B14B05F0C8F832463B4603
:1025E00005F0C4F8C4E9000117B04FF0FF30BDE8B2
:1025F000F08FAB49A942159978DB21F00041834661
:102600008846A84AA84B05F041FB0022A74B05F0DD
:10261000ADF805F0B3FA099005F00DFB06460F463C
:102620009C4A534605F032FB43465A4605F02CFCC3
:1026300080468A46984A994B3046394605F026FB33
:102640002A0D01250B924246534605F01DFC032D31
:10265000C4E9000139D00B98C1F30A51401A05EBC7
:1026600045111139814230DA9148C346784400EB74
:102670000510CDF80CA00C90D0E900233046394667
:1026800005F004FB02460B46049106905846039958
:1026900005F006FC80468A4602460B4658460399DA
:1026A00005F0FEFB049B069A05F0FAFB83460C98A6
:1026B00003913946D0E90223304605F0E7FA5A463D
:1026C000039B05F0EDFB6D1CBDE707980028A2BF3A
:1026D000099817B0BDE8F08F616881F00041616032
:1026E000099817B04042BDE8F08FFFE7844615987F
:1026F000C1F31301C0F30A50A0F2F5304FEA60189D
:1027000000F01F06C6F120001390002006900790ED
:1027100041F4801E05206D4676B1664A08EB000143
:102720007A4452F8213002EB8101B3404A68139990
:1027300022FA01F1194305E05F4908EB00027944F0
:1027400051F82210A1FB0E27A1FB0C131A449A4248
:1027500034BF0123002303EB070A05EB8003D3E911
:1027600001B70F448F4234BF0121002193448B44B1
:1027700011B1934502D903E0934501D2012100E054
:102780000021C3E901B7514445F82010011EA0F112
:102790000100C1DC0298059F00F10050800F1290EB
:1027A0000298DDE90356800005F045FA8346284685
:1027B0000D9105F057FA6FF01D0205F090FFCDE97D
:1027C0000E01304605F04EFA6FF03D0205F087FF2E
:1027D00080468A46384605F045FA6FF05D0205F0FE
:1027E0007EFF074642465346119104F0BFFFDDE9E4
:1027F0000E2304F0BBFF5A460D9B04F0B7FF0025E3
:102800000E465A4628460D9B05F04AFBDDE90E238D
:1028100005F046FB4246534605F042FB3A46119B03
:1028200005F032FBDFF898A0244A534605F02EFA53
:1028300007468846234A244B3146284605F026FAA7
:102840003A46434604F092FF074688464FF0A842B6
:1028500053463146284605F019FA3A46434604F0F5
:1028600085FF159A12F0004F04D0129A81F00041B2
:1028700052421292C4E90001129817B0BDE8F08FDD
:10288000FB21E93F7CD90240FB21F93F7370032E05
:102890008A19A33B000040543163621A61B4D03DF1
:1028A000FB21394183C8C96D305FE43F0000E03F40
:1028B00068990000E4980000C6980000182D445460
:1028C000FB21F93D3326A611460B113C2DE9FF4DA6
:1028D00021F0004807460C46B8F1795F08DA05F0A8
:1028E0004DF9002801BF0020324904B0BDE8F08D49
:1028F0003A4623461046194605F0C8F905460246F1
:102900002D480E460B460621784400F05DF82A4615
:10291000334605F0BBF9DDE9022382468B46384693
:10292000214605F0B3F904460F4652465B46284659
:10293000314605F0ABF922463B4605F0B1FA0746B1
:102940008A464FF0FF322846314605F0C8FE1B4A42
:1029500090450ADA3A46534605F0A2FA04B000223E
:10296000BDE8F04D134B05F08FBA154A4245A8BF9C
:10297000A8F500154FF00004B8BF124D22462B46B3
:1029800005F08EFA0646884622462B460020094965
:1029900005F086FA04460D463A465346304641460F
:1029A00005F07EFA04B022462B46BDE8F04D05F056
:1029B0006BBA00000000F03F9C9600003333D33F19
:1029C0000000E93F0000D23F2DE9F0414F1E00EB2F
:1029D000C7010446D1E9000115461E4637F006023C
:1029E0000DD02A46334605F051F97F1E04EBC7038C
:1029F000D3E9002304F0BAFE37F00602F1D1022F2A
:102A000025D0042F13D0062F18BFBDE8F0812A4629
:102A1000334605F03BF9D4E90A2304F0A7FE2A4621
:102A2000334605F033F9D4E9082304F09FFE2A4623
:102A3000334605F02BF9D4E9062304F097FE2A4625
:102A4000334605F023F9D4E9042304F08FFE2A4627
:102A5000334605F01BF9D4E9022304F087FE2A4629
:102A6000334605F013F9D4E90023BDE8F04104F042
:102A70007DBE00002DE9FF4D054621F0004084B0E9
:102A80000C46B0F1795F0BDA2846FFF736FD0428D3
:102A900008BF00F06FF8284608B02146BDE8F08D69
:102AA0002A460B46104605F0F1F806460F462A4620
:102AB000234605F0EBF8804626488A4632463B46D8
:102AC00005217844FFF780FF83461098029160B398
:102AD000214A224B4046514605F0D8F8CDE9000185
:102AE0005A4640465146029B05F0D0F88246884639
:102AF000DDE906014FF0FF3205F0F1FD5246434695
:102B000005F0CEF932463B4605F0C0F8DDE9062374
:102B100005F0C6F9DDE9002305F0C2F908B02A4640
:102B20002346BDE8F04D05F0AFB90B465A46304696
:102B3000394605F0ABF8084A084B04F017FE424648
:102B4000534605F0A3F808B02A462346BDE8F04DE9
:102B500004F00CBEDA950000495555555555C5BFD2
:102B6000012205F0BCBD002213461046114604F0B8
:102B7000ADBE0000024A0020110705F0B0BD000004
:102B800001FDFFFF034A11681368CB1A8342FBD390
:102B9000704700001C0000202DE9F04178273E46D8
:102BA0000024164D25E000BFC4EB04110901B1FB60
:102BB000F0F002B24FF49670B4FBF0F100FB11405C
:102BC0000F4931F810007843C11700EB115016EB94
:102BD000203001D5002004E0B0F5A07F01DB40F2F9
:102BE0003F1081B290B24FF4784200F07DF9641C3E
:102BF000A4B2E8888442D7D3BDE8F0810000002069
:102C00002C0000202DE9F04178273E460024154D88
:102C100022E000BF04EB84018901B1FBF0F002B2B5
:102C20004FF49670B4FBF0F100FB11400E4931F8FF
:102C300010007843C11700EB115016EB203000D57F
:102C40000022F02800DBEF2081B290B24FF47842EE
:102C500000F04AF9641CA4B2E8888442DAD3BDE8E3
:102C6000F08100000000002084020020F0B51B4825
:102C700085B0816941F010018161816901F0100125
:102C80000491816941F004018161816901F00401CD
:102C90000491816941F0040181618069002400F0A0
:102CA000040004902020012503268DE87100694668
:102CB0000B48FDF7B1FFE8038DE87100094F694645
:102CC0003846FDF7A9FF022003960095CDE90140A3
:102CD00069463846FDF7A0FF05B0F0BD0010024080
:102CE00000100140000801402DE9F0470024254D67
:102CF000DFF89480254E01274FF4004908B12F706A
:102D000001E0287878B120214046FEF781F888B1AB
:102D100049463046FEF77CF860B101213046FEF7A7
:102D200077F8012806D020214046FEF771F80128E7
:102D300019D024E00A20FFF725FF00202870202169
:102D40004046FEF765F800B9012449463046FEF7D3
:102D50005FF800B9022401213046FEF759F8012836
:102D60000DD103240BE049463046FEF751F8012807
:102D700005D101213046FEF74BF800B92F702046EF
:102D8000BDE8F08728000020001001400008014045
:102D9000F8B5174F0646002438887D8821464543FC
:102DA000204603F071FF3889ADF8000011494FF05B
:102DB0008070086147000F61BDF800200E48026076
:102DC000BA100A6180230B614FF4007CC1F810C077
:102DD0004FF4807EC1F810E00F6103E006600A61E5
:102DE0000B61641CAC42F9D3C1F810C0F8BD0000FF
:102DF0000C070020001001400C0C01402DE9F04FA1
:102E000038492C260A46887192884FF4305A4FF47C
:102E1000285B41F6631E2B274FF02A0C4FF0F00879
:102E200045F210594FF448754FF4A0744FF4F07305
:102E300058B10C80A1F802804A4530D1A1F808A011
:102E4000A1F80AB03802888141E0A1F800804C80E6
:102E50004A4507D1A1F808A0A1F80AB04FF42C50B8
:102E6000888105E072450E8105D14F81A1F80CC023
:102E70000B804D8002E0A1F80AC08F81A2F5A64028
:102E8000103803D0A2F5EE40963801D10C804B806B
:102E9000A2F5184006381FD10B804D801CE072450A
:102EA00011D0A2F5184006380DD00E81A1F80AC045
:102EB000A1F80C70A2F5A64010380BD0A2F5EE4098
:102EC000963807D008E00E81A1F80AC08F810D80E6
:102ED0004B80EFE70B804C80BDE8F04F002003F003
:102EE00051BD00000C070020F8B5144603F0CCFEDD
:102EF0000D480089ADF800000C484FF08071016169
:102F000049000161BDF80030094A13608B1003616C
:102F1000802505614615066187150761016114600A
:102F2000036105610661F8BD0C0700200010014037
:102F30000C0C01402DE9F84FCF20ADF80000FF4CFC
:102F40004FF0807525616E002661BDF80010DFF836
:102F5000F0A3CAF800106F1027614FF08008C4F882
:102F600010804FF40079C4F81090002004F016F996
:102F7000C12004F013F9302004F010F9ED20ADF871
:102F8000000025612661BDF80010CAF80010276115
:102F9000C4F81080C4F81090642004F0FFF80320F7
:102FA00004F0FCF8122004F0F9F8812004F0F6F89F
:102FB000E820ADF8000025612661BDF80010CAF8D0
:102FC00000102761C4F81080C4F81090852004F028
:102FD000E5F8102004F0E2F87A2004F0DFF8CB20C6
:102FE000ADF8000025612661BDF80010CAF8001098
:102FF0002761C4F81080C4F81090392004F0CEF88E
:103000002C2004F0CBF8002004F0C8F8342004F0A1
:10301000C5F8022004F0C2F8F720ADF800002561E1
:103020002661BDF80010CAF800102761C4F81080AE
:10303000C4F81090202004F0B1F8EA20ADF80000A8
:1030400025612661BDF80010CAF800102761C4F898
:103050001080C4F81090002004F0A0F8002004F0C4
:103060009DF8C020ADF8000025612661BDF8001074
:10307000CAF800102761C4F81080C4F810901B2013
:1030800004F08CF8C120ADF8000025612661BDF880
:103090000010CAF800102761C4F81080C4F810901E
:1030A000012004F07BF8C520ADF800002561266101
:1030B000BDF80010CAF800102761C4F81080C4F8E9
:1030C0001090302004F06AF8302004F067F8C72030
:1030D000ADF8000025612661BDF80010CAF80010A7
:1030E0002761C4F81080C4F81090B72004F056F897
:1030F0003620ADF8000025612661BDF80010CAF841
:1031000000102761C4F81080C4F81090482004F023
:1031100045F83A20ADF8000025612661BDF80010A1
:10312000CAF800102761C4F81080C4F81090552028
:1031300004F034F8B120ADF8000025612661BDF837
:103140000010CAF800102761C4F81080C4F810906D
:10315000002004F023F81A2004F020F8B620ADF87F
:10316000000025612661BDF80010CAF80010276133
:10317000C4F81080C4F810900A2004F00FF8A220C0
:1031800004F00CF8F220ADF8000025612661BDF8CE
:103190000010CAF800102761C4F81080C4F810901D
:1031A000002003F0FBFF2620ADF80000256126611A
:1031B000BDF80010CAF800102761C4F81080C4F8E8
:1031C0001090012003F0EAFFE020ADF80000256137
:1031D0002661BDF80010CAF800102761C4F81080FD
:1031E000C4F810900F2003F0D9FF2A2003F0D6FF77
:1031F000282003F0D3FF082003F0D0FF0E2003F0B7
:10320000CDFF082003F0CAFF542003F0C7FFA92018
:1032100003F0C4FF432003F0C1FF0A2003F0BEFF08
:103220000F2003F0BBFF002003F0B8FF002003F0E5
:10323000B5FF002003F0B2FF002003F0AFFFE12054
:10324000ADF8000025612661BDF80010CAF8001035
:103250002761C4F81080C4F81090002003F09EFF8E
:10326000152003F09BFF172003F098FF072003F0C1
:1032700095FF112003F092FF062003F08FFF2B2013
:1032800003F08CFF562003F089FF3C2003F086FFFB
:10329000052003F083FF102003F080FF0F2003F0D0
:1032A0007DFF3F2003F07AFF3F2003F077FF0F20E0
:1032B00003F074FF2B20ADF8000025612661BDF8F6
:1032C0000010CAF800102761C4F81080C4F81090EC
:1032D000002003F063FF002003F060FF012003F0F3
:1032E0005DFF3F2003F05AFF2A20ADF80000256162
:1032F0002661BDF80010CAF800102761C4F81080DC
:10330000C4F81090002003F049FF002003F046FFAE
:10331000002003F043FFEF2003F040FF1120ADF841
:10332000000025612661BDF80010CAF80010276171
:10333000C4F81080C4F81090782003E00010014019
:103340000C0C0140FFF71EFC2920ADF800002561A0
:103350002661BDF80010CAF800102761C4F810807B
:10336000C4F81090BDE8F88F2DE9F84FFF20ADF8B4
:103370000000FF4C4FF0807525616E002661BDF89E
:103380000010DFF8F0A3CAF800106F1027614FF0AB
:103390008008C4F810804FF40079C4F8109003F04E
:1033A000FDFE982003F0FAFE062003F0F7FEBC2095
:1033B000ADF8000025612661BDF80010CAF80010C4
:1033C0002761C4F81080C4F81090012003F0E6FED5
:1033D0000F2003F0E3FE612003F0E0FEFF2003F086
:1033E000DDFE012003F0DAFE012003F0D7FE0B2002
:1033F00003F0D4FE102003F0D1FE372003F0CEFE00
:10340000632003F0CBFEFF2003F0C8FEFF2003F093
:10341000C5FE012003F0C2FE012003F0BFFE002024
:1034200003F0BCFE002003F0B9FEFF2003F0B6FE5F
:10343000522003F0B3FE012003F0B0FE002003F0A1
:10344000ADFE402003F0AAFEBD20ADF800002561CE
:103450002661BDF80010CAF800102761C4F810807A
:10346000C4F81090012003F099FE232003F096FE8B
:10347000452003F093FE672003F090FE012003F047
:103480008DFE232003F08AFE452003F087FE67208F
:1034900003F084FEBE20ADF8000025612661BDF872
:1034A0000010CAF800102761C4F81080C4F810900A
:1034B000002003F073FE012003F070FEAB2003F048
:1034C0006DFE602003F06AFE222003F067FE2220DA
:1034D00003F064FE222003F061FE222003F05EFE72
:1034E000222003F05BFEC720ADF8000025612661B5
:1034F000BDF80010CAF800102761C4F81080C4F8A5
:103500001090362003F04AFEED20ADF80000256152
:103510002661BDF80010CAF800102761C4F81080B9
:10352000C4F810907F2003F039FE0F2003F036FE20
:10353000C020ADF8000025612661BDF80010CAF872
:1035400000102761C4F81080C4F810900F2003F019
:1035500025FE0B2003F022FE0A2003F01FFEFC20B4
:10356000ADF8000025612661BDF80010CAF8001012
:103570002761C4F81080C4F81090082003F00EFEF4
:10358000DF20ADF8000025612661BDF80010CAF803
:1035900000102761C4F81080C4F81090002003F0D8
:1035A000FDFD002003F0FAFD002003F0F7FD0020F0
:1035B00003F0F4FD002003F0F1FD202003F0EEFD08
:1035C000F320ADF8000025612661BDF80010CAF8AF
:1035D00000102761C4F81080C4F81090742003F024
:1035E000DDFDB420ADF8000025612661BDF80010B6
:1035F000CAF800102761C4F81080C4F810900020A9
:1036000003F0CCFD002003F0C9FD002003F0C6FD4F
:10361000F720ADF8000025612661BDF80010CAF85A
:1036200000102761C4F81080C4F81090822003F0C5
:10363000B5FDB120ADF8000025612661BDF8001090
:10364000CAF800102761C4F81080C4F81090002058
:1036500003F0A4FD132003F0A1FD132003F09EFD51
:10366000F220ADF8000025612661BDF80010CAF80F
:1036700000102761C4F81080C4F81090802003F077
:103680008DFD042003F08AFD402003F087FD2820F3
:1036900003F084FDC120ADF8000025612661BDF86E
:1036A0000010CAF800102761C4F81080C4F8109008
:1036B000172003F073FD882003F070FD882003F0CD
:1036C0006DFD202003F06AFDE020ADF800002561CB
:1036D0002661BDF80010CAF800102761C4F81080F8
:1036E000C4F81090002003F059FD0A2003F056FDA5
:1036F000122003F053FD102003F050FD0E2003F0C4
:103700004DFD202003F04AFDCC2003F047FD0720AB
:1037100003F044FD062003F041FD0B2003F03EFDC5
:103720000E2003F03BFD0F2003F038FD0D2003F0C9
:1037300035FD152003F032FD102003F02FFD002091
:1037400003F02CFDE120ADF8000025612661BDF8F5
:103750000010CAF800102761C4F81080C4F8109057
:10376000002003F01BFD0B2003F018FD132003E0E5
:10377000001001400C0C014003F010FD0D2003F07F
:103780000DFD0E2003F00AFD1B2003F007FD712044
:1037900003F004FD062003F001FD062003F0FEFC0B
:1037A0000A2003F0FBFC0F2003F0F8FC0E2003F0CE
:1037B000F5FC0F2003F0F2FC152003F0EFFC0C20C9
:1037C00003F0ECFC002003F0E9FC2A20ADF8000037
:1037D00025612661BDF80010CAF800102761C4F801
:1037E0001080C4F81090002003F0D8FC002003F0F3
:1037F000D5FC012003F0D2FCDF2003F0CFFC2B200E
:10380000ADF8000025612661BDF80010CAF800106F
:103810002761C4F81080C4F81090002003F0BEFCAB
:10382000002003F0BBFC032003F0B8FC1F2003F0D2
:10383000B5FC3A20ADF8000025612661BDF8001006
:10384000CAF800102761C4F81080C4F81090552001
:1038500003F0A4FC3620ADF8000025612661BDF818
:103860000010CAF800102761C4F81080C4F8109046
:10387000002003F093FC1120ADF8000025612661C3
:10388000BDF80010CAF800102761C4F81080C4F811
:1038900010907820FFF776F92920ADF80000256117
:1038A0002661BDF80010CAF800102761C4F8108026
:1038B000C4F810901420FFF765F92C20ADF8000033
:1038C00025612661BDF80010CAF800102761C4F810
:1038D0001080C4F81090BDE8F88F00002DE9F84F73
:1038E000ED20ADF80000FF4E4FF0807434616300AE
:1038F0003361BDF80000FC4D28609F1037614FF028
:103900008009C6F810904FF40078C6F810800120A6
:1039100003F044FCFE2003F041FCEE20ADF8000073
:1039200034613361BDF8000028603761C6F810903B
:10393000C6F81080DE2003F031FC212003F02EFCBD
:10394000F120ADF8000034613361BDF8000028605B
:103950003761C6F81090C6F81080012003F01EFCF5
:10396000DF20ADF8000034613361BDF8000028604D
:103970003761C6F81090C6F81080102003F00EFCD6
:103980004FF0C40AADF800A034613361BDF8000007
:1039900028603761C6F81090C6F810808F2003F0B9
:1039A000FDFB4FF0C60BADF800B034613361BDF8DC
:1039B000000028603761C6F81090C6F8108000201B
:1039C00003F0ECFBE22003F0E9FBE22003F0E6FB6E
:1039D000E22003F0E3FBBF20ADF800003461336167
:1039E000BDF8000028603761C6F81090C6F8108056
:1039F000AA2003F0D3FBB020ADF80000346133619E
:103A0000BDF8000028603761C6F81090C6F8108035
:103A10000D2003F0C3FB002003F0C0FB0D2003F0DA
:103A2000BDFB002003F0BAFB112003F0B7FB002020
:103A300003F0B4FB192003F0B1FB002003F0AEFB50
:103A4000212003F0ABFB002003F0A8FB2D2003F0A6
:103A5000A5FB002003F0A2FB3D2003F09FFB00200C
:103A600003F09CFB5D2003F099FB002003F096FB24
:103A70005D2003F093FB002003F090FBB120ADF834
:103A8000000034613361BDF8000028603761C6F87A
:103A90001090C6F81080802003F080FB002003F017
:103AA0007DFB8B2003F07AFB002003F077FB962050
:103AB00003F074FB002003F071FBB220ADF80000AE
:103AC00034613361BDF8000028603761C6F810909A
:103AD000C6F81080002003F061FB002003F05EFBBD
:103AE000022003F05BFB002003F058FB032003F0EF
:103AF00055FB002003F052FBB320ADF80000346109
:103B00003361BDF8000028603761C6F81090C6F830
:103B10001080002003F042FB002003F03FFB002058
:103B200003F03CFB002003F039FB002003F036FBE0
:103B3000002003F033FB002003F030FB002003F0F3
:103B40002DFB002003F02AFB002003F027FB0020C0
:103B500003F024FB002003F021FB002003F01EFBF8
:103B6000002003F01BFB002003F018FB002003F0F3
:103B700015FB002003F012FB002003F00FFB0020D8
:103B800003F00CFB002003F009FB002003F006FB10
:103B9000002003F003FB002003F000FB002003F0F3
:103BA000FDFAB420ADF8000034613361BDF80000C7
:103BB00028603761C6F81090C6F810808B2003F09B
:103BC000EDFA002003F0EAFA962003F0E7FA00206D
:103BD00003F0E4FAA12003F0E1FA002003F0DEFA9A
:103BE000B520ADF8000034613361BDF800002860F5
:103BF0003761C6F81090C6F81080022003F0CEFAA4
:103C0000002003F0CBFA032003F0C8FA002003F0F1
:103C1000C5FA042003F0C2FA002003F0BFFAB62070
:103C2000ADF8000034613361BDF8000028603761F1
:103C3000C6F81090C6F81080002003F0AFFA0020FC
:103C400003F0ACFAB720ADF8000034613361BDF881
:103C5000000028603761C6F81090C6F81080002078
:103C600003F09CFA002003F099FA3F2003F096FA43
:103C7000002003F093FA5E2003F090FA002003F096
:103C80008DFA642003F08AFA002003F087FA8C2072
:103C900003F084FA002003F081FAAC2003F07EFAEE
:103CA000002003F07BFADC2003F078FA002003F018
:103CB00075FA702003F072FA002003F06FFA90207A
:103CC00003F06CFA002003F069FAEB2003F066FAC7
:103CD000002003F063FADC2003F060FA002003F018
:103CE0005DFA03E0001001400C0C0140B820ADF873
:103CF000000034613361BDF8000028603761C6F808
:103D00001090C6F81080002003F048FA002003F05D
:103D100045FA002003F042FA002003F03FFA0020A9
:103D200003F03CFA002003F039FA002003F036FAE1
:103D3000002003F033FABA20ADF80000346133619B
:103D4000BDF8000028603761C6F81090C6F81080F2
:103D5000242003F023FA002003F020FA002003F0CF
:103D60001DFA002003F01AFAC120ADF800003461FA
:103D70003361BDF8000028603761C6F81090C6F8BE
:103D80001080202003F00AFA002003F007FA5420E4
:103D900003F004FA002003F001FAFF2003F0FEF91B
:103DA000002003F0FBF9C220ADF80000346133615C
:103DB000BDF8000028603761C6F81090C6F8108082
:103DC0000A2003F0EBF9002003F0E8F9042003F0E7
:103DD000E5F9002003F0E2F9C320ADF800003461FA
:103DE0003361BDF8000028603761C6F81090C6F84E
:103DF00010803C2003F0D2F9002003F0CFF93A20E4
:103E000003F0CCF9002003F0C9F9392003F0C6F91A
:103E1000002003F0C3F9372003F0C0F9002003F0BD
:103E2000BDF93C2003F0BAF9002003F0B7F93620C1
:103E300003F0B4F9002003F0B1F9322003F0AEF939
:103E4000002003F0ABF92F2003F0A8F9002003F0C5
:103E5000A5F92C2003F0A2F9002003F09FF92920F6
:103E600003F09CF9002003F099F9262003F096F95D
:103E7000002003F093F9242003F090F9002003F0D0
:103E80008DF9242003F08AF9002003F087F923201C
:103E900003F084F9002003F081F93C2003F07EF95F
:103EA000002003F07BF9362003F078F9002003F0BE
:103EB00075F9322003F072F9002003F06FF92F201A
:103EC00003F06CF9002003F069F92C2003F066F987
:103ED000002003F063F9292003F060F9002003F0CB
:103EE0005DF9262003F05AF9002003F057F9242049
:103EF00003F054F9002003F051F9242003F04EF9A7
:103F0000002003F04BF9232003F048F9002003F0D0
:103F100045F9ADF800A034613361BDF800002860B8
:103F20003761C6F81090C6F81080622003F036F9A9
:103F3000002003F033F9052003F030F9002003F0EE
:103F40002DF9842003F02AF9002003F027F9F0204E
:103F500003F024F9002003F021F9182003F01EF9E2
:103F6000002003F01BF9A42003F018F9002003F04F
:103F700015F9182003F012F9002003F00FF9502072
:103F800003F00CF9002003F009F90C2003F006F906
:103F9000002003F003F9172003F000F9002003F0DC
:103FA000FDF8952003F0FAF8002003F0F7F8F3206D
:103FB00003F0F4F8002003F0F1F8E62003F0EEF847
:103FC000002003F0EBF8C520ADF800003461336148
:103FD000BDF8000028603761C6F81090C6F8108060
:103FE000322003F0DBF8002003F0D8F8442003F07F
:103FF000D5F8002003F0D2F8652003F0CFF80020B8
:1040000003F0CCF8762003F0C9F8002003F0C6F8DE
:10401000882003F0C3F8002003F0C0F8ADF800B02A
:1040200034613361BDF8000028603761C6F8109034
:10403000C6F81080202003F0B1F8002003F0AEF89D
:10404000172003F0ABF8002003F0A8F8012003F0DC
:10405000A5F8002003F0A2F8C720ADF800003461F5
:104060003361BDF8000028603761C6F81090C6F8CB
:104070001080002003F092F8002003F08FF8002059
:1040800003F08CF8002003F089F8C820ADF8000098
:1040900034613361BDF8000028603761C6F81090C4
:1040A000C6F81080002003F079F8002003F076F8BD
:1040B000002003F073F8002003F070F8C920ADF879
:1040C000000034613361BDF8000028603761C6F834
:1040D0001090C6F81080002003F060F8002003F074
:1040E0005DF8002003F05AF8002003F057F8002094
:1040F00003F054F8002003F051F8002003F04EF8CC
:10410000002003F04BF8002003F048F8002003F0F3
:1041100045F8002003F042F8002003F03FF80020AB
:1041200003F03CF8002003F039F8002003F036F8E3
:10413000002003F033F8E020ADF800003461336173
:10414000BDF8000028604FF4000AC6F810A0CB4666
:10415000C6F810904746C6F81080162003F01EF8E7
:10416000002003F01BF81C2003F018F8002003F0D7
:1041700015F8212003F012F8002003F00FF8362084
:1041800003F00CF8002003F009F8462003F006F8CD
:10419000002003F003F8522003F000F8002002F0A2
:1041A000FDFF642002F0FAFF002002F0F7FF7A2002
:1041B00002F0F4FF002002F0F1FF8B2002F0EEFF8E
:1041C000002002F0EBFF992002F0E8FF002002F04F
:1041D000E5FFA82002F0E2FF002002F0DFFFB92097
:1041E00002F0DCFF002002F0D9FFC42002F0D6FF6D
:1041F000002002F0D3FFCA2002F0D0FF002002F01E
:10420000CDFFD22002F0CAFF002002F0C7FFD92064
:1042100002F0C4FF002002F0C1FFE02002F0BEFF68
:10422000002002F0BBFFF32002F0B8FF002002F0F4
:10423000B5FFE120ADF8000034613361BDF8000046
:104240002860C6F810A0C6F810903761162002F05A
:10425000A5FF002002F0A2FF1C2002F09FFF00201B
:1042600002F09CFF222002F099FF002002F096FF4E
:10427000362002F093FF002002F090FF452002F06C
:104280008DFF002002F08AFF522002F087FF0020FD
:1042900002F084FF642002F081FF002002F07EFF24
:1042A0007A2002F07BFF002002F078FF8B2002F0E2
:1042B00075FF002002F072FF992002F06FFF0020CE
:1042C00002F06CFFA82002F069FF002002F066FFF8
:1042D000B92002F063FF002002F060FFC42002F06A
:1042E0005DFF002002F05AFFCA2002F057FF0020B5
:1042F00002F054FFD22002F051FF002002F04EFFE6
:10430000D82002F04BFF002002F048FFE02002F02E
:1043100045FF002002F042FFF32002F03FFF0020A3
:1043200002F03CFFE220ADF8000034613361BDF8DB
:1043300000002860C6F810A0C6F81090376105206C
:1043400002F02CFF002002F029FF0B2002F026FFD4
:10435000002002F023FF1B2002F020FF002002F0CB
:104360001DFF342002F01AFF002002F017FF442046
:1043700002F014FF002002F011FF4F2002F00EFFA8
:10438000002002F00BFF612002F008FF002002F085
:1043900005FF792002F002FF002002F0FFFE8820D6
:1043A00002F0FCFE002002F0F9FE972002F0F6FE7B
:1043B000002002F0F3FEA62002F0F0FE002002F042
:1043C000EDFEB72002F0EAFE002002F0E7FEC22078
:1043D00002F0E4FE002002F0E1FEC72002F0DEFE63
:1043E000002002F0DBFED12002F0D8FE002002F017
:1043F000D5FED62002F0D2FE002002F0CFFEDD2056
:1044000002F0CCFE002002F0C9FEF32002F0C6FE4E
:10441000002002F0C3FEE320ADF8000034613361F8
:10442000BDF800002860C6F810A0C6F810903761EB
:10443000052002F0B3FE002002F0B0FE0A2002F0D8
:10444000ADFE002002F0AAFE1C2002F0A7FE002014
:1044500002F0A4FE332002F0A1FE002002F09EFE36
:10446000442002F09BFE002002F098FE502002F053
:1044700095FE002002F092FE622002F08FFE0020E6
:1044800002F08CFE782002F089FE002002F086FE09
:10449000882002F083FE002002F080FE972002F0C8
:1044A0007DFE002002F07AFEA62002F077FE0020BA
:1044B00002F074FEB72002F071FE002002F06EFEE2
:1044C000C22002F06BFE002002F068FEC72002F05E
:1044D00065FE002002F062FED12002F05FFE0020A7
:1044E00002F05CFED52002F059FE002002F056FEDC
:1044F000DD2002F053FE002002F050FEF32002F017
:104500004DFE002002F04AFEE420ADF800003461C8
:104510003361BDF800002860C6F810A0C6F81090FE
:104520003761012002F03AFE002002F037FE012040
:1045300002F034FE002002F031FE022002F02EFED6
:10454000002002F02BFE2A2002F028FE002002F0BC
:1045500025FE3C2002F022FE002002F01FFE4B2030
:1045600002F01CFE002002F019FE5D2002F016FE93
:10457000002002F013FE742002F010FE002002F072
:104580000DFE842002F00AFE002002F007FE9320B8
:1045900002F004FE002002F001FEA22002F0FEFD67
:1045A000002002F0FBFDB32002F0F8FD002002F035
:1045B000F5FDBE2002F0F2FD002002F0EFFDC42068
:1045C00002F0ECFD002002F0E9FDCD2002F0E6FD56
:1045D000002002F0E3FDD32002F0E0FD002002F015
:1045E000DDFDDD2002F0DAFD002002F0D7FDF32032
:1045F00002F0D4FD002002F0D1FDE520ADF800006E
:1046000034613361BDF800002860C6F810A0C6F818
:1046100010903761002002F0C1FD002002F0BEFDC5
:10462000002002F0BBFD002002F0B8FD022002F0E5
:10463000B5FD002002F0B2FD292002F0AFFD002000
:1046400002F0ACFD3C2002F0A9FD002002F0A6FD26
:104650004B2002F0A3FD002002F0A0FD5D2002F03F
:104660009DFD002002F09AFD742002F097FD0020CD
:1046700002F094FD842002F091FD002002F08EFDF6
:10468000932002F08BFD002002F088FDA22002F0B2
:1046900085FD002002F082FDB32002F07FFD0020A6
:1046A00002F07CFDBE2002F079FD002002F076FDD4
:1046B000C42002F073FD002002F070FDCD2002F056
:1046C0006DFD002002F06AFDD32002F067FD00209E
:1046D00002F064FDDC2002F061FD002002F05EFDCE
:1046E000F32002F05BFD002002F058FDE620ADF85B
:1046F000000034619A463361BDF80010A946296074
:10470000651035615F46C6F810B0C6F810801120FC
:1047100002F044FD002002F041FD342002F03EFD95
:10472000002002F03BFD562002F038FD002002F090
:1047300035FD762002F032FD002002F02FFD7720BB
:1047400002F02CFD002002F029FD662002F026FD7B
:10475000002002F023FD882002F020FD002002F05E
:104760001DFD992002F01AFD002002F017FDBB206C
:1047700002F014FD002002F011FD992002F00EFD60
:10478000002002F00BFD662002F008FD002002F080
:1047900005FD552002F002FD002002F0FFFC55202F
:1047A00002F0FCFC002002F0F9FC452002F0F6FCCF
:1047B000002002F0F3FC432002F0F0FC002002F0A5
:1047C000EDFC442002F0EAFC002002F0E7FCE720C8
:1047D000ADF800003461C6F810A0BDF80010C9F8AB
:1047E000001035613761C6F81080322002F0D6FC27
:1047F000002002F0D3FC552002F0D0FC002002F093
:10480000CDFC762002F0CAFC002002F0C7FC662036
:1048100002F0C4FC002002F0C1FC672002F0BEFCE4
:10482000002002F0BBFC672002F0B8FC002002F080
:10483000B5FC872002F0B2FC002002F0AFFC99200A
:1048400002F0ACFC002002F0A9FCBB2002F0A6FCA8
:10485000002002F0A3FC992002F0A0FC002002F04E
:104860009DFC772002F09AFC002002F097FC442087
:1048700002F094FC002002F091FC562002F08EFC25
:10488000002002F08BFC232002F088FC002002F0C4
:1048900085FC332002F082FC002002F07FFC4520E2
:1048A00002F07CFC002002F079FCE820ADF800006A
:1048B0003461C6F810A0BDF80010C9F800103561C9
:1048C0003761C6F81080002002F068FC002002F07A
:1048D00065FC992002F062FC002002F05FFC87205A
:1048E00002F05CFC002002F059FC882002F056FC2B
:1048F000002002F053FC772002F050FC002002F070
:104900004DFC662002F04AFC002002F047FC8820A3
:1049100002F044FC002002F041FCAA2002F03EFC20
:10492000002002F03BFCBB2002F038FC002002F02B
:1049300035FC992002F032FC002002F02FFC6620AA
:1049400002F02CFC002002F029FC552002F026FC8D
:10495000002002F023FC552002F020FC002002F091
:104960001DFC442002F01AFC002002F017FC442039
:1049700002F014FC002002F011FC552002F00EFCA5
:10498000002002F00BFCE920ADF800003461C6F80D
:1049900010A0BDF80010C9F8001035613761C6F8E5
:1049A0001080AA2002F0FAFB002002F0F7FB0020A2
:1049B00002F0F4FB002002F0F1FB0020ADF8000053
:1049C0003461C6F810A0BDF80010C9F800103561B8
:1049D0003761C6F81080AA2002F0E0FBCF20ADF8C6
:1049E00000003461C6F810A0BDF80010C9F800102E
:1049F00035613761C6F81080002002F0CFFB00203F
:104A000002F0CCFB002002F0C9FB002002F0C6FB44
:104A1000002002F0C3FB002002F0C0FB002002F0E7
:104A2000BDFB002002F0BAFB002002F0B7FB002023
:104A300002F0B4FB002002F0B1FB002002F0AEFB5C
:104A4000002002F0ABFB002002F0A8FB002002F0E7
:104A5000A5FB002002F0A2FB002002F09FFBF0204B
:104A6000ADF800003461C6F810A0BDF80010C9F818
:104A7000001035613761C6F81080002002F08EFB0F
:104A8000502002F08BFB002002F088FB002002F097
:104A900085FB002002F082FBF320ADF800003461BA
:104AA000C6F810A0BDF80010C9F8001035613761D4
:104AB000C6F81080002002F071FBF920ADF800006C
:104AC0003461C6F810A0BDF80010C9F800103561B7
:104AD0003761C6F81080062002F060FB102002F05B
:104AE0005DFB292002F05AFB002002F057FB3A2020
:104AF000ADF800003461C6F810A0BDF80010C9F888
:104B0000001035613761C6F81080552002F046FB71
:104B10001120ADF800003461C6F810A0BDF80010F7
:104B2000C9F8001035613761C6F810806420FEF7BF
:104B300029F82920ADF800003461C6F810A0BDF8AE
:104B40000010C9F8001035613761C6F810803520B3
:104B5000ADF800003461C6F810A0BDF80010C9F827
:104B6000001035613761C6F81080002002F016FB96
:104B70005120ADF800003461C6F810A0BDF8001057
:104B8000C9F8001035613761C6F81080FF2002F0C7
:104B900005FB5320ADF800003461C6F810A0BDF845
:104BA0000010C9F8001035613761C6F810802C205C
:104BB00002F0F4FA5520ADF800003461C6F810A0F8
:104BC000BDF80010C9F8001035613761C6F81080D3
:104BD000822002F0E3FA2C20ADF800003461C6F820
:104BE00010A0BDF80010C9F8001035613761C6F893
:104BF0001080BDE8F88F00002DE9F84F4FF47044A5
:104C00005521204602F0DEFA651CAA21284602F052
:104C1000D9FAA61C5221304602F0D4FAE71C08212A
:104C2000384602F0CFFA4FF204080121404602F064
:104C3000C9FA0D214FF4304002F0C4FA0D214BF2B5
:104C4000010002F0BFFA0D214BF2020002F0BAFAA5
:104C50004FF436493421484602F0B4FA34214BF27D
:104C6000016002F0AFFA34214BF2026002F0AAFABE
:104C70004FF4314A0D21504602F0A4FA4BF2011BC9
:104C80000D21584602F09EFA0D214BF2021002F05F
:104C900099FA34214FF4374002F094FA34214BF260
:104CA000017002F08FFA34214BF2027002F08AFA9E
:104CB00000214FF4324002F085FA00214BF201202E
:104CC00002F080FA00214BF2022002F07BFA24214C
:104CD0004FF4384002F076FA24214BF6010002F03E
:104CE00071FA24214BF6020002F06CFA01214FF414
:104CF0003F4002F067FA0F214FF4334002F062FAAE
:104D00000F214BF2013002F05DFA0F214BF202301D
:104D100002F058FA34214FF4394002F053FA3421AA
:104D20004BF6011002F04EFA34214BF6021002F05D
:104D300049FA08214FF4354002F044FA08214BF2B9
:104D4000015002F03FFA08214BF2025002F03AFA09
:104D500003214FF4424002F035FA24214FF43A4047
:104D600002F030FA24214BF6012002F02BFA242124
:104D70004BF6022002F026FA00214FF43C4002F0EC
:104D800021FA78214BF6014002F01CFA00214BF683
:104D9000024002F017FA00214FF43D4002F012FAEF
:104DA00078214BF6015002F00DFA00214BF602502B
:104DB00002F008FA00214FF43E4002F003FA6421A9
:104DC0004BF6016002F0FEF900214FF4514002F071
:104DD000F9F933214DF2011002F0F4F900214DF2FE
:104DE000021002F0EFF934214DF2031002F0EAF95B
:104DF00000214DF2041002F0E5F93A214DF20510C0
:104E000002F0E0F900214DF2061002F0DBF94A2130
:104E10004DF2071002F0D6F900214DF2081002F011
:104E2000D1F95C214DF2091002F0CCF900214DF2CC
:104E30000A1002F0C7F981214DF20B1002F0C2F9FD
:104E400000214DF20C1002F0BDF9A6214DF20D101B
:104E500002F0B8F900214DF20E1002F0B3F9E5218D
:104E60004DF20F1002F0AEF901214DF2101002F0D8
:104E7000A9F913214DF2111002F0A4F901214DF20C
:104E8000121002F09FF954214DF2131002F09AF91A
:104E900001214DF2141002F095F982214DF2151006
:104EA00002F090F901214DF2161002F08BF9CA219F
:104EB0004DF2171002F086F902214DF2181002F09F
:104EC00081F900214DF2191002F07CF902214DF216
:104ED0001A1002F077F901214DF21B1002F072F95D
:104EE00002214DF21C1002F06DF934214DF21D101B
:104EF00002F068F902214DF21E1002F063F96721F9
:104F00004DF21F1002F05EF902214DF2201002F066
:104F100059F984214DF2211002F054F902214DF289
:104F2000221002F04FF9A4214DF2231002F04AF9A9
:104F300002214DF2241002F045F9B7214DF225105F
:104F400002F040F902214DF2261002F03BF9CF2188
:104F50004DF2271002F036F902214DF2281002F02E
:104F600031F9DE214DF2291002F02CF902214DF227
:104F70002A1002F027F9F2214DF22B1002F022F94B
:104F800002214DF22C1002F01DF9FE214DF22D10E0
:104F900002F018F903214DF22E1002F013F910213E
:104FA0004DF22F1002F00EF903214DF2301002F0F5
:104FB00009F933214DF2311002F004F903214DF2C9
:104FC000321002F0FFF86D214DF2331002F0FAF8C2
:104FD00000214FF4524002F0F5F833214DF2012048
:104FE00002F0F0F800214DF2022002F0EBF834213B
:104FF0004DF2032002F0E6F800214DF2042002F009
:10500000E1F83A214DF2052002F0DCF800214DF2E2
:10501000062002F0D7F84A214DF2072002F0D2F81C
:1050200000214DF2082002F0CDF85C214DF209205C
:1050300002F0C8F800214DF20A2002F0C3F88121E5
:105040004DF20B2002F0BEF800214DF20C2002F0D0
:10505000B9F8A6214DF20D2002F0B4F800214DF26E
:105060000E2002F0AFF8E5214DF20F2002F0AAF871
:1050700001214DF2102002F0A5F813214DF211206C
:1050800002F0A0F801214DF2122002F09BF8542109
:105090004DF2132002F096F801214DF2142002F097
:1050A00091F882214DF2152002F08CF801214DF289
:1050B000162002F087F8CA214DF2172002F082F87C
:1050C00002214DF2182002F07DF800214DF2192046
:1050D00002F078F802214DF21A2002F073F8012153
:1050E0004DF21B2002F06EF802214DF21C2002F05E
:1050F00069F834214DF21D2002F064F802214DF2CE
:105100001E2002F05FF867214DF21F2002F05AF8CE
:1051100002214DF2202002F055F884214DF2212089
:1051200002F050F802214DF2222002F04BF8A421A7
:105130004DF2232002F046F802214DF2242002F025
:1051400041F8B7214DF2252002F03CF802214DF242
:10515000262002F037F8CF214DF2272002F032F856
:1051600002214DF2282002F02DF8DE214DF22920F7
:1051700002F028F802214DF22A2002F023F8F22151
:105180004DF22B2002F01EF802214DF22C2002F0ED
:1051900019F8FE214DF22D2002F014F803214DF2F2
:1051A0002E2002F00FF810214DF22F2002F00AF805
:1051B00003214DF2302002F005F833214DF2312069
:1051C00002F000F803214DF2322001F0FBFF6D21C7
:1051D0004DF2332001F0F6FF00214FF4534001F06F
:1051E000F1FF33214DF2013001F0ECFF00214DF2CF
:1051F000023001F0E7FF34214DF2033001F0E2FF0D
:1052000000214DF2043001F0DDFF3A214DF205306E
:1052100001F0D8FF00214DF2063001F0D3FF4A2102
:105220004DF2073001F0CEFF00214DF2083001F0C1
:10523000C9FF5C214DF2093001F0C4FF00214DF29D
:105240000A3001F0BFFF81214DF20B3001F0BAFFAF
:1052500000214DF20C3001F0B5FFA6214DF20D30CA
:1052600001F0B0FF00214DF20E3001F0ABFFE5215F
:105270004DF20F3001F0A6FF01214DF2103001F088
:10528000A1FF13214DF2113001F09CFF01214DF2DD
:10529000123001F097FF54214DF2133001F092FFCC
:1052A00001214DF2143001F08DFF82214DF21530B5
:1052B00001F088FF01214DF2163001F083FFCA2171
:1052C0004DF2173001F07EFF02214DF2183001F04F
:1052D00079FF00214DF2193001F074FF02214DF2E7
:1052E0001A3001F06FFF01214DF21B3001F06AFF0F
:1052F00002214DF21C3001F065FF34214DF21D30CA
:1053000001F060FF02214DF21E3001F05BFF6721CA
:105310004DF21F3001F056FF02214DF2203001F016
:1053200051FF84214DF2213001F04CFF02214DF25A
:10533000223001F047FFA4214DF2233001F042FF5B
:1053400002214DF2243001F03DFFB7214DF225300E
:1053500001F038FF02214DF2263001F033FFCF215A
:105360004DF2273001F02EFF02214DF2283001F0DE
:1053700029FFDE214DF2293001F024FF02214DF2F8
:105380002A3001F01FFFF2214DF22B3001F01AFFFD
:1053900002214DF22C3001F015FFFE214DF22D308F
:1053A00001F010FF03214DF22E3001F00BFF102110
:1053B0004DF22F3001F006FF03214DF2303001F0A5
:1053C00001FF33214DF2313001F0FCFE03214DF29B
:1053D000323001F0F7FE6D214DF2333001F0F2FE74
:1053E00000214FF4544001F0EDFE33214DF2014015
:1053F00001F0E8FE00214DF2024001F0E3FE34210D
:105400004DF2034001F0DEFE00214DF2044001F0B8
:10541000D9FE3A214DF2054001F0D4FE00214DF2B3
:10542000064001F0CFFE4A214DF2074001F0CAFECE
:1054300000214DF2084001F0C5FE5C214DF209400B
:1054400001F0C0FE00214DF20A4001F0BBFE8121B7
:105450004DF20B4001F0B6FE00214DF20C4001F080
:10546000B1FEA6214DF20D4001F0ACFE00214DF23F
:105470000E4001F0A7FEE5214DF20F4001F0A2FE23
:1054800001214DF2104001F09DFE13214DF211401B
:1054900001F098FE01214DF2124001F093FE5421DB
:1054A0004DF2134001F08EFE01214DF2144001F047
:1054B00089FE82214DF2154001F084FE01214DF25A
:1054C000164001F07FFECA214DF2174001F07AFE2E
:1054D00002214DF2184001F075FE00214DF21940F5
:1054E00001F070FE02214DF21A4001F06BFE012125
:1054F0004DF21B4001F066FE02214DF21C4001F00E
:1055000061FE34214DF21D4001F05CFE02214DF29E
:105510001E4001F057FE67214DF21F4001F052FE80
:1055200002214DF2204001F04DFE84214DF2214038
:1055300001F048FE02214DF2224001F043FEA42179
:105540004DF2234001F03EFE02214DF2244001F0D5
:1055500039FEB7214DF2254001F034FE02214DF213
:10556000264001F02FFECF214DF2274001F02AFE08
:1055700002214DF2284001F025FEDE214DF22940A6
:1055800001F020FE02214DF22A4001F01BFEF22123
:105590004DF22B4001F016FE02214DF22C4001F09D
:1055A00011FEFE214DF22D4001F00CFE03214DF2C3
:1055B0002E4001F007FE10214DF22F4001F002FEB7
:1055C00003214DF2304001F0FDFD33214DF2314019
:1055D00001F0F8FD03214DF2324001F0F3FD6D21A1
:1055E0004DF2334001F0EEFD00214FF4554001F043
:1055F000E9FD33214DF2015001F0E4FD00214DF2AF
:10560000025001F0DFFD34214DF2035001F0DAFDCC
:1056100000214DF2045001F0D5FD3A214DF2055024
:1056200001F0D0FD00214DF2065001F0CBFD4A21E2
:105630004DF2075001F0C6FD00214DF2085001F077
:10564000C1FD5C214DF2095001F0BCFD00214DF27D
:105650000A5001F0B7FD81214DF20B5001F0B2FD6F
:1056600000214DF20C5001F0ADFDA6214DF20D5080
:1056700001F0A8FD00214DF20E5001F0A3FDE5213F
:105680004DF20F5001F09EFD01214DF2105001F03E
:1056900099FD13214DF2115001F094FD01214DF2BD
:1056A000125001F08FFD54214DF2135001F08AFD8C
:1056B00001214DF2145001F085FD82214DF215506B
:1056C00001F080FD01214DF2165001F07BFDCA2151
:1056D0004DF2175001F076FD02214DF2185001F005
:1056E00071FD00214DF2195001F06CFD02214DF2C7
:1056F0001A5001F067FD01214DF21B5001F062FDCF
:1057000002214DF21C5001F05DFD34214DF21D507F
:1057100001F058FD02214DF21E5001F053FD6721AA
:105720004DF21F5001F04EFD02214DF2205001F0CC
:1057300049FD84214DF2215001F044FD02214DF23A
:10574000225001F03FFDA4214DF2235001F03AFD1B
:1057500002214DF2245001F035FDB7214DF22550C4
:1057600001F030FD02214DF2265001F02BFDCF213A
:105770004DF2275001F026FD02214DF2285001F094
:1057800021FDDE214DF2295001F01CFD02214DF2D8
:105790002A5001F017FDF2214DF22B5001F012FDBD
:1057A00002214DF22C5001F00DFDFE214DF22D5045
:1057B00001F008FD03214DF22E5001F003FD1021F0
:1057C0004DF22F5001F0FEFC03214DF2305001F05C
:1057D000F9FC33214DF2315001F0F4FC03214DF27C
:1057E000325001F0EFFC6D214DF2335001F0EAFC34
:1057F00000214FF4564001F0E5FC33214DF20160E9
:1058000001F0E0FC00214DF2026001F0DBFC3421EC
:105810004DF2036001F0D6FC00214DF2046001F06E
:10582000D1FC3A214DF2056001F0CCFC00214DF293
:10583000066001F0C7FC4A214DF2076001F0C2FC8E
:1058400000214DF2086001F0BDFC5C214DF20960C1
:1058500001F0B8FC00214DF20A6001F0B3FC812197
:105860004DF20B6001F0AEFC00214DF20C6001F036
:10587000A9FCA6214DF20D6001F0A4FC00214DF21F
:105880000E6001F09FFCE5214DF20F6001F09AFCE3
:1058900001214DF2106001F095FC13214DF21160D1
:1058A00001F090FC01214DF2126001F08BFC5421BB
:1058B0004DF2136001F086FC01214DF2146001F0FD
:1058C00081FC82214DF2156001F07CFC01214DF23A
:1058D000166001F077FCCA214DF2176001F072FCEE
:1058E00002214DF2186001F06DFC00214DF21960AB
:1058F00001F068FC02214DF21A6001F063FC012105
:105900004DF21B6001F05EFC02214DF21C6001F0C3
:1059100059FC34214DF21D6001F054FC02214DF27E
:105920001E6001F04FFC67214DF21F6001F04AFC40
:1059300002214DF2206001F045FC84214DF22160EE
:1059400001F040FC02214DF2226001F03BFCA42159
:105950004DF2236001F036FC02214DF2246001F08B
:1059600031FCB7214DF2256001F02CFC02214DF2F3
:10597000266001F027FCCF214DF2276001F022FCC8
:1059800002214DF2286001F01DFCDE214DF229605C
:1059900001F018FC02214DF22A6001F013FCF22103
:1059A0004DF22B6001F00EFC02214DF22C6001F053
:1059B00009FCFE214DF22D6001F004FC03214DF2A3
:1059C0002E6001F0FFFB10214DF22F6001F0FAFB79
:1059D00003214DF2306001F0F5FB33214DF23160CF
:1059E00001F0F0FB03214DF2326001F0EBFB6D2181
:1059F0004DF2336001F0E6FB5521204601F0E2FB59
:105A0000AA21284601F0DEFB5221304601F0DAFBE4
:105A10000821384601F0D6FB0021404601F0D2FBB8
:105A2000CC21504601F0CEFB0021584601F0CAFBC4
:105A30000521484601F0C6FB70214FF4374001F0C4
:105A4000C1FB70214BF2017001F0BCFB01214FF44E
:105A5000384001F0B7FB03214BF6010001F0B2FB27
:105A600003214BF6020001F0ADFB03214BF60300CE
:105A700001F0A8FB02214FF43C4001F0A3FB002100
:105A80004BF6014001F09EFB00214BF6024001F075
:105A900099FBD0214FF4494001F094FB02214CF6D0
:105AA000011001F08FFB50214CF6021001F08AFB2F
:105AB00050214CF6031001F085FB50214CF60410E8
:105AC00001F080FB00214FF4545001F07BFB552185
:105AD0004FF4685001F076FB4FF48850ADF80000A9
